1081011447000168251768309     INPAL QUÍMICA LTDA                 Indaial                       SC00000000002009120120091231331
11ROD RODOVIA BR 470 S/Nº - KM 66   01111                      ENCANO NORTE   89130000DIETER                      000000111111
50061597820001929030711332    20091201PR551  0073492101T000000030000000000003000000000000036000000000000000000000000000001200N
5010313896000112255684606     20091202SC011  0007761101T000000014000000000000000000000000000000000000014000000000000000000000N
5003080418000144253888131     20091204SC551  0046521921T000000028800000000000000000000000000000000000000000000000002880000000N
503341352700010582302018      20091207RJ011  0787502101T000000356300000000035630000000000427560000000000000000000000000001200N
5062545686001206695001023110  20091208SP551  0056122101T000000067951800000006795180000000081542000000000000000000000000001200N
5084043009000170250043025     20091208SC551  0215801921T000000014400000000000000000000000000000000000000000000000001440000000N
5082636911000174250010828     20091208SC553  0026061921T000000004800000000000000000000000000000000000000000000000000480000000N
5010489658000162255741596     20091209SC011  0003931101T000000012500000000001250000000000021250000000000000000000000000001700N
5049311558000187712003130112  20091209SP551  0093371921T000000022500000000000000000000000000000000000000000000000002250000000N
5084683408000103250055260     20091209SC552  0366141921T000000024000000000000000000000000000000000000000000000000002400000000N
5084429737000114250264722     20091210SC017  5060601921T000000009600000000000000000000000000000000000000000000000000960000000N
5082636911000174250010828     20091211SC553  0027301921T000000004800000000000000000000000000000000000000000000000000480000000N
503341352700010582302018      20091214RJ011  0788742101T000000187438000000018743800000000224925000000000000000000000000001200N
503341352700010582302018      20091214RJ011  0788752101T000000108200000000010820000000000129840000000000000000000000000001200N
5084043009000170250043025     20091215SC551  0232461921T000000014400000000000000000000000000000000000000000000000001440000000N
5084683408000103250055260     20091216SC552  0385951921T000000004800000000000000000000000000000000000000000000000000480000000N
51061597820001929030711332    20091201PR1  00734921010000000300000000000000000000000000000000000000300000                    N
5110313896000112255684606     20091202SC1  00077611010000000140000000000000000000000000000000000000140000                    N
5103080418000144253888131     20091204SC1  00465219210000000288000000000000000000000000000000000000288000                    N
513341352700010582302018      20091207RJ1  07875021010000003563000000000000000000000000000000000003563000                    N
5162545686001206695001023110  20091208SP1  00561221010000000679518000000000000000000000000000000000679518                    N
5184043009000170250043025     20091208SC1  02158019210000000144000000000000000000000000000000000000144000                    N
5182636911000174250010828     20091208SC3  00260619210000000048000000000000000000000000000000000000048000                    N
5184683408000103250055260     20091209SC2  03661419210000000240000000000000000000000000000000000000240000                    N
5149311558000187712003130112  20091209SP1  00933719210000000225000000000000000000000000000000000000225000                    N
5110489658000162255741596     20091209SC1  00039311010000000125000000000000000000000000000000000000125000                    N
5184429737000114250264722     20091210SC7  50606019210000000096000000000000000000000000000000000000096000                    N
5182636911000174250010828     20091211SC3  00273019210000000048000000000000000000000000000000000000048000                    N
513341352700010582302018      20091214RJ1  07887521010000001082000000000000000000000000000000000001082000                    N
513341352700010582302018      20091214RJ1  07887421010000001874380000000000000000000000000000000001874380                    N
5184043009000170250043025     20091215SC1  02324619210000000144000000000000000000000000000000000000144000                    N
5184683408000103250055260     20091216SC2  03859519210000000048000000000000000000000000000000000000048000                    N
5403080418000144551  00465219210410018504000       000000060000000002880000000000000000000000000000000000000000000000000000000
5406159782000192551  0073492101041001A000017       000007500000000003000000000000000000000003000000000000000000000000000001200
5410313896000112011  00077611010410018510200       000000500000000001400000000000000000000000000000000000000000000000000000000
5410489658000162011  0003931101041001O000123       000001000000000001250000000000000000000001250000000000000000000000000001700
5433413527000105011  0787502101041001W000077       000008000000000001400000000000000000000001400000000000000000000000000001200
5433413527000105011  0787502101041002W002440       000010000000000004250000000000000000000004250000000000000000000000000001200
5433413527000105011  0787502101041003W002203       000030000000000006690000000000000000000006690000000000000000000000000001200
5433413527000105011  0787502101041004W002244       000010000000000003210000000000000000000003210000000000000000000000000001200
5433413527000105011  0787502101041005W002041       000020000000000003080000000000000000000003080000000000000000000000000001200
5433413527000105011  0787502101041006W002413       000010000000000001430000000000000000000001430000000000000000000000000001200
5433413527000105011  0787502101041007W003004       000030000000000014910000000000000000000014910000000000000000000000000001200
5433413527000105011  0787502101041008W002553       000002000000000000660000000000000000000000660000000000000000000000000001200
5433413527000105011  0788742101041001W000078       000001800000000000660600000000000000000000660600000000000000000000000001200
5433413527000105011  0788742101041002W002049       000012600000000002167200000000000000000002167200000000000000000000000001200
5433413527000105011  0788742101041003W002244       000020000000000006380000000000000000000006380000000000000000000000000001200
5433413527000105011  0788742101041004W002203       000038000000000008550000000000000000000008550000000000000000000000000001200
5433413527000105011  0788742101041005W002289       000002000000000000986000000000000000000000986000000000000000000000000001200
5433413527000105011  0788752101041001W002385       000002000000000000414000000000000000000000414000000000000000000000000001200
5433413527000105011  0788752101041002W002413       000030000000000004290000000000000000000004290000000000000000000000000001200
5433413527000105011  0788752101041003W002239       000002000000000001546000000000000000000001546000000000000000000000000001200
5433413527000105011  0788752101041004W002440       000010000000000004240000000000000000000004240000000000000000000000000001200
5433413527000105011  0788752101041005W000077       000002000000000000330000000000000000000000330000000000000000000000000001200
5449311558000187551  00933719210410018504000       000000050000000002250000000000000000000000000000000000000000000000000000000
5462545686001206551  0056122101041001T000114       000020000000000006795180000000000000000006795180000000000000000000000001200
5482636911000174553  00260619210410018504000       000000010000000000480000000000000000000000000000000000000000000000000000000
5482636911000174553  00273019210410018504000       000000010000000000480000000000000000000000000000000000000000000000000000000
5484043009000170551  02158019210410018504000       000000030000000001440000000000000000000000000000000000000000000000000000000
5484043009000170551  02324619210410018504000       000000030000000001440000000000000000000000000000000000000000000000000000000
5484429737000114017  50606019210410018504000       000000020000000000960000000000000000000000000000000000000000000000000000000
5484683408000103552  03661419210410018504000       000000050000000002400000000000000000000000000000000000000000000000000000000
5484683408000103552  03859519210410018504000       000000010000000000480000000000000000000000000000000000000000000000000000000
70043110890002499038338231    20091201PR08U1 02612523520000000300000000000003000000000000003600000000000000000000000000000001N
7083171744000104251768716     20091207SC08U1 22157723520000003563000000000035630000000000060571000000000000000000000000000001N
7082666983000164251768970     20091208SC08U1 51919523520000000679518000000006795180000000011551800000000000000000000000000001N
7083171744000104251768716     20091214SC08U1 22195123520000002956380000000029563800000000050258400000000000000000000000000001N
7520091201200912318504000               Conteiner 1000 L - recuperado                        PC    000000000000000000000000000
7520091201200912318510200               Tambor de 200 L - Recuperado                         PC    000000000000000000000000000
752009120120091231A000017       00340211ACIDO SULFÔNICO                                      KG    000000000000000000000000000
752009120920091231O000123               PEREGAL P                                            KG    000000000000000000000000000
752009120120091231T000114       29041051NAFTALENO SULFONADO E CONDENSADO C/ FORMOL           KG    000000000000000000000000000
752009120120091231W000077               INPALTEX S 122                                       KG    000000000000000000000000000
752009120120091231W000078       38099110INPALWAX 18                                          KG    000000000000000000000000000
752009120720091231W002041       00380991AGETEX 190                                           KG    000000000000000000000000000
752009120120091231W002049       38099190INPALSOFT G 20                                       KG    000000000000000000000000000
752009120120091231W002203       00380991PERMALENE VNN                                        KG    000000000000000000000000000
752009120120091231W002239       00380991ISALENE DE CONC                                      KG    000000000000000000000000000
752009120120091231W002244       00380091INPALIZAN IP                                         KG    000000000000000000000000000
752009120120091231W002289       00380991INPALIZAN IP CONC                                    KG    000000000000000000000000000
752009121420091231W002385               INPALCID CONC                                        KG    000000000000000000000000000
752009120120091231W002413               Inpalsoft SH                                         KG    000000000000000000000000000
752009120120091231W002440               INPALSIL  SUPER                                      KG    000000000000000000000000000
752009120720091231W002553               Base Sul LQ2 2500                                    KG    000000000000000000000000000
752009120120091231W003004       00380991INPALENE XP 8                                        KG    000000000000000000000000000
9081011447000168251768309     500000001651000000165400000031700000000475000000189900000088                                   1
