106859419100010984771376      Palese Laticínios Ltda             Rio de Janeiro                RJ21259685312010030120100331331
11R Getúlio, 143                    00123                      Todos os Santos20775000Paulo Cesar Tavares Garret  000011111111
5061087367000260210002693110  20100318SP551  0930092102T000000020493400000002049340000000024591000000000000000000000000001200N
50893052390001830370001605    20100319RS551  1267292102T000000020557000000002055700000000024668000000000000000000000000001200N
50893052390001830370001605    20100319RS551  1267292102T000000008640000000000000000000000000000000000000000000000000864000000N
50893052390001830370001605    20100319RS551  1269972102T000000005652000000000565200000000006782000000000000000000000000001200N
5084046101037194104170630110  20100320SP551  1280942102T000000024500000000002450000000000029400000000000000000000000000001200N
5083011247001021253673054     20100320SC558  0044202102T000000256022000000025602200000000307226000000000000000000000000001200N
50049019600001836151635030031 20100321MG011  0030152102T000000038783000000003878300000000046540000000000000000000000000001200N
50789005110007429048510350    20100321PR011  0169902102T000000017370800000001737080000000020845000000000000000000000000001200N
50893052390001830370001605    20100322RS011  0171592102T000000020000000000002000000000000014000000000000000000000000000001200N
500542861600018177486100      20100322RJ011  0366121102T000000031200000000003120000000000021840000000000000000000000000000700N
503333712201418780203314      20100322RJ551  0000015102P000000001057400000000000000000000000000000000000000000000000105740000N
500290511000195781330174      20100322RJ551  0000025102P000000001615300000000000000000000000000000000000000000000000161530000N
500627083700013777730303      20100322RJ551  0000035102P000000001118400000000000000000000000000000000000000000000000111840000N
500290511000195781330174      20100322RJ551  0000045102P000000001852100000000000000000000000000000000000000000000000185210000N
503333712200012781216509      20100322RJ551  0000055102P000000001073300000000000000000000000000000000000000000000000107330000N
500204615700018386357135      20100322RJ551  0000065102P000000001105100000000000000000000000000000000000000000000000110510000N
501088559500016378806176      20100322RJ551  0000075102P000000001747500000000000000000000000000000000000000000000000174750000N
506794507100102985804774      20100322RJ551  0000085102P000000001836000000000000000000000000000000000000000000000000183600000N
500290511000195781330174      20100322RJ551  0000095102P000000001303400000000000000000000000000000000000000000000000130340000N
500290511000195781330174      20100322RJ551  0000105102P000000000000000000000000000000000000000000000000000000000000000000000S
500290511000195781330174      20100322RJ551  0000115102P000000002725800000000000000000000000000000000000000000000000272580000N
500368839600010877019340      20100322RJ551  0000125102P000000002375300000000000000000000000000000000000000000000000237530000N
500290511000195781330174      20100322RJ551  0000135102P000000002592300000000000000000000000000000000000000000000000259230000N
504229750700010700031070      20100322RJ551  0000145102P000000001291800000000000000000000000000000000000000000000000129180000N
500568923900013477572201      20100322RJ551  0000155102P000000000950700000000000000000000000000000000000000000000000095070000N
500578271700015677586687      20100322RJ551  0000165102P000000001016200000000000000000000000000000000000000000000000101620000N
500578271700015677586687      20100322RJ551  0000175102P000000001216300000000000000000000000000000000000000000000000121630000N
5029259736000241ISENTO        20100322RJ551  0000185102P000000002846900000000000000000000000000000000000000000000000284690000N
503300994500233982174265      20100322RJ551  0000195102P000000000000000000000000000000000000000000000000000000000000000000000S
503300994500233982174265      20100322RJ551  0000205102P000000003066600000000000000000000000000000000000000000000000306660000N
5033469164001860ISENTO        20100322RJ551  0000215102P000000021313700000000000000000000000000000000000000000000002131370000N
503346916400011101063910      20100322RJ551  0000225102P000000010579900000000000000000000000000000000000000000000001057990000N
5027002211000110ISENTO        20100322RJ551  0000235102P000000000703100000000000000000000000000000000000000000000000070310000N
500697556400012677787143      20100322RJ551  0000245102P000000000937200000000000000000000000000000000000000000000000093720000N
500697556400012677787143      20100322RJ551  0000255102P000000001322300000000000000000000000000000000000000000000000132230000N
500697556400012677787143      20100322RJ551  0000265102P000000001043300000000000000000000000000000000000000000000000104330000N
500697556400012677787143      20100322RJ551  0000275102P000000001182600000000000000000000000000000000000000000000000118260000N
503327984500011781479038      20100322RJ551  0000285102P000000001310000000000000000000000000000000000000000000000000131000000N
503361370400019981538832      20100322RJ551  0000295102P000000001045000000000000000000000000000000000000000000000000104500000N
504214367700012981478600      20100322RJ551  0000305102P000000000732500000000000000000000000000000000000000000000000073250000N
504214367700012981478600      20100322RJ551  0000315102P000000000000000000000000000000000000000000000000000000000000000000000S
503332506900014481470995      20100322RJ551  0000325102P000000001821800000000000000000000000000000000000000000000000182180000N
500290511000195781330174      20100322RJ551  0000335102P000000004274200000000000000000000000000000000000000000000000427420000N
501049574300013378689480      20100322RJ551  0000345102P000000001672000000000000000000000000000000000000000000000000167200000N
506794507100102985804774      20100322RJ551  0000355102P000000003172200000000000000000000000000000000000000000000000317220000N
500171334500015585893491      20100322RJ551  0000365102P000000001101500000000000000000000000000000000000000000000000110150000N
503343645200017081741255      20100322RJ551  0000375102P000000002340700000000000000000000000000000000000000000000000234070000N
503307736300026581392846      20100322RJ551  0000385102P000000001349400000000000000000000000000000000000000000000000134940000N
501027534700010978607904      20100322RJ551  0000395102P000000001012500000000000000000000000000000000000000000000000101250000N
500778766700012578423668      20100322RJ551  0000405102P000000003348000000000000000000000000000000000000000000000000334800000N
506794507100102985804774      20100322RJ551  0000415102P000000001208700000000000000000000000000000000000000000000000120870000N
500290511000195781330174      20100322RJ551  0000425102P000000000983400000000000000000000000000000000000000000000000098340000N
500627083700013777730303      20100322RJ551  0000435102P000000001423100000000000000000000000000000000000000000000000142310000N
500368839600010877019340      20100322RJ551  0000445102P000000001156800000000000000000000000000000000000000000000000115680000N
500309710000017675972520      20100322RJ551  0000455102P000000001316800000000000000000000000000000000000000000000000131680000N
503361384500010181462658      20100322RJ551  0000465102P000000001473000000000000000000000000000000000000000000000000147300000N
500778766700012578423668      20100322RJ551  0000475102P000000001484600000000000000000000000000000000000000000000000148460000N
503427316900013781538689      20100322RJ551  0000485102P000000003675000000000000000000000000000000000000000000000000367500000N
500778766700012578423668      20100322RJ551  0000495102P000000001225300000000000000000000000000000000000000000000000122530000N
5033469164001860ISENTO        20100322RJ551  0000505102P000000001803800000000000000000000000000000000000000000000000180380000N
503620887400018684079219      20100322RJ551  0000515102P000000001073300000000000000000000000000000000000000000000000107330000N
500882647500014378291532      20100322RJ551  0000525102P000000001573600000000000000000000000000000000000000000000000157360000N
500019151700010577065300      20100322RJ551  0000535102P000000000778600000000000000000000000000000000000000000000000077860000N
500697556400012677787143      20100322RJ551  0000545102P000000000482500000000000000000000000000000000000000000000000048250000N
508700133501742084881570      20100322RJ551  0000555102P000000001105900000000000000000000000000000000000000000000000110590000N
503435365600010081984174      20100322RJ551  0000565102P000000001465000000000000000000000000000000000000000000000000146500000N
500578271700015677586687      20100322RJ551  0000575102P000000001328700000000000000000000000000000000000000000000000132870000N
500744455400012777932542      20100322RJ551  0000585102P000000001508800000000000000000000000000000000000000000000000150880000N
500778766700012578423668      20100322RJ551  0000595102P000000002634800000000000000000000000000000000000000000000000263480000N
500775853900015377287086      20100322RJ551  0000605102P000000002197500000000000000000000000000000000000000000000000219750000N
500697556400012677787143      20100322RJ551  0000615102P000000001647300000000000000000000000000000000000000000000000164730000N
500290511000195781330174      20100322RJ551  0000625102P000000002932300000000000000000000000000000000000000000000000293230000N
500627083700013777730303      20100322RJ551  0000635102P000000000259500000000000000000000000000000000000000000000000025950000N
500290511000195781330174      20100322RJ551  0000645102P000000003243600000000000000000000000000000000000000000000000324360000N
500772277800015378035340      20100322RJ551  0000655102P000000002430000000000000000000000000000000000000000000000000243000000N
500695426400016077796100      20100322RJ551  0000665102P000000004139700000000000000000000000000000000000000000000000413970000N
500589824300010277611860      20100322RJ551  0000675102P000000001639000000000000000000000000000000000000000000000000163900000N
500382175000011276161844      20100322RJ551  0000685102P000000004955700000000000000000000000000000000000000000000000495570000N
500290511000195781330174      20100322RJ551  0000695102P000000002991400000000000000000000000000000000000000000000000299140000N
500451558800017777192840      20100322RJ551  0000705102P000000004680900000000000000000000000000000000000000000000000468090000N
500931259000016278479434      20100322RJ551  0000715102P000000001166500000000000000000000000000000000000000000000000116650000N
500754307100018077965637      20100322RJ551  0000725102P000000001904400000000000000000000000000000000000000000000000190440000N
500965412200017678533617      20100322RJ551  0000735102P000000001217100000000000000000000000000000000000000000000000121710000N
500290511000195781330174      20100322RJ551  0000745102P000000001491800000000000000000000000000000000000000000000000149180000N
500290511000195781330174      20100322RJ551  0000755102P000000005700100000000000000000000000000000000000000000000000570010000N
500290511000195781330174      20100322RJ551  0000765102P000000001609300000000000000000000000000000000000000000000000160930000N
500290511000195781330174      20100322RJ551  0000775102P000000006164000000000000000000000000000000000000000000000000616400000N
500618635500010178208384      20100322RJ551  0000785102P000000002378300000000000000000000000000000000000000000000000237830000N
500006058600026085891782      20100322RJ551  0000795102P000000001532300000000000000000000000000000000000000000000000153230000N
500290511000195781330174      20100322RJ551  0000805102P000000012145900000000000000000000000000000000000000000000001214590000N
500697556400012677787143      20100322RJ551  0000815102P000000001313100000000000000000000000000000000000000000000000131310000N
500290511000195781330174      20100322RJ551  0000825102P000000000000000000000000000000000000000000000000000000000000000000000S
500204615700018386357135      20100322RJ551  0000835102P000000002646600000000000000000000000000000000000000000000000264660000N
500818427200010978238208      20100322RJ551  0000845102P000000004667200000000000000000000000000000000000000000000000466720000N
500862839600012878246553      20100322RJ551  0000855102P000000001739500000000000000000000000000000000000000000000000173950000N
500478477000012377287086      20100322RJ551  0000865102P000000002547700000000000000000000000000000000000000000000000254770000N
506794507103101777930990      20100322RJ551  0000875102P000000004511400000000000000000000000000000000000000000000000451140000N
500290511000195781330174      20100322RJ551  0000885102P000000005989500000000000000000000000000000000000000000000000598950000N
500716217200010077855947      20100322RJ551  0000895102P000000001322700000000000000000000000000000000000000000000000132270000N
500290511000195781330174      20100322RJ551  0000905102P000000004333400000000000000000000000000000000000000000000000433340000N
500290511000195781330174      20100322RJ551  0000915102P000000003352100000000000000000000000000000000000000000000000335210000N
506874193300017384707201      20100322RJ551  0000925102P000000001307500000000000000000000000000000000000000000000000130750000N
500778766700012578423668      20100322RJ551  0000935102P000000000757900000000000000000000000000000000000000000000000075790000N
500290511000195781330174      20100322RJ551  0000945102P000000001396100000000000000000000000000000000000000000000000139610000N
5033456476000786ISENTO        20100322RJ551  0000955102P000000001920800000000000000000000000000000000000000000000000192080000N
5033636499001159ISENTO        20100322RJ551  0000965102P000000004079000000000000000000000000000000000000000000000000407900000N
503341389900020477505237      20100322RJ551  0000975102P000000001045000000000000000000000000000000000000000000000000104500000N
500017332200013284899089      20100322RJ551  0000985102P000000003837100000000000000000000000000000000000000000000000383710000N
50206859960001233302922520052 20100322MG551  0006402102T000000029339500000000000000000000000000000000000000000000002933950000N
502494923200384081334447      20100322RJ551  0206191102T000000008772600000000877260000000016668000000000000000000000000001900N
50893052390001830370001605    20100322RS551  1274492102T000000014130000000001413000000000016956000000000000000000000000001200N
500291446000740685628607      20100322RJ551  1298851102T000000059755500000005975550000000071707000000000000000000000000001200N
502494923200384081334447      20100323RJ011  0207291102T000000034409300000003440930000000065378000000000000000000000000001900N
500274601500012902583658      20100323RJ551  0000995102P000000001909500000000000000000000000000000000000000000000000190950000N
500512528300011177386580      20100323RJ551  0001005102P000000003138000000000000000000000000000000000000000000000000313800000N
500290511000195781330174      20100323RJ551  0001015102P000000004323200000000000000000000000000000000000000000000000432320000N
5027002211000110ISENTO        20100323RJ551  0001025102P000000001725000000000000000000000000000000000000000000000000172500000N
503315531800010981393982      20100323RJ551  0001035102P000000001567500000000000000000000000000000000000000000000000156750000N
508700133501742084881570      20100323RJ551  0001045102P000000001602700000000000000000000000000000000000000000000000160270000N
5029259736000241ISENTO        20100323RJ551  0001055102P000000001320000000000000000000000000000000000000000000000000132000000N
500290511000195781330174      20100323RJ551  0001065102P000000001227600000000000000000000000000000000000000000000000122760000N
501125409500019678885890      20100323RJ551  0001075102P000000001960000000000000000000000000000000000000000000000000196000000N
500512528300011177386580      20100323RJ551  0001085102P000000005576800000000000000000000000000000000000000000000000557680000N
506794507103640078254807      20100323RJ551  0001095102P000000002295000000000000000000000000000000000000000000000000229500000N
507370264900012885209574      20100323RJ551  0001105102P000000001741100000000000000000000000000000000000000000000000174110000N
503333712201418780203314      20100323RJ551  0001115102P000000001089200000000000000000000000000000000000000000000000108920000N
500290511000195781330174      20100323RJ551  0001125102P000000014385300000000000000000000000000000000000000000000001438530000N
500290511000195781330174      20100323RJ551  0001135102P000000003171500000000000000000000000000000000000000000000000317150000N
5033469164001860ISENTO        20100323RJ551  0001145102P000000002581900000000000000000000000000000000000000000000000258190000N
500627083700013777730303      20100323RJ551  0001155102P000000001208400000000000000000000000000000000000000000000000120840000N
502811236500012782536493      20100323RJ551  0001165102P000000002869800000000000000000000000000000000000000000000000286980000N
507370264900012885209574      20100323RJ551  0001175102P000000003310500000000000000000000000000000000000000000000000331050000N
500290511000195781330174      20100323RJ551  0001185102P000000002315800000000000000000000000000000000000000000000000231580000N
500290511000195781330174      20100323RJ551  0001195102P000000002620100000000000000000000000000000000000000000000000262010000N
502767122100014881375321      20100323RJ551  0001205102P000000001413700000000000000000000000000000000000000000000000141370000N
500290511000195781330174      20100323RJ551  0001215102P000000001696000000000000000000000000000000000000000000000000169600000N
501027534700010978607904      20100323RJ551  0001225102P000000001190600000000000000000000000000000000000000000000000119060000N
500290511000195781330174      20100323RJ551  0001235102P000000006877100000000000000000000000000000000000000000000000687710000N
500290511000195781330174      20100323RJ551  0001245102P000000004282100000000000000000000000000000000000000000000000428210000N
500290511000195781330174      20100323RJ551  0001255102P000000008810700000000000000000000000000000000000000000000000881070000N
507370264900012885209574      20100323RJ551  0001265102P000000007804900000000000000000000000000000000000000000000000780490000N
502786575700214878045418      20100323RJ551  0001275102P000000003135600000000000000000000000000000000000000000000000313560000N
500290511000195781330174      20100323RJ551  0001285102P000000008707200000000000000000000000000000000000000000000000870720000N
503307300800013780446527      20100323RJ551  0001295102P000000001384500000000000000000000000000000000000000000000000138450000N
502860240700010800549428      20100323RJ551  0001305102P000000001627200000000000000000000000000000000000000000000000162720000N
503383768300019581528349      20100323RJ551  0001315102P000000002296900000000000000000000000000000000000000000000000229690000N
503325646200012381524785      20100323RJ551  0001325102P000000001115400000000000000000000000000000000000000000000000111540000N
500122354200019685786636      20100323RJ551  0001335102P000000001326000000000000000000000000000000000000000000000000132600000N
503361370400019981538832      20100323RJ551  0001345102P000000001757000000000000000000000000000000000000000000000000175700000N
500101367300014985615092      20100323RJ551  0001355102P000000001878800000000000000000000000000000000000000000000000187880000N
502818233500019782723803      20100323RJ551  0001365102P000000002347700000000000000000000000000000000000000000000000234770000N
500290511000195781330174      20100323RJ551  0001375102P000000008355700000000000000000000000000000000000000000000000835570000N
503005172600011481683492      20100323RJ551  0001385102P000000003398200000000000000000000000000000000000000000000000339820000N
500893908500018078320664      20100323RJ551  0001395102P000000002512400000000000000000000000000000000000000000000000251240000N
500290511000195781330174      20100323RJ551  0001405102P000000002154500000000000000000000000000000000000000000000000215450000N
5033630484000101ISENTO        20100323RJ551  0001415102P000000005424600000000000000000000000000000000000000000000000542460000N
500757958100010777985620      20100323RJ551  0001425102P000000009506700000000000000000000000000000000000000000000000950670000N
503141011100010800083674      20100323RJ551  0001435102P000000003713800000000000000000000000000000000000000000000000371380000N
500290511000195781330174      20100323RJ551  0001445102P000000001107000000000000000000000000000000000000000000000000110700000N
508700133501742084881570      20100323RJ551  0001455102P000000002256000000000000000000000000000000000000000000000000225600000N
501987535000586578009446      20100323RJ551  0001465102P000000006973600000000000000000000000000000000000000000000000697360000N
503306557400010581645523      20100323RJ551  0001475102P000000002418800000000000000000000000000000000000000000000000241880000N
500290511000195781330174      20100323RJ551  0001485102P000000014817000000000000000000000000000000000000000000000001481700000N
508700133501742084881570      20100323RJ551  0001495102P000000005147400000000000000000000000000000000000000000000000514740000N
500772277800015378035340      20100323RJ551  0001505102P000000002759000000000000000000000000000000000000000000000000275900000N
501987535000659478454628      20100323RJ551  0001515102P000000007852000000000000000000000000000000000000000000000000785200000N
500368839600010877019340      20100323RJ551  0001525102P000000001522500000000000000000000000000000000000000000000000152250000N
503049982600045077403701      20100323RJ551  0001535102P000000011953600000000000000000000000000000000000000000000001195360000N
5003851171000112ISENTO        20100323RJ551  0001545102P000000001085300000000000000000000000000000000000000000000000108530000N
500936520100016778471859      20100323RJ551  0001555102P000000001583700000000000000000000000000000000000000000000000158370000N
500356129300017477234594      20100323RJ551  0001565102P000000002887100000000000000000000000000000000000000000000000288710000N
504244671600016781547815      20100323RJ551  0001575102P000000001578100000000000000000000000000000000000000000000000157810000N
500079944300019485642154      20100323RJ551  0001585102P000000000706600000000000000000000000000000000000000000000000070660000N
500290511000195781330174      20100323RJ551  0001595102P000000002182700000000000000000000000000000000000000000000000218270000N
501111297400018378845864      20100323RJ551  0001605102P000000002927300000000000000000000000000000000000000000000000292730000N
500290511000195781330174      20100323RJ551  0001615102P000000005916400000000000000000000000000000000000000000000000591640000N
50224305320001006255154960033 20100323MG551  0029232102T000000010002200000001000220000000012002000000000000000000000000001200N
509532327500076885957341      20100323RJ551  0061661102T000000022000000000002200000000000041800000000000000000000000000001900N
502494923200384081334447      20100323RJ551  0206721102T000000010200100000001020010000000019380000000000000000000000000001900N
5061116331000186100422192111  20100323SP551  4733502102T000000053429000000005342900000000064115000000000000000000000000001200N
502073009900639782674020      20100323RJ553  1394811102T000000029037700000002903770000000055171000000000000000000000000001900N
500290511000195781330174      20100324RJ551  0001625102P000000004260000000000000000000000000000000000000000000000000426000000N
500290511000195781330174      20100324RJ551  0001635102P000000003623400000000000000000000000000000000000000000000000362340000N
504213127600015981451443      20100324RJ551  0001645102P000000001092000000000000000000000000000000000000000000000000109200000N
503378627800019581477922      20100324RJ551  0001655102P000000001138800000000000000000000000000000000000000000000000113880000N
500529815400012577459626      20100324RJ551  0001665102P000000004204800000000000000000000000000000000000000000000000420480000N
503313624300010081521352      20100324RJ551  0001675102P000000001094400000000000000000000000000000000000000000000000109440000N
503338269800010681453918      20100324RJ551  0001685102P000000000776000000000000000000000000000000000000000000000000077600000N
500290511000195781330174      20100324RJ551  0001695102P000000001458000000000000000000000000000000000000000000000000145800000N
500290511000195781330174      20100324RJ551  0001705102P000000003692900000000000000000000000000000000000000000000000369290000N
500290511000195781330174      20100324RJ551  0001715102P000000001461200000000000000000000000000000000000000000000000146120000N
500290511000195781330174      20100324RJ551  0001725102P000000003445000000000000000000000000000000000000000000000000344500000N
500807102700018778133260      20100324RJ551  0001735102P000000003243300000000000000000000000000000000000000000000000324330000N
503051438400012181248109      20100324RJ551  0001745102P000000003377200000000000000000000000000000000000000000000000337720000N
503355062500018681466300      20100324RJ551  0001755102P000000001635200000000000000000000000000000000000000000000000163520000N
500274601500012902583658      20100324RJ551  0001765102P000000002749200000000000000000000000000000000000000000000000274920000N
500763733900014278023953      20100324RJ551  0001775102P000000001326500000000000000000000000000000000000000000000000132650000N
500290511000195781330174      20100324RJ551  0001785102P000000002870400000000000000000000000000000000000000000000000287040000N
500290511000195781330174      20100324RJ551  0001795102P000000004647600000000000000000000000000000000000000000000000464760000N
500290511000195781330174      20100324RJ551  0001805102P000000002673100000000000000000000000000000000000000000000000267310000N
500015995700018585432575      20100324RJ551  0001815102P000000004432300000000000000000000000000000000000000000000000443230000N
500290511000195781330174      20100324RJ551  0001825102P000000003381300000000000000000000000000000000000000000000000338130000N
503227613100019283731486      20100324RJ551  0001835102P000000003969500000000000000000000000000000000000000000000000396950000N
5033469164001860ISENTO        20100324RJ551  0001845102P000000010928900000000000000000000000000000000000000000000001092890000N
503620887400018684079219      20100324RJ551  0001855102P000000000931500000000000000000000000000000000000000000000000093150000N
500290511000195781330174      20100324RJ551  0001865102P000000009066700000000000000000000000000000000000000000000000906670000N
500123366000018585828339      20100324RJ551  0001875102P000000001660300000000000000000000000000000000000000000000000166030000N
506859245000015484515124      20100324RJ551  0001885102P000000001413300000000000000000000000000000000000000000000000141330000N
501987535000659478454628      20100324RJ551  0001895102P000000002235000000000000000000000000000000000000000000000000223500000N
500757958100010777985620      20100324RJ551  0001905102P000000001190700000000000000000000000000000000000000000000000119070000N
503396477600018000570621      20100324RJ551  0001915102P000000006256800000000000000000000000000000000000000000000000625680000N
500204615700018386357135      20100324RJ551  0001925102P000000003702900000000000000000000000000000000000000000000000370290000N
503579688700015001109561      20100324RJ551  0001935102P000000004111100000000000000000000000000000000000000000000000411110000N
500101367300014985615092      20100324RJ551  0001945102P000000001568500000000000000000000000000000000000000000000000156850000N
500290511000195781330174      20100324RJ551  0001955102P000000002225300000000000000000000000000000000000000000000000222530000N
500778766700012578423668      20100324RJ551  0001965102P000000001013000000000000000000000000000000000000000000000000101300000N
502786575700214878045418      20100324RJ551  0001975102P000000016671100000000000000000000000000000000000000000000001667110000N
503307736300018483565950      20100324RJ551  0001985102P000000002098200000000000000000000000000000000000000000000000209820000N
500893908500018078320664      20100324RJ551  0001995102P000000001559200000000000000000000000000000000000000000000000155920000N
500368839600010877019340      20100324RJ551  0002005102P000000000898400000000000000000000000000000000000000000000000089840000N
500290511000195781330174      20100324RJ551  0002015102P000000001288600000000000000000000000000000000000000000000000128860000N
5073696718000219ISENTO        20100324RJ551  0002025102P000000003406000000000000000000000000000000000000000000000000340600000N
508700133501742084881570      20100324RJ551  0002035102P000000001286500000000000000000000000000000000000000000000000128650000N
500129030100016085918494      20100324RJ551  0002045102P000000000961800000000000000000000000000000000000000000000000096180000N
500865507700010178255340      20100324RJ551  0002055102P000000001055400000000000000000000000000000000000000000000000105540000N
5061087367000260210002693110  20100324SP551  0958422102T000000016154200000001615420000000019385000000000000000000000000001200N
502820014500015582724087      20100325RJ551  0002065102P000000005437300000000000000000000000000000000000000000000000543730000N
500512528300011177386580      20100325RJ551  0002075102P000000008819000000000000000000000000000000000000000000000000881900000N
503226360000013983685700      20100325RJ551  0002085102P000000002263900000000000000000000000000000000000000000000000226390000N
501094096000019578910470      20100325RJ551  0002095102P000000008941400000000000000000000000000000000000000000000000894140000N
500531313600017577449329      20100325RJ551  0002105102P000000002563700000000000000000000000000000000000000000000000256370000N
503307736300026581392846      20100325RJ551  0002115102P000000001209000000000000000000000000000000000000000000000000120900000N
500080151200015785688510      20100325RJ551  0002125102P000000002782500000000000000000000000000000000000000000000000278250000N
501121814700017978983990      20100325RJ551  0002135102P000000003069200000000000000000000000000000000000000000000000306920000N
500290511000195781330174      20100325RJ551  0002145102P000000003966500000000000000000000000000000000000000000000000396650000N
500290511000195781330174      20100325RJ551  0002155102P000000005373500000000000000000000000000000000000000000000000537350000N
500044792300019685459368      20100325RJ551  0002165102P000000001272000000000000000000000000000000000000000000000000127200000N
500290511000195781330174      20100325RJ551  0002175102P000000001344700000000000000000000000000000000000000000000000134470000N
506794507100102985804774      20100325RJ551  0002185102P000000001640000000000000000000000000000000000000000000000000164000000N
503324419500017481527326      20100325RJ551  0002195102P000000001092000000000000000000000000000000000000000000000000109200000N
500080151200015785688510      20100325RJ551  0002205102P000000003494900000000000000000000000000000000000000000000000349490000N
502909002400016082649816      20100325RJ551  0002215102P000000004495800000000000000000000000000000000000000000000000449580000N
500101367300014985615092      20100325RJ551  0002225102P000000000000000000000000000000000000000000000000000000000000000000000S
503141011100010800083674      20100325RJ551  0002235102P000000001226900000000000000000000000000000000000000000000000122690000N
500290511000195781330174      20100325RJ551  0002245102P000000000000000000000000000000000000000000000000000000000000000000000S
506856765000015784552070      20100325RJ551  0002255102P000000001291700000000000000000000000000000000000000000000000129170000N
5033636499001159ISENTO        20100325RJ551  0002265102P000000001681500000000000000000000000000000000000000000000000168150000N
5033630484000101ISENTO        20100325RJ551  0002275102P000000005735200000000000000000000000000000000000000000000000573520000N
500290511000195781330174      20100325RJ551  0002285102P000000002374500000000000000000000000000000000000000000000000237450000N
500290511000195781330174      20100325RJ551  0002295102P000000001216300000000000000000000000000000000000000000000000121630000N
503228796300010402232901      20100325RJ551  0002305102P000000006966700000000000000000000000000000000000000000000000696670000N
500512528300011177386580      20100325RJ551  0002315102P000000007438000000000000000000000000000000000000000000000000743800000N
500934745500015278452609      20100325RJ551  0002325102P000000001282600000000000000000000000000000000000000000000000128260000N
500931259000016278479434      20100325RJ551  0002335102P000000001215000000000000000000000000000000000000000000000000121500000N
501027534700010978607904      20100325RJ551  0002345102P000000001142100000000000000000000000000000000000000000000000114210000N
500015995700018585432575      20100325RJ551  0002355102P000000002090400000000000000000000000000000000000000000000000209040000N
500822639800019078305088      20100325RJ551  0002365102P000000002007800000000000000000000000000000000000000000000000200780000N
500744455400012777932542      20100325RJ551  0002375102P000000002831700000000000000000000000000000000000000000000000283170000N
500945277700016178479442      20100325RJ551  0002385102P000000001714900000000000000000000000000000000000000000000000171490000N
500589824300010277611860      20100325RJ551  0002395102P000000001524700000000000000000000000000000000000000000000000152470000N
500882647500014378291532      20100325RJ551  0002405102P000000002414900000000000000000000000000000000000000000000000241490000N
500862839600012878246553      20100325RJ551  0002415102P000000001842000000000000000000000000000000000000000000000000184200000N
500382175000011276161844      20100325RJ551  0002425102P000000001802600000000000000000000000000000000000000000000000180260000N
500019151700010577065300      20100325RJ551  0002435102P000000002514800000000000000000000000000000000000000000000000251480000N
504229750700010700031070      20100325RJ551  0002445102P000000001846900000000000000000000000000000000000000000000000184690000N
500775853900015377287086      20100325RJ551  0002455102P000000003714000000000000000000000000000000000000000000000000371400000N
506794507100102985804774      20100325RJ551  0002465102P000000001155200000000000000000000000000000000000000000000000115520000N
500290511000195781330174      20100325RJ551  0002475102P000000001845000000000000000000000000000000000000000000000000184500000N
501061521800010478686421      20100325RJ551  0002485102P000000001186300000000000000000000000000000000000000000000000118630000N
500129030100016085918494      20100325RJ551  0002495102P000000000960200000000000000000000000000000000000000000000000096020000N
503435365600010081984174      20100325RJ551  0002505102P000000001468800000000000000000000000000000000000000000000000146880000N
500627083700013777730303      20100325RJ551  0002515102P000000000986100000000000000000000000000000000000000000000000098610000N
500290511000195781330174      20100325RJ551  0002525102P000000003335100000000000000000000000000000000000000000000000333510000N
500818427200010978238208      20100325RJ551  0002535102P000000002801600000000000000000000000000000000000000000000000280160000N
500451558800017777192840      20100325RJ551  0002545102P000000005859100000000000000000000000000000000000000000000000585910000N
500478477000012377287086      20100325RJ551  0002555102P000000003430300000000000000000000000000000000000000000000000343030000N
500041098000010985392271      20100325RJ551  0002565102P000000001561900000000000000000000000000000000000000000000000156190000N
502786575700214878045418      20100325RJ551  0002575102P000000004503000000000000000000000000000000000000000000000000450300000N
503374681900015184098752      20100325RJ551  0002585102P000000002040000000000000000000000000000000000000000000000000204000000N
503049982600045077403701      20100325RJ551  0002595102P000000015807800000000000000000000000000000000000000000000001580780000N
500006322600013184853208      20100325RJ551  0002605102P000000002558100000000000000000000000000000000000000000000000255810000N
503320341500011181528993      20100325RJ551  0002615102P000000001003500000000000000000000000000000000000000000000000100350000N
500454963200016077203842      20100325RJ551  0002625102P000000004124600000000000000000000000000000000000000000000000412460000N
500704258200011877821910      20100325RJ551  0002635102P000000001899300000000000000000000000000000000000000000000000189930000N
503341496200014681658358      20100325RJ551  0002645102P000000000972000000000000000000000000000000000000000000000000097200000N
500368839600010877019340      20100325RJ551  0002655102P000000001197500000000000000000000000000000000000000000000000119750000N
506794507100102985804774      20100325RJ551  0002665102P000000003689700000000000000000000000000000000000000000000000368970000N
500290511000195781330174      20100325RJ551  0002675102P000000003649600000000000000000000000000000000000000000000000364960000N
5033054602000180ISENTO        20100325RJ551  0002685102P000000000837000000000000000000000000000000000000000000000000083700000N
5033054602000180ISENTO        20100325RJ551  0002695102P000000000630000000000000000000000000000000000000000000000000063000000N
50049019600001836151635030031 20100325MG551  0030742102T000000039208000000003920800000000047050000000000000000000000000001200N
500101367300014985615092      20100326RJ551  0002705102P000000001239600000000000000000000000000000000000000000000000123960000N
5033630484000101ISENTO        20100326RJ551  0002715102P000000007379500000000000000000000000000000000000000000000000737950000N
500204615700018386357135      20100326RJ551  0002725102P000000001685900000000000000000000000000000000000000000000000168590000N
500290511000195781330174      20100326RJ551  0002735102P000000004084900000000000000000000000000000000000000000000000408490000N
500290511000195781330174      20100326RJ551  0002745102P000000001950400000000000000000000000000000000000000000000000195040000N
500580170300013277601171      20100326RJ551  0002755102P000000001766500000000000000000000000000000000000000000000000176650000N
500290511000195781330174      20100326RJ551  0002765102P000000001906000000000000000000000000000000000000000000000000190600000N
502860240700010800549428      20100326RJ551  0002775102P000000000970100000000000000000000000000000000000000000000000097010000N
500290511000195781330174      20100326RJ551  0002785102P000000002588200000000000000000000000000000000000000000000000258820000N
503300994500233982174265      20100326RJ551  0002795102P000000002672400000000000000000000000000000000000000000000000267240000N
500290511000195781330174      20100326RJ551  0002805102P000000009031500000000000000000000000000000000000000000000000903150000N
500290511000195781330174      20100326RJ551  0002815102P000000007184200000000000000000000000000000000000000000000000718420000N
500290511000195781330174      20100326RJ551  0002825102P000000003789100000000000000000000000000000000000000000000000378910000N
503141011100010800083674      20100326RJ551  0002835102P000000001540800000000000000000000000000000000000000000000000154080000N
504252361300015300909050      20100326RJ551  0002845102P000000001948500000000000000000000000000000000000000000000000194850000N
504248940100010581454930      20100326RJ551  0002855102P000000005290000000000000000000000000000000000000000000000000529000000N
500290511000195781330174      20100327RJ551  0002865102P000000005798600000000000000000000000000000000000000000000000579860000N
500290511000195781330174      20100327RJ551  0002875102P000000001572000000000000000000000000000000000000000000000000157200000N
5033457573000106ISENTO        20100327RJ551  0002885102P000000001522500000000000000000000000000000000000000000000000152250000N
503620887400018684079219      20100327RJ551  0002895102P000000000669000000000000000000000000000000000000000000000000066900000N
506794507100102985804774      20100327RJ551  0002905102P000000003090600000000000000000000000000000000000000000000000309060000N
503326056300017881471037      20100327RJ551  0002915102P000000002230800000000000000000000000000000000000000000000000223080000N
504214537500019081525811      20100327RJ551  0002925102P000000001172000000000000000000000000000000000000000000000000117200000N
500290511000195781330174      20100327RJ551  0002935102P000000004496100000000000000000000000000000000000000000000000449610000N
5033910167000149ISENTO        20100327RJ551  0002945102P000000001131000000000000000000000000000000000000000000000000113100000N
500290511000195781330174      20100327RJ551  0002955102P000000001975200000000000000000000000000000000000000000000000197520000N
500778766700012578423668      20100327RJ551  0002965102P000000000990400000000000000000000000000000000000000000000000099040000N
500627083700013777730303      20100327RJ551  0002975102P000000002867200000000000000000000000000000000000000000000000286720000N
508700133501742084881570      20100327RJ551  0002985102P000000002213800000000000000000000000000000000000000000000000221380000N
507370264900012885209574      20100327RJ551  0002995102P000000015225500000000000000000000000000000000000000000000001522550000N
503163585700010100244244      20100327RJ551  0003005102P000000002402000000000000000000000000000000000000000000000000240200000N
503333712201418780203314      20100327RJ551  0003015102P000000003539700000000000000000000000000000000000000000000000353970000N
500290511000195781330174      20100327RJ551  0003025102P000000004465700000000000000000000000000000000000000000000000446570000N
500936520100016778471859      20100327RJ551  0003035102P000000001502700000000000000000000000000000000000000000000000150270000N
502786575700214878045418      20100327RJ551  0003045102P000000004306700000000000000000000000000000000000000000000000430670000N
500772277800015378035340      20100327RJ551  0003055102P000000001838800000000000000000000000000000000000000000000000183880000N
503333712200012781216509      20100327RJ551  0003065102P000000005471700000000000000000000000000000000000000000000000547170000N
501726221300078081335478      20100327RJ551  0003075102P000000000727500000000000000000000000000000000000000000000000072750000N
501987535000586578009446      20100327RJ551  0003085102P000000011861000000000000000000000000000000000000000000000001186100000N
500290511000195781330174      20100327RJ551  0003095102P000000003283600000000000000000000000000000000000000000000000328360000N
500290511000195781330174      20100327RJ551  0003105102P000000017419800000000000000000000000000000000000000000000001741980000N
507370264900012885209574      20100327RJ551  0003115102P000000002438700000000000000000000000000000000000000000000000243870000N
500804156600017378129115      20100327RJ551  0003125102P000000001798400000000000000000000000000000000000000000000000179840000N
506794507100102985804774      20100327RJ551  0003135102P000000010395700000000000000000000000000000000000000000000001039570000N
500290511000195781330174      20100327RJ551  0003145102P000000004654200000000000000000000000000000000000000000000000465420000N
500290511000195781330174      20100327RJ551  0003155102P000000002935500000000000000000000000000000000000000000000000293550000N
507370264900012885209574      20100327RJ551  0003165102P000000005717200000000000000000000000000000000000000000000000571720000N
500079944300019485642154      20100327RJ551  0003175102P000000001604900000000000000000000000000000000000000000000000160490000N
500627083700013777730303      20100327RJ551  0003185102P000000001708000000000000000000000000000000000000000000000000170800000N
501987535000659478454628      20100327RJ551  0003195102P000000010770400000000000000000000000000000000000000000000001077040000N
500368839600010877019340      20100327RJ551  0003205102P000000002573200000000000000000000000000000000000000000000000257320000N
503049982600045077403701      20100327RJ551  0003215102P000000021421000000000000000000000000000000000000000000000002142100000N
507370264900012885209574      20100327RJ551  0003225102P000000006542900000000000000000000000000000000000000000000000654290000N
507370264900012885209574      20100327RJ551  0003235102P000000005714800000000000000000000000000000000000000000000000571480000N
507370264900012885209574      20100327RJ551  0003245102P000000017109600000000000000000000000000000000000000000000001710960000N
506794507104388078325836      20100327RJ551  0003255102P000000001036200000000000000000000000000000000000000000000000103620000N
500274601500012902583658      20100327RJ551  0003265102P000000002268000000000000000000000000000000000000000000000000226800000N
500096218000019285604473      20100327RJ551  0003275102P000000001341300000000000000000000000000000000000000000000000134130000N
500148478000015585904191      20100327RJ551  0003285102P000000002164500000000000000000000000000000000000000000000000216450000N
50068668500002349031198612    20100327PR551  0032722102T000000029801800000002980180000000035762000000000000000000000000001200N
50049019600001836151635030031 20100328MG551  0031212102T000000037693000000003769300000000045232000000000000000000000000001200N
50000237634696720012909640051 20100329MG011  0000182102T000000002000000000000000000000000000000000000000000000000000200000000N
501031508000012878591668      20100329RJ011  0211451102T000000011412000000001141200000000021683000000000000000000000000001900N
503300994500233982174265      20100329RJ551  0003295102P000000002115700000000000000000000000000000000000000000000000211570000N
500512528300011177386580      20100329RJ551  0003305102P000000014440100000000000000000000000000000000000000000000001444010000N
500290511000195781330174      20100329RJ551  0003315102P000000004470000000000000000000000000000000000000000000000000447000000N
500019151700010577065300      20100329RJ551  0003325102P000000005251200000000000000000000000000000000000000000000000525120000N
503301484600013081455562      20100329RJ551  0003335102P000000002155200000000000000000000000000000000000000000000000215520000N
506874193300017384707201      20100329RJ551  0003345102P000000001045000000000000000000000000000000000000000000000000104500000N
500135667000010885809067      20100329RJ551  0003355102P000000001077600000000000000000000000000000000000000000000000107760000N
500290511000195781330174      20100329RJ551  0003365102P000000002994900000000000000000000000000000000000000000000000299490000N
506858402800015784685623      20100329RJ551  0003375102P000000001337600000000000000000000000000000000000000000000000133760000N
5033469164001860ISENTO        20100329RJ551  0003385102P000000001654000000000000000000000000000000000000000000000000165400000N
500290511000195781330174      20100329RJ551  0003395102P000000002225800000000000000000000000000000000000000000000000222580000N
500531313600017577449329      20100329RJ551  0003405102P000000002730000000000000000000000000000000000000000000000000273000000N
500697556400012677787143      20100329RJ551  0003415102P000000001171400000000000000000000000000000000000000000000000117140000N
500290511000195781330174      20100329RJ551  0003425102P000000001601300000000000000000000000000000000000000000000000160130000N
500697556400012677787143      20100329RJ551  0003435102P000000000875600000000000000000000000000000000000000000000000087560000N
500778766700012578423668      20100329RJ551  0003445102P000000000952200000000000000000000000000000000000000000000000095220000N
500290511000195781330174      20100329RJ551  0003455102P000000001321600000000000000000000000000000000000000000000000132160000N
500290511000195781330174      20100329RJ551  0003465102P000000003284800000000000000000000000000000000000000000000000328480000N
500290511000195781330174      20100329RJ551  0003475102P000000005338200000000000000000000000000000000000000000000000533820000N
500290511000195781330174      20100329RJ551  0003485102P000000006969200000000000000000000000000000000000000000000000696920000N
500568923900013477572201      20100329RJ551  0003495102P000000000650900000000000000000000000000000000000000000000000065090000N
500290511000195781330174      20100329RJ551  0003505102P000000003243900000000000000000000000000000000000000000000000324390000N
500290511000195781330174      20100329RJ551  0003515102P000000001613200000000000000000000000000000000000000000000000161320000N
503383768300019581528349      20100329RJ551  0003525102P000000002029300000000000000000000000000000000000000000000000202930000N
500171334500015585893491      20100329RJ551  0003535102P000000001582500000000000000000000000000000000000000000000000158250000N
503312259900019581481466      20100329RJ551  0003545102P000000000000000000000000000000000000000000000000000000000000000000000S
503332506900014481470995      20100329RJ551  0003555102P000000001617200000000000000000000000000000000000000000000000161720000N
500695426400016077796100      20100329RJ551  0003565102P000000001741200000000000000000000000000000000000000000000000174120000N
500290511000195781330174      20100329RJ551  0003575102P000000003929700000000000000000000000000000000000000000000000392970000N
500290511000195781330174      20100329RJ551  0003585102P000000001836800000000000000000000000000000000000000000000000183680000N
500290511000195781330174      20100329RJ551  0003595102P000000004149100000000000000000000000000000000000000000000000414910000N
500290511000195781330174      20100329RJ551  0003605102P000000002238900000000000000000000000000000000000000000000000223890000N
504213690300014481467617      20100329RJ551  0003615102P000000002819300000000000000000000000000000000000000000000000281930000N
500716217200010077855947      20100329RJ551  0003625102P000000001954200000000000000000000000000000000000000000000000195420000N
500862839600012878246553      20100329RJ551  0003635102P000000002831600000000000000000000000000000000000000000000000283160000N
5073696718000219ISENTO        20100329RJ551  0003645102P000000004346000000000000000000000000000000000000000000000000434600000N
500778766700012578423668      20100329RJ551  0003655102P000000001674000000000000000000000000000000000000000000000000167400000N
500697556400012677787143      20100329RJ551  0003665102P000000001182600000000000000000000000000000000000000000000000118260000N
500697556400012677787143      20100329RJ551  0003675102P000000001182600000000000000000000000000000000000000000000000118260000N
501049574300013378689480      20100329RJ551  0003685102P000000001512000000000000000000000000000000000000000000000000151200000N
500697556400012677787143      20100329RJ551  0003695102P000000001097300000000000000000000000000000000000000000000000109730000N
5027002211000110ISENTO        20100329RJ551  0003705102P000000000703100000000000000000000000000000000000000000000000070310000N
500697556400012677787143      20100329RJ551  0003715102P000000000703100000000000000000000000000000000000000000000000070310000N
501027534700010978607904      20100329RJ551  0003725102P000000001474200000000000000000000000000000000000000000000000147420000N
501111297400018378845864      20100329RJ551  0003735102P000000004179800000000000000000000000000000000000000000000000417980000N
500309710000017675972520      20100329RJ551  0003745102P000000002204600000000000000000000000000000000000000000000000220460000N
500775853900015377287086      20100329RJ551  0003755102P000000000983000000000000000000000000000000000000000000000000098300000N
500382175000011276161844      20100329RJ551  0003765102P000000001318000000000000000000000000000000000000000000000000131800000N
500589824300010277611860      20100329RJ551  0003775102P000000001391500000000000000000000000000000000000000000000000139150000N
500882647500014378291532      20100329RJ551  0003785102P000000001701100000000000000000000000000000000000000000000000170110000N
500744455400012777932542      20100329RJ551  0003795102P000000002031100000000000000000000000000000000000000000000000203110000N
500290511000195781330174      20100329RJ551  0003805102P000000003152300000000000000000000000000000000000000000000000315230000N
500945277700016178479442      20100329RJ551  0003815102P000000001582400000000000000000000000000000000000000000000000158240000N
500478477000012377287086      20100329RJ551  0003825102P000000002469500000000000000000000000000000000000000000000000246950000N
503307736300026581392846      20100329RJ551  0003835102P000000001365000000000000000000000000000000000000000000000000136500000N
506794507100102985804774      20100329RJ551  0003845102P000000001147500000000000000000000000000000000000000000000000114750000N
506794507100102985804774      20100329RJ551  0003855102P000000001478200000000000000000000000000000000000000000000000147820000N
500041098000010985392271      20100329RJ551  0003865102P000000003916800000000000000000000000000000000000000000000000391680000N
500101367300014985615092      20100329RJ551  0003875102P000000002353300000000000000000000000000000000000000000000000235330000N
502786575700214878045418      20100329RJ551  0003885102P000000002302700000000000000000000000000000000000000000000000230270000N
502811236500012782536493      20100329RJ551  0003895102P000000001515400000000000000000000000000000000000000000000000151540000N
500290511000195781330174      20100329RJ551  0003905102P000000002762900000000000000000000000000000000000000000000000276290000N
503346916400011101063910      20100329RJ551  0003915102P000000005366100000000000000000000000000000000000000000000000536610000N
500006058600026085891782      20100329RJ551  0003925102P000000001679500000000000000000000000000000000000000000000000167950000N
500015995700018585432575      20100329RJ551  0003935102P000000004097700000000000000000000000000000000000000000000000409770000N
500754307100018077965637      20100329RJ551  0003945102P000000001664700000000000000000000000000000000000000000000000166470000N
500290511000195781330174      20100329RJ551  0003955102P000000002457500000000000000000000000000000000000000000000000245750000N
500290511000195781330174      20100329RJ551  0003965102P000000005258700000000000000000000000000000000000000000000000525870000N
500627083700013777730303      20100329RJ551  0003975102P000000001900200000000000000000000000000000000000000000000000190020000N
500272783700016275858566      20100329RJ551  0003985102P000000000000000000000000000000000000000000000000000000000000000000000S
506794507100102985804774      20100329RJ551  0003995102P000000004298200000000000000000000000000000000000000000000000429820000N
500618635500010178208384      20100329RJ551  0004005102P000000002502700000000000000000000000000000000000000000000000250270000N
500368839600010877019340      20100329RJ551  0004015102P000000002936200000000000000000000000000000000000000000000000293620000N
500204615700018386357135      20100329RJ551  0004025102P000000002614400000000000000000000000000000000000000000000000261440000N
500290511000195781330174      20100329RJ551  0004035102P000000004346700000000000000000000000000000000000000000000000434670000N
5033439092000160ISENTO        20100329RJ551  0004045102P000000010086700000000000000000000000000000000000000000000001008670000N
506794507100102985804774      20100329RJ551  0004055102P000000001968600000000000000000000000000000000000000000000000196860000N
502997392200016781755183      20100329RJ551  0004065102P000000001710200000000000000000000000000000000000000000000000171020000N
500129030100016085918494      20100329RJ551  0004075102P000000001121400000000000000000000000000000000000000000000000112140000N
503435365600010081984174      20100329RJ551  0004085102P000000003144700000000000000000000000000000000000000000000000314470000N
507371388500014084879436      20100329RJ551  0004095102P000000002371700000000000000000000000000000000000000000000000237170000N
500818427200010978238208      20100329RJ551  0004105102P000000004693700000000000000000000000000000000000000000000000469370000N
503300994500233982174265      20100329RJ551  0004115102P000000003234900000000000000000000000000000000000000000000000323490000N
500290511000195781330174      20100329RJ551  0004125102P000000004085300000000000000000000000000000000000000000000000408530000N
507370264900012885209574      20100329RJ551  0004135102P000000001187500000000000000000000000000000000000000000000000118750000N
500274601500012902583658      20100329RJ551  0004145102P000000001949400000000000000000000000000000000000000000000000194940000N
500865507700010178255340      20100329RJ551  0004155102P000000001385800000000000000000000000000000000000000000000000138580000N
500062270600019577682449      20100329RJ551  0004165102P000000001696300000000000000000000000000000000000000000000000169630000N
503417481300011081459401      20100329RJ551  0004175102P000000002596000000000000000000000000000000000000000000000000259600000N
503620887400018684079219      20100329RJ551  0004185102P000000001016500000000000000000000000000000000000000000000000101650000N
50206859960001233302922520052 20100329MG551  0006622102T000000029573000000000000000000000000000000000000000000000002957300000N
50232942750001802854358950043 20100329MG551  0028862102T000000014692800000001469280000000017631000000000000000000000000001200N
5022294441000186ISENTO        20100329RJ551  0037741102T000000008309900000000830990000000009972000000000000000000000000001200N
508331044100097481943583      20100329RJ551  3329061102T000000004935000000000191920000000003455000000000000000000000301581800N
500854594000017878239816      20100330RJ011  0027261102T000000016400000000001640000000000031160000000000000000000000000001900N
500290511000195781330174      20100330RJ551  0004195102P000000013268800000000000000000000000000000000000000000000001326880000N
500778766700012578423668      20100330RJ551  0004205102P000000001674000000000000000000000000000000000000000000000000167400000N
500416488000019277108904      20100330RJ551  0004215102P000000001466400000000000000000000000000000000000000000000000146640000N
503320207800014881454868      20100330RJ551  0004225102P000000001380600000000000000000000000000000000000000000000000138060000N
503324419500017481527326      20100330RJ551  0004235102P000000001131000000000000000000000000000000000000000000000000113100000N
500080151200015785688510      20100330RJ551  0004245102P000000002273700000000000000000000000000000000000000000000000227370000N
500015995700018585432575      20100330RJ551  0004255102P000000002168400000000000000000000000000000000000000000000000216840000N
506794507103640078254807      20100330RJ551  0004265102P000000002371500000000000000000000000000000000000000000000000237150000N
500290511000195781330174      20100330RJ551  0004275102P000000003201100000000000000000000000000000000000000000000000320110000N
500290511000195781330174      20100330RJ551  0004285102P000000001966100000000000000000000000000000000000000000000000196610000N
504214367700012981478600      20100330RJ551  0004295102P000000001465000000000000000000000000000000000000000000000000146500000N
503333712201418780203314      20100330RJ551  0004305102P000000000683700000000000000000000000000000000000000000000000068370000N
507370264900012885209574      20100330RJ551  0004315102P000000004850000000000000000000000000000000000000000000000000485000000N
507370264900012885209574      20100330RJ551  0004325102P000000005863200000000000000000000000000000000000000000000000586320000N
502818233500019782723803      20100330RJ551  0004335102P000000002454300000000000000000000000000000000000000000000000245430000N
503343645200017081741255      20100330RJ551  0004345102P000000001364400000000000000000000000000000000000000000000000136440000N
501987535000586578009446      20100330RJ551  0004355102P000000008935500000000000000000000000000000000000000000000000893550000N
500290511000195781330174      20100330RJ551  0004365102P000000004584900000000000000000000000000000000000000000000000458490000N
503312259900019581481466      20100330RJ551  0004375102P000000003592000000000000000000000000000000000000000000000000359200000N
500386832200014577042687      20100330RJ551  0004385102P000000001510100000000000000000000000000000000000000000000000151010000N
500778766700012578423668      20100330RJ551  0004395102P000000000834500000000000000000000000000000000000000000000000083450000N
500778766700012578423668      20100330RJ551  0004405102P000000000896800000000000000000000000000000000000000000000000089680000N
500778766700012578423668      20100330RJ551  0004415102P000000001105200000000000000000000000000000000000000000000000110520000N
500080151200015785688510      20100330RJ551  0004425102P000000004911200000000000000000000000000000000000000000000000491120000N
506794507100102985804774      20100330RJ551  0004435102P000000002930000000000000000000000000000000000000000000000000293000000N
500627083700013777730303      20100330RJ551  0004445102P000000001321200000000000000000000000000000000000000000000000132120000N
503358117400014481533032      20100330RJ551  0004455102P000000002238800000000000000000000000000000000000000000000000223880000N
500697556400012677787143      20100330RJ551  0004465102P000000001472400000000000000000000000000000000000000000000000147240000N
500778766700012578423668      20100330RJ551  0004475102P000000000956500000000000000000000000000000000000000000000000095650000N
500290511000195781330174      20100330RJ551  0004485102P000000001857700000000000000000000000000000000000000000000000185770000N
500290511000195781330174      20100330RJ551  0004495102P000000001971200000000000000000000000000000000000000000000000197120000N
500290511000195781330174      20100330RJ551  0004505102P000000006471500000000000000000000000000000000000000000000000647150000N
500290511000195781330174      20100330RJ551  0004515102P000000003337600000000000000000000000000000000000000000000000333760000N
500290511000195781330174      20100330RJ551  0004525102P000000002486600000000000000000000000000000000000000000000000248660000N
500290511000195781330174      20100330RJ551  0004535102P000000001302300000000000000000000000000000000000000000000000130230000N
503141011100010800083674      20100330RJ551  0004545102P000000001520600000000000000000000000000000000000000000000000152060000N
500290511000195781330174      20100330RJ551  0004555102P000000005544400000000000000000000000000000000000000000000000554440000N
507370264900012885209574      20100330RJ551  0004565102P000000008142500000000000000000000000000000000000000000000000814250000N
500290511000195781330174      20100330RJ551  0004575102P000000003205300000000000000000000000000000000000000000000000320530000N
500704258200011877821910      20100330RJ551  0004585102P000000001596000000000000000000000000000000000000000000000000159600000N
503005172600011481683492      20100330RJ551  0004595102P000000002437000000000000000000000000000000000000000000000000243700000N
506794507100102985804774      20100330RJ551  0004605102P000000001191000000000000000000000000000000000000000000000000119100000N
506794507100102985804774      20100330RJ551  0004615102P000000001191900000000000000000000000000000000000000000000000119190000N
500044792300019685459368      20100330RJ551  0004625102P000000002214400000000000000000000000000000000000000000000000221440000N
508700133501742084881570      20100330RJ551  0004635102P000000002460000000000000000000000000000000000000000000000000246000000N
502786575700214878045418      20100330RJ551  0004645102P000000004769100000000000000000000000000000000000000000000000476910000N
500778766700012578423668      20100330RJ551  0004655102P000000001985000000000000000000000000000000000000000000000000198500000N
500822639800019078305088      20100330RJ551  0004665102P000000001382300000000000000000000000000000000000000000000000138230000N
5033630484000101ISENTO        20100330RJ551  0004675102P000000000987900000000000000000000000000000000000000000000000098790000N
506794507100102985804774      20100330RJ551  0004685102P000000002961000000000000000000000000000000000000000000000000296100000N
507370264900012885209574      20100330RJ551  0004695102P000000001773600000000000000000000000000000000000000000000000177360000N
500290511000195781330174      20100330RJ551  0004705102P000000008046100000000000000000000000000000000000000000000000804610000N
503049982600045077403701      20100330RJ551  0004715102P000000016179700000000000000000000000000000000000000000000001617970000N
500290511000195781330174      20100330RJ551  0004725102P000000010679800000000000000000000000000000000000000000000001067980000N
500290511000195781330174      20100330RJ551  0004735102P000000010779000000000000000000000000000000000000000000000001077900000N
500290511000195781330174      20100330RJ551  0004745102P000000003690000000000000000000000000000000000000000000000000369000000N
5001239188000279ISENTO        20100330RJ551  0004755102P000000001432500000000000000000000000000000000000000000000000143250000N
500368839600010877019340      20100330RJ551  0004765102P000000001059300000000000000000000000000000000000000000000000105930000N
500101367300014985615092      20100330RJ551  0004775102P000000001871200000000000000000000000000000000000000000000000187120000N
503329071900016381591709      20100330RJ551  0004785102P000000001210600000000000000000000000000000000000000000000000121060000N
500290511000195781330174      20100330RJ551  0004795102P000000008447400000000000000000000000000000000000000000000000844740000N
500477045400010077296077      20100330RJ551  0004805102P000000000000000000000000000000000000000000000000000000000000000000000S
500194813500030878189185      20100330RJ551  0004815102P000000004638600000000000000000000000000000000000000000000000463860000N
504020496800015484826723      20100330RJ551  0004825102P000000001301800000000000000000000000000000000000000000000000130180000N
502767122100014881375321      20100330RJ551  0004835102P000000001289500000000000000000000000000000000000000000000000128950000N
500291446000740685628607      20100330RJ551  0414011102T000000008649000000000864900000000016433000000000000000000000000001900N
508331044100097481943583      20100330RJ551  3334811102T000000008964000000000348610000000006275000000000000000000000547791800N
500183872301000981606285      20100330RJ551  5248191102T000000012150000000001215000000000023085000000000000000000000000001900N
502073009900639782674020      20100330RJ553  1516601102T000000019249600000001924960000000036574000000000000000000000000001900N
500512528300011177386580      20100331RJ551  0004845102P000000014282700000000000000000000000000000000000000000000001428270000N
503163585700010100244244      20100331RJ551  0004855102P000000003897000000000000000000000000000000000000000000000000389700000N
500290511000195781330174      20100331RJ551  0004865102P000000004309500000000000000000000000000000000000000000000000430950000N
500272783700016275858566      20100331RJ551  0004875102P000000002088400000000000000000000000000000000000000000000000208840000N
500290511000195781330174      20100331RJ551  0004885102P000000001368900000000000000000000000000000000000000000000000136890000N
503333712200012781216509      20100331RJ551  0004895102P000000001331500000000000000000000000000000000000000000000000133150000N
500290511000195781330174      20100331RJ551  0004905102P000000000981000000000000000000000000000000000000000000000000098100000N
502909002400016082649816      20100331RJ551  0004915102P000000001536000000000000000000000000000000000000000000000000153600000N
5033457573000106ISENTO        20100331RJ551  0004925102P000000001522500000000000000000000000000000000000000000000000152250000N
500274601500012902583658      20100331RJ551  0004935102P000000000888700000000000000000000000000000000000000000000000088870000N
500290511000195781330174      20100331RJ551  0004945102P000000002148500000000000000000000000000000000000000000000000214850000N
500290511000195781330174      20100331RJ551  0004955102P000000001122900000000000000000000000000000000000000000000000112290000N
500757958100010777985620      20100331RJ551  0004965102P000000006794100000000000000000000000000000000000000000000000679410000N
500145146100014302130785      20100331RJ551  0004975102P000000000898600000000000000000000000000000000000000000000000089860000N
503376576900015081454515      20100331RJ551  0004985102P000000001737500000000000000000000000000000000000000000000000173750000N
503398849400011381455015      20100331RJ551  0004995102P000000001457500000000000000000000000000000000000000000000000145750000N
500290511000195781330174      20100331RJ551  0005005102P000000001885600000000000000000000000000000000000000000000000188560000N
500290511000195781330174      20100331RJ551  0005015102P000000002799400000000000000000000000000000000000000000000000279940000N
500290511000195781330174      20100331RJ551  0005025102P000000001551400000000000000000000000000000000000000000000000155140000N
5033630484000101ISENTO        20100331RJ551  0005035102P000000006923200000000000000000000000000000000000000000000000692320000N
503338269800010681453918      20100331RJ551  0005045102P000000001162700000000000000000000000000000000000000000000000116270000N
500763733900014278023953      20100331RJ551  0005055102P000000001989600000000000000000000000000000000000000000000000198960000N
500079944300019485642154      20100331RJ551  0005065102P000000001360700000000000000000000000000000000000000000000000136070000N
500290511000195781330174      20100331RJ551  0005075102P000000003177400000000000000000000000000000000000000000000000317740000N
500290511000195781330174      20100331RJ551  0005085102P000000001973300000000000000000000000000000000000000000000000197330000N
500772277800015378035340      20100331RJ551  0005095102P000000000888600000000000000000000000000000000000000000000000088860000N
502860240700010800549428      20100331RJ551  0005105102P000000001087700000000000000000000000000000000000000000000000108770000N
503227613100019283731486      20100331RJ551  0005115102P000000002612300000000000000000000000000000000000000000000000261230000N
504031842000013584950165      20100331RJ551  0005125102P000000001341500000000000000000000000000000000000000000000000134150000N
503325646200012381524785      20100331RJ551  0005135102P000000002421000000000000000000000000000000000000000000000000242100000N
500893908500018078320664      20100331RJ551  0005145102P000000002654700000000000000000000000000000000000000000000000265470000N
503383768300019581528349      20100331RJ551  0005155102P000000008897300000000000000000000000000000000000000000000000889730000N
500019151700010577065300      20100331RJ551  0005165102P000000003997700000000000000000000000000000000000000000000000399770000N
5033469164001860ISENTO        20100331RJ551  0005175102P000000073790400000000000000000000000000000000000000000000007379040000N
500290511000195781330174      20100331RJ551  0005185102P000000011901200000000000000000000000000000000000000000000001190120000N
500862839600012878246553      20100331RJ551  0005195102P000000001340000000000000000000000000000000000000000000000000134000000N
500882647500014378291532      20100331RJ551  0005205102P000000001783500000000000000000000000000000000000000000000000178350000N
500945277700016178479442      20100331RJ551  0005215102P000000001682500000000000000000000000000000000000000000000000168250000N
500290511000195781330174      20100331RJ551  0005225102P000000001270500000000000000000000000000000000000000000000000127050000N
500274601500012902583658      20100331RJ551  0005235102P000000002418300000000000000000000000000000000000000000000000241830000N
500478477000012377287086      20100331RJ551  0005245102P000000002187100000000000000000000000000000000000000000000000218710000N
503030327500016581271763      20100331RJ551  0005255102P000000000903000000000000000000000000000000000000000000000000090300000N
500744455400012777932542      20100331RJ551  0005265102P000000003090000000000000000000000000000000000000000000000000309000000N
501027534700010978607904      20100331RJ551  0005275102P000000001344800000000000000000000000000000000000000000000000134480000N
508700133501742084881570      20100331RJ551  0005285102P000000008747900000000000000000000000000000000000000000000000874790000N
500775853900015377287086      20100331RJ551  0005295102P000000003037500000000000000000000000000000000000000000000000303750000N
502786575700214878045418      20100331RJ551  0005305102P000000003280500000000000000000000000000000000000000000000000328050000N
500807102700018778133260      20100331RJ551  0005315102P000000001158200000000000000000000000000000000000000000000000115820000N
501987535000586578009446      20100331RJ551  0005325102P000000012223200000000000000000000000000000000000000000000001222320000N
500589824300010277611860      20100331RJ551  0005335102P000000000737100000000000000000000000000000000000000000000000073710000N
500041098000010985392271      20100331RJ551  0005345102P000000002671900000000000000000000000000000000000000000000000267190000N
500101367300014985615092      20100331RJ551  0005355102P000000001849800000000000000000000000000000000000000000000000184980000N
500451558800017777192840      20100331RJ551  0005365102P000000002348100000000000000000000000000000000000000000000000234810000N
500204615700018386357135      20100331RJ551  0005375102P000000003740700000000000000000000000000000000000000000000000374070000N
500368839600010877019340      20100331RJ551  0005385102P000000001256500000000000000000000000000000000000000000000000125650000N
500580170300013277601171      20100331RJ551  0005395102P000000004526200000000000000000000000000000000000000000000000452620000N
500473331500010777499520      20100331RJ551  0005405102P000000002524100000000000000000000000000000000000000000000000252410000N
508700133501742084881570      20100331RJ551  0005415102P000000003690000000000000000000000000000000000000000000000000369000000N
503307736300018483565950      20100331RJ551  0005425102P000000002014700000000000000000000000000000000000000000000000201470000N
504229750700010700031070      20100331RJ551  0005435102P000000001601400000000000000000000000000000000000000000000000160140000N
500290511000195781330174      20100331RJ551  0005445102P000000001293500000000000000000000000000000000000000000000000129350000N
500865507700010178255340      20100331RJ551  0005455102P000000001882300000000000000000000000000000000000000000000000188230000N
500382175000011276161844      20100331RJ551  0005465102P000000002598400000000000000000000000000000000000000000000000259840000N
503049982600045077403701      20100331RJ551  0005475102P000000009750000000000000000000000000000000000000000000000000975000000N
5073696718000219ISENTO        20100331RJ551  0005485102P000000007826700000000000000000000000000000000000000000000000782670000N
506794507100102985804774      20100331RJ551  0005495102P000000002453100000000000000000000000000000000000000000000000245310000N
5061087367000260210002693110  20100331SP551  0995042102T000000007312200000000731220000000008775000000000000000000000000001200N
50893052390001830370001605    20100331RS551  1299322102T000000024705000000002470500000000029646000000000000000000000000001200N
5061116331000186100422192111  20100331SP551  4942212102T000000028370000000002837000000000034044000000000000000000000000001200N
5161087367000260210002693110  20100318SP1  09300921020000000204934000000000000000000000000000000000204934                    N
51893052390001830370001605    20100319RS1  12672921020000000291970000000000000000000000000000000000291970                    N
51893052390001830370001605    20100319RS1  12699721020000000056520000000000000000000000000000000000056520                    N
5183011247001021253673054     20100320SC8  00442021020000002560220000000000000000000000000000000002560220                    N
5184046101037194104170630110  20100320SP1  12809421020000000245000000000000000000000000000000000000245000                    N
51789005110007429048510350    20100321PR1  01699021020000000173708000000000000000000000000000000000173708                    N
51049019600001836151635030031 20100321MG1  00301521020000000387830000000000000000000000000000000000387830                    N
5133636499001159ISENTO        20100322RJ1  00009651020000000040790000000000000000000000000000000000040790                    N
510017332200013284899089      20100322RJ1  00009851020000000038371000000000000000000000000000000000038371                    N
512494923200384081334447      20100322RJ1  02061911020000000087726000000000000000000000000000000000087726                    N
51893052390001830370001605    20100322RS1  01715921020000000200000000000000000000000000000000000000200000                    N
510291446000740685628607      20100322RJ1  12988511020000000597555000000000000000000000000000000000597555                    N
51206859960001233302922520052 20100322MG1  00064021020000000293395000000000000000000000000000000000293395                    N
513341389900020477505237      20100322RJ1  00009751020000000010450000000000000000000000000000000000010450                    N
5133456476000786ISENTO        20100322RJ1  00009551020000000019208000000000000000000000000000000000019208                    N
510290511000195781330174      20100322RJ1  00009451020000000013961000000000000000000000000000000000013961                    N
510778766700012578423668      20100322RJ1  00009351020000000007579000000000000000000000000000000000007579                    N
516874193300017384707201      20100322RJ1  00009251020000000013075000000000000000000000000000000000013075                    N
510290511000195781330174      20100322RJ1  00009151020000000033521000000000000000000000000000000000033521                    N
510290511000195781330174      20100322RJ1  00009051020000000043334000000000000000000000000000000000043334                    N
510716217200010077855947      20100322RJ1  00008951020000000013227000000000000000000000000000000000013227                    N
510290511000195781330174      20100322RJ1  00008851020000000059895000000000000000000000000000000000059895                    N
516794507103101777930990      20100322RJ1  00008751020000000045114000000000000000000000000000000000045114                    N
510478477000012377287086      20100322RJ1  00008651020000000025477000000000000000000000000000000000025477                    N
510862839600012878246553      20100322RJ1  00008551020000000017395000000000000000000000000000000000017395                    N
510818427200010978238208      20100322RJ1  00008451020000000046672000000000000000000000000000000000046672                    N
510290511000195781330174      20100322RJ1  00008251020000000000000000000000000000000000000000000000000000                    S
510204615700018386357135      20100322RJ1  00008351020000000026466000000000000000000000000000000000026466                    N
510697556400012677787143      20100322RJ1  00008151020000000013131000000000000000000000000000000000013131                    N
510778766700012578423668      20100322RJ1  00004751020000000014846000000000000000000000000000000000014846                    N
510290511000195781330174      20100322RJ1  00008051020000000121459000000000000000000000000000000000121459                    N
510006058600026085891782      20100322RJ1  00007951020000000015323000000000000000000000000000000000015323                    N
510618635500010178208384      20100322RJ1  00007851020000000023783000000000000000000000000000000000023783                    N
510290511000195781330174      20100322RJ1  00007751020000000061640000000000000000000000000000000000061640                    N
510290511000195781330174      20100322RJ1  00007651020000000016093000000000000000000000000000000000016093                    N
510290511000195781330174      20100322RJ1  00007551020000000057001000000000000000000000000000000000057001                    N
510290511000195781330174      20100322RJ1  00007451020000000014918000000000000000000000000000000000014918                    N
510965412200017678533617      20100322RJ1  00007351020000000012171000000000000000000000000000000000012171                    N
510754307100018077965637      20100322RJ1  00007251020000000019044000000000000000000000000000000000019044                    N
510451558800017777192840      20100322RJ1  00007051020000000046809000000000000000000000000000000000046809                    N
510931259000016278479434      20100322RJ1  00007151020000000011665000000000000000000000000000000000011665                    N
5129259736000241ISENTO        20100322RJ1  00001851020000000028469000000000000000000000000000000000028469                    N
510290511000195781330174      20100322RJ1  00000951020000000013034000000000000000000000000000000000013034                    N
510578271700015677586687      20100322RJ1  00001751020000000012163000000000000000000000000000000000012163                    N
510578271700015677586687      20100322RJ1  00001651020000000010162000000000000000000000000000000000010162                    N
510568923900013477572201      20100322RJ1  00001551020000000009507000000000000000000000000000000000009507                    N
514229750700010700031070      20100322RJ1  00001451020000000012918000000000000000000000000000000000012918                    N
510290511000195781330174      20100322RJ1  00001351020000000025923000000000000000000000000000000000025923                    N
510368839600010877019340      20100322RJ1  00001251020000000023753000000000000000000000000000000000023753                    N
510290511000195781330174      20100322RJ1  00001151020000000027258000000000000000000000000000000000027258                    N
510290511000195781330174      20100322RJ1  00001051020000000000000000000000000000000000000000000000000000                    S
516794507100102985804774      20100322RJ1  00000851020000000018360000000000000000000000000000000000018360                    N
511088559500016378806176      20100322RJ1  00000751020000000017475000000000000000000000000000000000017475                    N
510204615700018386357135      20100322RJ1  00000651020000000011051000000000000000000000000000000000011051                    N
513333712200012781216509      20100322RJ1  00000551020000000010733000000000000000000000000000000000010733                    N
510290511000195781330174      20100322RJ1  00000451020000000018521000000000000000000000000000000000018521                    N
510627083700013777730303      20100322RJ1  00000351020000000011184000000000000000000000000000000000011184                    N
510290511000195781330174      20100322RJ1  00000251020000000016153000000000000000000000000000000000016153                    N
513333712201418780203314      20100322RJ1  00000151020000000010574000000000000000000000000000000000010574                    N
510171334500015585893491      20100322RJ1  00003651020000000011015000000000000000000000000000000000011015                    N
516794507100102985804774      20100322RJ1  00003551020000000031722000000000000000000000000000000000031722                    N
511049574300013378689480      20100322RJ1  00003451020000000016720000000000000000000000000000000000016720                    N
514214367700012981478600      20100322RJ1  00003051020000000007325000000000000000000000000000000000007325                    N
510290511000195781330174      20100322RJ1  00003351020000000042742000000000000000000000000000000000042742                    N
513332506900014481470995      20100322RJ1  00003251020000000018218000000000000000000000000000000000018218                    N
514214367700012981478600      20100322RJ1  00003151020000000000000000000000000000000000000000000000000000                    S
513361370400019981538832      20100322RJ1  00002951020000000010450000000000000000000000000000000000010450                    N
513327984500011781479038      20100322RJ1  00002851020000000013100000000000000000000000000000000000013100                    N
510697556400012677787143      20100322RJ1  00002751020000000011826000000000000000000000000000000000011826                    N
510697556400012677787143      20100322RJ1  00002651020000000010433000000000000000000000000000000000010433                    N
513300994500233982174265      20100322RJ1  00001951020000000000000000000000000000000000000000000000000000                    S
510697556400012677787143      20100322RJ1  00002551020000000013223000000000000000000000000000000000013223                    N
510697556400012677787143      20100322RJ1  00002451020000000009372000000000000000000000000000000000009372                    N
5127002211000110ISENTO        20100322RJ1  00002351020000000007031000000000000000000000000000000000007031                    N
513346916400011101063910      20100322RJ1  00002251020000000105799000000000000000000000000000000000105799                    N
513300994500233982174265      20100322RJ1  00002051020000000030666000000000000000000000000000000000030666                    N
5133469164001860ISENTO        20100322RJ1  00002151020000000213137000000000000000000000000000000000213137                    N
510290511000195781330174      20100322RJ1  00006951020000000029914000000000000000000000000000000000029914                    N
510382175000011276161844      20100322RJ1  00006851020000000049557000000000000000000000000000000000049557                    N
510589824300010277611860      20100322RJ1  00006751020000000016390000000000000000000000000000000000016390                    N
510695426400016077796100      20100322RJ1  00006651020000000041397000000000000000000000000000000000041397                    N
510772277800015378035340      20100322RJ1  00006551020000000024300000000000000000000000000000000000024300                    N
510290511000195781330174      20100322RJ1  00006451020000000032436000000000000000000000000000000000032436                    N
510627083700013777730303      20100322RJ1  00006351020000000002595000000000000000000000000000000000002595                    N
510290511000195781330174      20100322RJ1  00006251020000000029323000000000000000000000000000000000029323                    N
510697556400012677787143      20100322RJ1  00006151020000000016473000000000000000000000000000000000016473                    N
510775853900015377287086      20100322RJ1  00006051020000000021975000000000000000000000000000000000021975                    N
510778766700012578423668      20100322RJ1  00005951020000000026348000000000000000000000000000000000026348                    N
510744455400012777932542      20100322RJ1  00005851020000000015088000000000000000000000000000000000015088                    N
510578271700015677586687      20100322RJ1  00005751020000000013287000000000000000000000000000000000013287                    N
513435365600010081984174      20100322RJ1  00005651020000000014650000000000000000000000000000000000014650                    N
518700133501742084881570      20100322RJ1  00005551020000000011059000000000000000000000000000000000011059                    N
510697556400012677787143      20100322RJ1  00005451020000000004825000000000000000000000000000000000004825                    N
510019151700010577065300      20100322RJ1  00005351020000000007786000000000000000000000000000000000007786                    N
510882647500014378291532      20100322RJ1  00005251020000000015736000000000000000000000000000000000015736                    N
513620887400018684079219      20100322RJ1  00005151020000000010733000000000000000000000000000000000010733                    N
5133469164001860ISENTO        20100322RJ1  00005051020000000018038000000000000000000000000000000000018038                    N
510778766700012578423668      20100322RJ1  00004951020000000012253000000000000000000000000000000000012253                    N
513427316900013781538689      20100322RJ1  00004851020000000036750000000000000000000000000000000000036750                    N
513361384500010181462658      20100322RJ1  00004651020000000014730000000000000000000000000000000000014730                    N
510309710000017675972520      20100322RJ1  00004551020000000013168000000000000000000000000000000000013168                    N
510368839600010877019340      20100322RJ1  00004451020000000011568000000000000000000000000000000000011568                    N
510627083700013777730303      20100322RJ1  00004351020000000014231000000000000000000000000000000000014231                    N
510290511000195781330174      20100322RJ1  00004251020000000009834000000000000000000000000000000000009834                    N
516794507100102985804774      20100322RJ1  00004151020000000012087000000000000000000000000000000000012087                    N
510778766700012578423668      20100322RJ1  00004051020000000033480000000000000000000000000000000000033480                    N
511027534700010978607904      20100322RJ1  00003951020000000010125000000000000000000000000000000000010125                    N
513307736300026581392846      20100322RJ1  00003851020000000013494000000000000000000000000000000000013494                    N
513343645200017081741255      20100322RJ1  00003751020000000023407000000000000000000000000000000000023407                    N
510542861600018177486100      20100322RJ1  03661211020000000312000000000000000000000000000000000000312000                    N
51893052390001830370001605    20100322RS1  12744921020000000141300000000000000000000000000000000000141300                    N
5161116331000186100422192111  20100323SP1  47335021020000000534290000000000000000000000000000000000534290                    N
51224305320001006255154960033 20100323MG1  00292321020000000100022000000000000000000000000000000000100022                    N
510290511000195781330174      20100323RJ1  00016151020000000059164000000000000000000000000000000000059164                    N
511111297400018378845864      20100323RJ1  00016051020000000029273000000000000000000000000000000000029273                    N
510290511000195781330174      20100323RJ1  00015951020000000021827000000000000000000000000000000000021827                    N
510079944300019485642154      20100323RJ1  00015851020000000007066000000000000000000000000000000000007066                    N
514244671600016781547815      20100323RJ1  00015751020000000015781000000000000000000000000000000000015781                    N
513049982600045077403701      20100323RJ1  00015351020000000119536000000000000000000000000000000000119536                    N
510356129300017477234594      20100323RJ1  00015651020000000028871000000000000000000000000000000000028871                    N
510936520100016778471859      20100323RJ1  00015551020000000015837000000000000000000000000000000000015837                    N
5103851171000112ISENTO        20100323RJ1  00015451020000000010853000000000000000000000000000000000010853                    N
510368839600010877019340      20100323RJ1  00015251020000000015225000000000000000000000000000000000015225                    N
511987535000659478454628      20100323RJ1  00015151020000000078520000000000000000000000000000000000078520                    N
510772277800015378035340      20100323RJ1  00015051020000000027590000000000000000000000000000000000027590                    N
518700133501742084881570      20100323RJ1  00014951020000000051474000000000000000000000000000000000051474                    N
510290511000195781330174      20100323RJ1  00014851020000000148170000000000000000000000000000000000148170                    N
513306557400010581645523      20100323RJ1  00014751020000000024188000000000000000000000000000000000024188                    N
511987535000586578009446      20100323RJ1  00014651020000000069736000000000000000000000000000000000069736                    N
518700133501742084881570      20100323RJ1  00014551020000000022560000000000000000000000000000000000022560                    N
510290511000195781330174      20100323RJ1  00014451020000000011070000000000000000000000000000000000011070                    N
513141011100010800083674      20100323RJ1  00014351020000000037138000000000000000000000000000000000037138                    N
5133630484000101ISENTO        20100323RJ1  00014151020000000054246000000000000000000000000000000000054246                    N
510757958100010777985620      20100323RJ1  00014251020000000095067000000000000000000000000000000000095067                    N
510290511000195781330174      20100323RJ1  00014051020000000021545000000000000000000000000000000000021545                    N
510893908500018078320664      20100323RJ1  00013951020000000025124000000000000000000000000000000000025124                    N
513005172600011481683492      20100323RJ1  00013851020000000033982000000000000000000000000000000000033982                    N
510290511000195781330174      20100323RJ1  00013751020000000083557000000000000000000000000000000000083557                    N
512818233500019782723803      20100323RJ1  00013651020000000023477000000000000000000000000000000000023477                    N
510101367300014985615092      20100323RJ1  00013551020000000018788000000000000000000000000000000000018788                    N
513361370400019981538832      20100323RJ1  00013451020000000017570000000000000000000000000000000000017570                    N
510122354200019685786636      20100323RJ1  00013351020000000013260000000000000000000000000000000000013260                    N
513325646200012381524785      20100323RJ1  00013251020000000011154000000000000000000000000000000000011154                    N
513383768300019581528349      20100323RJ1  00013151020000000022969000000000000000000000000000000000022969                    N
512860240700010800549428      20100323RJ1  00013051020000000016272000000000000000000000000000000000016272                    N
513307300800013780446527      20100323RJ1  00012951020000000013845000000000000000000000000000000000013845                    N
510290511000195781330174      20100323RJ1  00012851020000000087072000000000000000000000000000000000087072                    N
512786575700214878045418      20100323RJ1  00012751020000000031356000000000000000000000000000000000031356                    N
517370264900012885209574      20100323RJ1  00012651020000000078049000000000000000000000000000000000078049                    N
510290511000195781330174      20100323RJ1  00012551020000000088107000000000000000000000000000000000088107                    N
510290511000195781330174      20100323RJ1  00012451020000000042821000000000000000000000000000000000042821                    N
510290511000195781330174      20100323RJ1  00012351020000000068771000000000000000000000000000000000068771                    N
5127002211000110ISENTO        20100323RJ1  00010251020000000017250000000000000000000000000000000000017250                    N
513315531800010981393982      20100323RJ1  00010351020000000015675000000000000000000000000000000000015675                    N
511125409500019678885890      20100323RJ1  00010751020000000019600000000000000000000000000000000000019600                    N
5129259736000241ISENTO        20100323RJ1  00010551020000000013200000000000000000000000000000000000013200                    N
518700133501742084881570      20100323RJ1  00010451020000000016027000000000000000000000000000000000016027                    N
5133469164001860ISENTO        20100323RJ1  00011451020000000025819000000000000000000000000000000000025819                    N
510290511000195781330174      20100323RJ1  00011351020000000031715000000000000000000000000000000000031715                    N
510290511000195781330174      20100323RJ1  00011251020000000143853000000000000000000000000000000000143853                    N
513333712201418780203314      20100323RJ1  00011151020000000010892000000000000000000000000000000000010892                    N
517370264900012885209574      20100323RJ1  00011051020000000017411000000000000000000000000000000000017411                    N
516794507103640078254807      20100323RJ1  00010951020000000022950000000000000000000000000000000000022950                    N
510512528300011177386580      20100323RJ1  00010851020000000055768000000000000000000000000000000000055768                    N
510290511000195781330174      20100323RJ1  00010651020000000012276000000000000000000000000000000000012276                    N
511027534700010978607904      20100323RJ1  00012251020000000011906000000000000000000000000000000000011906                    N
510290511000195781330174      20100323RJ1  00012151020000000016960000000000000000000000000000000000016960                    N
512767122100014881375321      20100323RJ1  00012051020000000014137000000000000000000000000000000000014137                    N
510290511000195781330174      20100323RJ1  00011951020000000026201000000000000000000000000000000000026201                    N
510290511000195781330174      20100323RJ1  00011851020000000023158000000000000000000000000000000000023158                    N
517370264900012885209574      20100323RJ1  00011751020000000033105000000000000000000000000000000000033105                    N
512811236500012782536493      20100323RJ1  00011651020000000028698000000000000000000000000000000000028698                    N
510627083700013777730303      20100323RJ1  00011551020000000012084000000000000000000000000000000000012084                    N
519532327500076885957341      20100323RJ1  00616611020000000220000000000000000000000000000000000000220000                    N
512494923200384081334447      20100323RJ1  02067211020000000102001000000000000000000000000000000000102001                    N
512073009900639782674020      20100323RJ3  13948111020000000290377000000000000000000000000000000000290377                    N
510290511000195781330174      20100323RJ1  00010151020000000043232000000000000000000000000000000000043232                    N
512494923200384081334447      20100323RJ1  02072911020000000344093000000000000000000000000000000000344093                    N
510512528300011177386580      20100323RJ1  00010051020000000031380000000000000000000000000000000000031380                    N
510274601500012902583658      20100323RJ1  00009951020000000019095000000000000000000000000000000000019095                    N
510290511000195781330174      20100324RJ1  00016351020000000036234000000000000000000000000000000000036234                    N
510290511000195781330174      20100324RJ1  00016251020000000042600000000000000000000000000000000000042600                    N
513338269800010681453918      20100324RJ1  00016851020000000007760000000000000000000000000000000000007760                    N
513313624300010081521352      20100324RJ1  00016751020000000010944000000000000000000000000000000000010944                    N
510529815400012577459626      20100324RJ1  00016651020000000042048000000000000000000000000000000000042048                    N
513378627800019581477922      20100324RJ1  00016551020000000011388000000000000000000000000000000000011388                    N
510290511000195781330174      20100324RJ1  00018251020000000033813000000000000000000000000000000000033813                    N
510290511000195781330174      20100324RJ1  00017951020000000046476000000000000000000000000000000000046476                    N
510015995700018585432575      20100324RJ1  00018151020000000044323000000000000000000000000000000000044323                    N
510290511000195781330174      20100324RJ1  00018051020000000026731000000000000000000000000000000000026731                    N
510290511000195781330174      20100324RJ1  00017851020000000028704000000000000000000000000000000000028704                    N
510763733900014278023953      20100324RJ1  00017751020000000013265000000000000000000000000000000000013265                    N
510274601500012902583658      20100324RJ1  00017651020000000027492000000000000000000000000000000000027492                    N
513355062500018681466300      20100324RJ1  00017551020000000016352000000000000000000000000000000000016352                    N
513051438400012181248109      20100324RJ1  00017451020000000033772000000000000000000000000000000000033772                    N
510807102700018778133260      20100324RJ1  00017351020000000032433000000000000000000000000000000000032433                    N
510290511000195781330174      20100324RJ1  00017251020000000034450000000000000000000000000000000000034450                    N
510290511000195781330174      20100324RJ1  00017151020000000014612000000000000000000000000000000000014612                    N
