S011    00000027802012008C00000024600010201200800000000000005950000000000000000000000000000000000000000000000000000000000000000000000000000000000000000000000000000000000000000000059500             Outros                       00000000000000000VOL       0000000000000000000000000000000000CIF               S2                                                                                                      00000000000000000              
S011    00000032809012008C00000036900010901200800000000000151200000000000000000000000000000000000000000000000000000000000000000000000000000000000000000000000000000000000000000001512000             Outros                       00000000000000000VOL       0000000000000000000000000000000000CIF               N2                                                                                                      00000000000000000              
S011    00000028811012008C00000036400011101200800000000030000000000000000000000000000000000000000000000000000000000000000000000000000000000000000000000000000000000000000000000300000000             Outros                       00000000000000000VOL       0000000000000000000000000000000000CIF               N2                                                                                                      00000000000000000              
S011    00000028911012008F00000022400011101200800000000000050000000000000000000000000000000000000000000000000000000000000000000000000000000000000000000000000000000000000000000000500000             Outros                       00000000000000000VOL       0000000000000000000000000000000000CIF               N2                                                                                                      00000000000000000              
S011    00000029011012008F00000002900011101200800000000002000000000000000000000000000000000000000000000000000000000000000000000000000000000000000000000000000000000000000000000020000000             Outros                       00000000000000000VOL       0000000000000000000000000000000000CIF               N2                                                                                                      00000000000000000              
S011    00000029113012008C00000036900011301200800000000000500000000000000000000000000000000000000000000000000000000000000000000000000000000000000000000000000000000000000000000005000000             Outros                       00000000000000000VOL       0000000000000000000000000000000000CIF               N2                                                                                                      00000000000000000              
S011    00000029214012008F00000002900011401200800000000000250000000000000000000000000000000000000000000000000000000000000000000000000000000000000000000000000000000000000000000002500000             Outros                       00000000000000000VOL       0000000000000000000000000000000000CIF               N2                                                                                                      00000000000000000              
S011    00000029314012008C00000024600011401200800000000000038777000000000000000000000000000000000000000000000000000000000000000000000000000000000000000000000000000000000000000000387770             Outros                       00000000000000000VOL       0000000000000000000000000000000000CIF               N2                                                                                                      00000000000000000              
S011    00000029416012008F00000034300011601200800000000000150000000000000000000000000000000000000000000000000000000000000000000000000000000000000000000000000000000000000000000001500000             Outros                       00000000000000000VOL       0000000000000000000000000000000000CIF               N2                                                                                                      00000000000000000              
S011    00000029518012008F00000103700011801200800000000000069850000000000000000000000000000000000000000000000000000000000000000000000000000000000000000000000000000000000000000000698500             Outros                       00000000000000000VOL       0000000000000000000000000000000000CIF               N2                                                                                                      00000000000000000              
S011    00000029621012008F00000034300012101200800000000000346000000000000000000000000000000000000000000000000000000000000000000000000000000000000000000000000000000000000000000003460000             Outros                       00000000000000000VOL       0000000000000000000000000000000000CIF               N2                                                                                                      00000000000000000              
S011    00000029721012008F00000100700012101200800000000000514000000000000000000000000000000000000000000000000000000000000000000000000000000000000000000000000000000000000000000005140000             Outros                       00000000000000000VOL       0000000000000000000000000000000000CIF               N2                                                                                                      00000000000000000              
S011    00000029822012008C00000024600012201200800000000000766870000000000000000000000000000000000000000000000000000000000000000000000000000000000000000000000000000000000000000007668700             Outros                       00000000000000000VOL       0000000000000000000000000000000000CIF               N2                                                                                                      00000000000000000              
S011    00000029922012008C00000024600012201200800000000001061820000000000000000000000000000000000000000000000000000000000000000000000000000000000000000000000000000000000000000010618200             Outros                       00000000000000000VOL       0000000000000000000000000000000000CIF               N2                                                                                                      00000000000000000              
S011    00000030022012008C00000024600012201200800000000000471920000000000000000000000000000000000000000000000000000000000000000000000000000000000000000000000000000000000000000004719200             Outros                       00000000000000000VOL       0000000000000000000000000000000000CIF               N2                                                                                                      00000000000000000              
S011    00000030122012008C00000024600012201200800000000002530671000000000000000000000000000000000000000000000000000000000000000000000000000000000000000000000000000000000000000025306710             Outros                       00000000000000000VOL       0000000000000000000000000000000000CIF               N2                                                                                                      00000000000000000              
S011    00000030222012008C00000024600012201200800000000004123401000000000000000000000000000000000000000000000000000000000000000000000000000000000000000000000000000000000000000041234010             Outros                       00000000000000000VOL       0000000000000000000000000000000000CIF               N2                                                                                                      00000000000000000              
S011    00000030322012008C00000024600012201200800000000000501415000000000000000000000000000000000000000000000000000000000000000000000000000000000000000000000000000000000000000005014150             Outros                       00000000000000000VOL       0000000000000000000000000000000000CIF               N2                                                                                                      00000000000000000              
S011    00000030422012008C00000024600012201200800000000000019810000000000000000000000000000000000000000000000000000000000000000000000000000000000000000000000000000000000000000000198100             Outros                       00000000000000000VOL       0000000000000000000000000000000000CIF               N2                                                                                                      00000000000000000              
S011    00000030522012008C00000024600012201200800000000000078608000000000000000000000000000000000000000000000000000000000000000000000000000000000000000000000000000000000000000000786080             Outros                       00000000000000000VOL       0000000000000000000000000000000000CIF               N2                                                                                                      00000000000000000              
S011    00000030622012008C00000024600012201200800000000000001840000000000000000000000000000000000000000000000000000000000000000000000000000000000000000000000000000000000000000000018400             Outros                       00000000000000000VOL       0000000000000000000000000000000000CIF               N2                                                                                                      00000000000000000              
S011    00000030724012008F00000021800012401200800000000000220000000000000000000000000000000000000000000000000000000000000000000000000000000000000000000000000000000000000000000002200000             Outros                       00000000000000000VOL       0000000000000000000000000000000000CIF               N2                                                                                                      00000000000000000              
S011    00000030828012008F00000016000012801200800000000000420000000000000000000000000000000000000000000000000000000000000000000000000000000000000000000000000000000000000000000004200000             Outros                       00000000000000000VOL       0000000000000000000000000000000000CIF               N2                                                                                                      00000000000000000              
S011    00000030931012008F00000016700013101200800000000000112240000000000000000000000000000000000000000000000000000000000000000000000000000000000000000000000000000000000000000001122400             Outros                       00000000000000000VOL       0000000000000000000000000000000000CIF               N2                                                                                                      00000000000000000              
S011    00000031113022008F00000079300011302200800000000003740000000000000000000000000000000000000000000000000000000000000000000000000000000000000000000000000000000000000000000037400000             Outros                       00000000000000000VOL       0000000000000000000000000000000000CIF               N2                                                                                                      00000000000000000              
S011    00000031213022008F00000001700011302200800000000000158400000000000000000000000000000000000000000000000000000000000000000000000000000000000000000000000000000000000000000001584000             Outros                       00000000000000000VOL       0000000000000000000000000000000000CIF               N2                                                                                                      00000000000000000              
S011    00000031318022008F00000104700011802200800000000000068000000000000000000000000000000000000000000000000000000000000000000000000000000000000000000000000000000000000000000000680000             Outros                       00000000000000000VOL       0000000000000000000000000000000000CIF               N2                                                                                                      00000000000000000              
S011    00000031418022008C00000024600011802200800000000000040530000000000000000000000000000000000000000000000000000000000000000000000000000000000000000000000000000000000000000000405300             Outros                       00000000000000000VOL       0000000000000000000000000000000000CIF               N2                                                                                                      00000000000000000              
S011    00000031518022008C00000024600011802200800000000000163339000000000000000000000000000000000000000000000000000000000000000000000000000000000000000000000000000000000000000001633390             Outros                       00000000000000000VOL       0000000000000000000000000000000000CIF               N2                                                                                                      00000000000000000              
S011    00000031618022008C00000024600011802200800000000000137295000000000000000000000000000000000000000000000000000000000000000000000000000000000000000000000000000000000000000001372950             Outros                       00000000000000000VOL       0000000000000000000000000000000000CIF               N2                                                                                                      00000000000000000              
S011    00000031718022008C00000024600011802200800000000000017341000000000000000000000000000000000000000000000000000000000000000000000000000000000000000000000000000000000000000000173410             Outros                       00000000000000000VOL       0000000000000000000000000000000000CIF               N2                                                                                                      00000000000000000              
S011    00000031818022008C00000024600011802200800000000000131292000000000000000000000000000000000000000000000000000000000000000000000000000000000000000000000000000000000000000001312920             Outros                       00000000000000000VOL       0000000000000000000000000000000000CIF               N2                                                                                                      00000000000000000              
S011    00000031919022008C00000024600011902200800000000000256840000000000000000000000000000000000000000000000000000000000000000000000000000000000000000000000000000000000000000002568400             Outros                       00000000000000000VOL       0000000000000000000000000000000000CIF               N2                                                                                                      00000000000000000              
S011    00000032019022008F00000000100011902200800000000000750000000000000000000000000000000000000000000000000000000000000000000000000000000000000000000000000000000000000000000007500000             Outros                       00000000000000000VOL       0000000000000000000000000000000000CIF               N2                                                                                                      00000000000000000              
S011    00000032119022008C00000024600011902200800000000000025555000000000000000000000000000000000000000000000000000000000000000000000000000000000000000000000000000000000000000000255550             Outros                       00000000000000000VOL       0000000000000000000000000000000000CIF               N2                                                                                                      00000000000000000              
S011    00000032219022008C00000024600011902200800000000000251744000000000000000000000000000000000000000000000000000000000000000000000000000000000000000000000000000000000000000002517440             Outros                       00000000000000000VOL       0000000000000000000000000000000000CIF               N2                                                                                                      00000000000000000              
S011    00000032319022008C00000024600011902200800000000000016928000000000000000000000000000000000000000000000000000000000000000000000000000000000000000000000000000000000000000000169280             Outros                       00000000000000000VOL       0000000000000000000000000000000000CIF               N2                                                                                                      00000000000000000              
S011    00000032419022008C00000024600011902200800000000001329975000000000000000000000000000000000000000000000000000000000000000000000000000000000000000000000000000000000000000013299750             Outros                       00000000000000000VOL       0000000000000000000000000000000000CIF               N2                                                                                                      00000000000000000              
S011    00000032519022008C00000024600011902200800000000002025400000000000000000000000000000000000000000000000000000000000000000000000000000000000000000000000000000000000000000020254000             Outros                       00000000000000000VOL       0000000000000000000000000000000000CIF               N2                                                                                                      00000000000000000              
S011    00000032619022008C00000024600011902200800000000000008600000000000000000000000000000000000000000000000000000000000000000000000000000000000000000000000000000000000000000000086000             Outros                       00000000000000000VOL       0000000000000000000000000000000000CIF               N2                                                                                                      00000000000000000              
S011    00000032721022008F00000104800012102200800000000000034645000000000000000000000000000000000000000000000000000000000000000000000000000000000000000000000000000000000000000000346450             Outros                       00000000000000000VOL       0000000000000000000000000000000000CIF               N2                                                                                                      00000000000000000              
S011    00000032927022008C00000036900012702200800000000000017400000000000000000000000000000000000000000000000000000000000000000000000000000000000000000000000000000000000000000000174000             Outros                       00000000000000000VOL       0000000000000000000000000000000000CIF               N2                                                                                                      00000000000000000              
S011    00000033027022008F00000016000012702200800000000000420000000000000000000000000000000000000000000000000000000000000000000000000000000000000000000000000000000000000000000004200000             Outros                       00000000000000000VOL       0000000000000000000000000000000000FOB               N2                                                                                                      00000000000000000              
S011    00000033328022008C00000024600012802200800000000000054400000000000000000000000000000000000000000000000000000000000000000000000000000000000000000000000000000000000000000000544000             Outros                       00000000000000000VOL       0000000000000000000000000000000000CIF               N2                                                                                                      00000000000000000              
S011    00000033204032008F00000104800010403200800000000000030000000000000000000000000000000000000000000000000000000000000000000000000000000000000000000000000000000000000000000000300000             Outros                       00000000000000000VOL       0000000000000000000000000000000000CIF               N2                                                                                                      00000000000000000              
S011    00000033405032008F00000022400010503200800000000000200000000000000000000000000000000000000000000000000000000000000000000000000000000000000000000000000000000000000000000002000000             Outros                       00000000000000000VOL       0000000000000000000000000000000000CIF               N2                                                                                                      00000000000000000              
S011    00000033511032008F00000102700011103200800000000000821800000000000000000000000000000000000000000000000000000000000000000000000000000000000000000000000000000000000000000008218000             Outros                       00000000000000000VOL       0000000000000000000000000000000000CIF               N2                                                                                                      00000000000000000              
S011    00000033613032008F00000022400011303200800000000030000000000000000000000000000000000000000000000000000000000000000000000000000000000000000000000000000000000000000000000300000000             Outros                       00000000000000000VOL       0000000000000000000000000000000000CIF               N2                                                                                                      00000000000000000              
S011    00000033713032008F00000106000011303200800000000060000000000000000000000000000000000000000000000000000000000000000000000000000000000000000000000000000000000000000000000600000000             Outros                       00000000000000000VOL       0000000000000000000000000000000000CIF               N2                                                                                                      00000000000000000              
S011    00000033814032008F00000002900021403200800000000000033000000000000000000000000000000000000000000000000000000000000000000000000000000000000000000000000000000000000000000000330000             Outros                       00000000000000000VOL       0000000000000000000000000000000000CIF               N2                                                                                                      00000000000000000              
S011    00000033914032008F00000104800011403200800000000000070631000000000000000000000000000000000000000000000000000000000000000000000000000000000000000000000000000000000000000000706310             Outros                       00000000000000000VOL       0000000000000000000000000000000000CIF               N2                                                                                                      00000000000000000              
S011    00000034014032008F00000017000011403200800000000000028000000000000000000000000000000000000000000000000000000000000000000000000000000000000000000000000000000000000000000000280000             Outros                       00000000000000000VOL       0000000000000000000000000000000000CIF               N2                                                                                                      00000000000000000              
S011    00000034103042008F00000022400010304200800000000000388400000000000000000000000000000000000000000000000000000000000000000000000000000000000000000000000000000000000000000003884000             Outros                       00000000000000000VOL       0000000000000000000000000000000000CIF               N2                                                                                                      00000000000000000              
S011    00000034203042008C00000024600010304200800000000000015260000000000000000000000000000000000000000000000000000000000000000000000000000000000000000000000000000000000000000000152600             Outros                       00000000000000000VOL       0000000000000000000000000000000000CIF               N2                                                                                                      00000000000000000              
S011    00000034303042008C00000024600010304200800000000000139524000000000000000000000000000000000000000000000000000000000000000000000000000000000000000000000000000000000000000001395240             Outros                       00000000000000000VOL       0000000000000000000000000000000000CIF               N2                                                                                                      00000000000000000              
S011    00000034403042008C00000024600010304200800000000000003450000000000000000000000000000000000000000000000000000000000000000000000000000000000000000000000000000000000000000000034500             Outros                       00000000000000000VOL       0000000000000000000000000000000000CIF               N2                                                                                                      00000000000000000              
S011    00000034503042008C00000024600010304200800000000000084723000000000000000000000000000000000000000000000000000000000000000000000000000000000000000000000000000000000000000000847230             Outros                       00000000000000000VOL       0000000000000000000000000000000000CIF               N2                                                                                                      00000000000000000              
S011    00000034603042008C00000024600010304200800000000000083653000000000000000000000000000000000000000000000000000000000000000000000000000000000000000000000000000000000000000000836530             Outros                       00000000000000000VOL       0000000000000000000000000000000000CIF               N2                                                                                                      00000000000000000              
S011    00000034703042008F00000034300010304200800000000000162122000000000000000000000000000000000000000000000000000000000000000000000000000000000000000000000000000000000000000001621220             Outros                       00000000000000000VOL       0000000000000000000000000000000000CIF               N2                                                                                                      00000000000000000              
S011    00000034803042008F00000047000010304200800000000000416770000000000000000000000000000000000000000000000000000000000000000000000000000000000000000000000000000000000000000004167700             Outros                       00000000000000000VOL       0000000000000000000000000000000000CIF               N2                                                                                                      00000000000000000              
S011    00000034907042008F00000108000010704200800000000001043307000000000000000000000000000000000000000000000000000000000000000000000000000000000000000000000000000000000000000010433070             Outros                       00000000000000000VOL       0000000000020400000000000000180000CIF               N2                                                                                                      00000000000000000              
S011    00000035008042008F00000102700010804200800000000000536000000000000000000000000000000000000000000000000000000000000000000000000000000000000000000000000000000000000000000005360000             Outros                       00000000000000000VOL       0000000000000000000000000000000000CIF               N2                                                                                                      00000000000000000              
S011    00000035110042008F00000037400011004200800000000000170000000000000000000000000000000000000000000000000000000000000000000000000000000000000000000000000000000000000000000001700000             Outros                       00000000000000000VOL       0000000000000000000000000000000000CIF               N2                                                                                                      00000000000000000              
S011    00000035212042008C00000036700011204200800000000098683777000000000000000000000000000000000000000000000000000000000000000000000000000000000000000000000000000000000000000986837770             Outros                       00000000000000000VOL       0000000000000000000000000000000000CIF               S2                                                                                                      00000000000000000              
S011    00000035314042008C00000036700011404200800000000102797931000000000000000000000000000000000000000000000000000000000000000000000000000000000000000000000000000000000000001027979310             Outros                       00000000000000001ENGRADADO 0000000000000000000000000000000000CIF               N2                                                                                                      00000000000000000              
S011    00000035415042008F00000021100011504200800000000001666500000000000000000000000000000000000000000000000000000000000000000000000000000000000000000000000000000000000000000016665000             Outros                       00000000000000000VOL       0000000000000000000000000000000000CIF               N2                                                                                                      00000000000000000              
S011    00000035516042008F00000108800011604200800000000000389080000000000000000000000000000000000000000000000000000000000000000000000000000000000000000000000000000000000000000003890800             Outros                       00000000000000000VOL       0000000000000000000000000000000000CIF               N2                                                                                                      00000000000000000              
S011    00000035618042008F00000108900011804200800000000000110000000000000000000000000000000000000000000000000000000000000000000000000000000000000000000000000000000000000000000001100000             Outros                       00000000000000000VOL       0000000000000000000000000000000000CIF               N2                                                                                                      00000000000000000              
S011    00000035722042008F00000002900012204200800000000000590440000000000000000000000000000000000000000000000000000000000000000000000000000000000000000000000000000000000000000005904400             Outros                       00000000000000000VOL       0000000000000000000000000000000000CIF               N2                                                                                                      00000000000000000              
S011    00000035824042008F00000109500012404200800000000000168800000000000000000000000000000000000000000000000000000000000000000000000000000000000000000000000000000000000000000001688000             Outros                       00000000000000000VOL       0000000000000000000000000000000000CIF               N2                                                                                                      00000000000000000              
S011    00000035925042008C00000024600012504200800000000000323000000000000000000000000000000000000000000000000000000000000000000000000000000000000000000000000000000000000000000003230000             Outros                       00000000000000000VOL       0000000000000000000000000000000000CIF               N2                                                                                                      00000000000000000              
S011    00000036025042008C00000024600012504200800000000003439210000000000000000000000000000000000000000000000000000000000000000000000000000000000000000000000000000000000000000034392100             Outros                       00000000000000000VOL       0000000000000000000000000000000000CIF               N2                                                                                                      00000000000000000              
S011    00000036125042008C00000024600012504200800000000000342000000000000000000000000000000000000000000000000000000000000000000000000000000000000000000000000000000000000000000003420000             Outros                       00000000000000000VOL       0000000000000000000000000000000000CIF               N2                                                                                                      00000000000000000              
S011    00000036226042008C00000036700012604200800000000000450000000000000000000000000000000000000000000000000000000000000000000000000000000000000000000000000000000000000000000004500000             Outros                       00000000000000000VOL       0000000000000000000000000000000000CIF               N2                                                                                                      00000000000000000              
S011    00000036328042008C00000024600012804200800000000003000000000000000000000000000000000000000000000000000000000000000000000000000000000000000000000000000000000000000000000030000000             Outros                       00000000000000000VOL       0000000000000000000000000000000000FOB               N2                                                                                                      00000000000000000              
S011    00000036429042008F00000034300012904200800000000000095135000000000000000000000000000000000000000000000000000000000000000000000000000000000000000000000000000000000000000000951350             Outros                       00000000000000000VOL       0000000000000000000000000000000000CIF               N2                                                                                                      00000000000000000              
S011    00000036629042008C00000036300012904200800000000000500000000000000000000000000000000000000000000000000000000000000000000000000000000000000000000000000000000000000000000005000000             Outros                       00000000000000000VOL       0000000000000000000000000000000000FOB               N2                                                                                                      00000000000000000              
S011    00000036906052008F00000039100010605200800000000000892000000000000000000000000000000000000000000000000000000000000000000000000000000000000000000000000000000000000000000008920000             Outros                       00000000000000000VOL       0000000000000000000000000000000000CIF               N2                                                                                                      00000000000000000              
S011    00000037006052008F00000085900010605200800000000001400000000000000000000000000000000000000000000000000000000000000000000000000000000000000000000000000000000000000000000014000000             Outros                       00000000000000000VOL       0000000000000000000000000000000000CIF               N2                                                                                                      00000000000000000              
S011    00000037106052008C00000036300010605200800000000000200000000000000000000000000000000000000000000000000000000000000000000000000000000000000000000000000000000000000000000002000000             Outros                       00000000000000000VOL       0000000000000000000000000000000000CIF               N2                                                                                                      00000000000000000              
S011    00000037206052008F00000093600010605200800000000001500000000000000000000000000000000000000000000000000000000000000000000000000000000000000000000000000000000000000000000015000000             Outros                       00000000000000001          0000000000000000000000000000000000CIF               N2                                                                                                      00000000000000000              
S011    00000037307052008C00000024600010705200800000000000048000000000000000000000000000000000000000000000000000000000000000000000000000000000000000000000000000000000000000000000480000             Outros                       00000000000000000VOL       0000000000000000000000000000000000CIF               N2                                                                                                      00000000000000000              
S011    00000037412052008F00000002900011205200800000000000070000000000000000000000000000000000000000000000000000000000000000000000000000000000000000000000000000000000000000000000700000             Outros                       00000000000000000VOL       0000000000000000000000000000000000CIF               N2                                                                                                      00000000000000000              
S011    00000037513052008F00000002900011305200800000000001240000000000000000000000000000000000000000000000000000000000000000000000000000000000000000000000000000000000000000000012400000             Outros                       00000000000000000VOL       0000000000000000000000000000000000CIF               N2                                                                                                      00000000000000000              
S011    00000037613052008F00000002900011305200800000000000200000000000000000000000000000000000000000000000000000000000000000000000000000000000000000000000000000000000000000000002000000             Outros                       00000000000000000VOL       0000000000000000000000000000000000CIF               N2                                                                                                      00000000000000000              
S011    00000037715052008F00000002900021505200800000000000002500000000000000000000000000000000000000000000000000000000000000000000000000000000000000000000000000000000000000000000025000             Outros                       00000000000000000VOL       0000000000000000000000000000000000CIF               N2                                                                                                      00000000000000000              
S011    00000037815052008F00000110400011505200800000000000040714000000000000000000000000000000000000000000000000000000000000000000000000000000000000000000000000000000000000000000407140             Outros                       00000000000000000VOL       0000000000000000000000000000000000CIF               N2                                                                                                      00000000000000000              
S011    00000037919052008F00000093600011905200800000000000522600000000000000000000000000000000000000000000000000000000000000000000000000000000005226000000000000000000000000000005748600             Outros                       00000000000000000VOL       0000000000000000000000000000000000CIF               N2                                                                                                      00000000000000000              
S011    00000038021052008F00000109000012105200800000000000300000000000000000000000000000000000000000000000000000000000000000000000000000000000000000000000000000000000000000000003000000             Outros                       00000000000000000VOL       0000000000000000000000000000000000CIF               N2                                                                                                      00000000000000000              
S011    00000038121052008F00000104800012105200800000000000093396000000000000000000000000000000000000000000000000000000000000000000000000000000000000000000000000000000000000000000933960             Outros                       00000000000000000VOL       0000000000000000000000000000000000CIF               N2                                                                                                      00000000000000000              
S011    00000038221052008F00000109000012105200800000000000750000000000000000000000000000000000000000000000000000000000000000000000000000000000000000000000000000000000000000000007500000             Outros                       00000000000000000VOL       0000000000000000000000000000000000CIF               N2                                                                                                      00000000000000000              
S011    00000038326052008F00000058300012605200800000000010000000000000000000000000000000000000000000000000000000000000000000000000000000000000000000000000000000000000000000000100000000             Outros                       00000000000000000          0000000000000000000000000000000000CIF               N2                                                                                                      00000000000000000              
S011    00000038429052008C00000024600012905200800000000000018356000000000000000000000000000000000000000000000000000000000000000000000000000000000000000000000000000000000000000000183560             Outros                       00000000000000000VOL       0000000000000000000000000000000000CIF               N2                                                                                                      00000000000000000              
S011    00000038529052008C00000024600012905200800000000000009442000000000000000000000000000000000000000000000000000000000000000000000000000000000000000000000000000000000000000000094420             Outros                       00000000000000000VOL       0000000000000000000000000000000000CIF               N2                                                                                                      00000000000000000              
S011    00000038629052008C00000024600012905200800000000000010856000000000000000000000000000000000000000000000000000000000000000000000000000000000000000000000000000000000000000000108560             Outros                       00000000000000000VOL       0000000000000000000000000000000000CIF               N2                                                                                                      00000000000000000              
S011    00000038729052008C00000024600012905200800000000000008670000000000000000000000000000000000000000000000000000000000000000000000000000000000000000000000000000000000000000000086700             Outros                       00000000000000000VOL       0000000000000000000000000000000000CIF               N2                                                                                                      00000000000000000              
S011    00000038829052008C00000024600012905200800000000000107601000000000000000000000000000000000000000000000000000000000000000000000000000000000000000000000000000000000000000001076010             Outros                       00000000000000000VOL       0000000000000000000000000000000000CIF               N2                                                                                                      00000000000000000              
S011    00000038929052008F00000034300012905200800000000000401700000000000000000000000000000000000000000000000000000000000000000000000000000000000000000000000000000000000000000004017000             Outros                       00000000000000000VOL       0000000000000000000000000000000000CIF               N2                                                                                                      00000000000000000              
S011    00000039029052008C00000024600012905200800000000001178000000000000000000000000000000000000000000000000000000000000000000000000000000000000000000000000000000000000000000011780000             Outros                       00000000000000000VOL       0000000000000000000000000000000000CIF               N2                                                                                                      00000000000000000              
S011    00000039129052008C00000024600012905200800000000000025400000000000000000000000000000000000000000000000000000000000000000000000000000000000000000000000000000000000000000000254000             Outros                       00000000000000000VOL       0000000000000000000000000000000000CIF               N2                                                                                                      00000000000000000              
S011    00000039229052008C00000024600012905200800000000000067000000000000000000000000000000000000000000000000000000000000000000000000000000000000000000000000000000000000000000000670000             Outros                       00000000000000000VOL       0000000000000000000000000000000000CIF               N2                                                                                                      00000000000000000              
S011    00000039330052008C00000024600013005200800000000001150000000000000000000000000000000000000000000000000000000000000000000000000000000000000000000000000000000000000000000011500000             Outros                       00000000000000000VOL       0000000000000000000000000000000000CIF               N2                                                                                                      00000000000000000              
S011    00000039402062008F00000021100010206200800000000001022625000000000000000000000000000000000000000000000000000000000000000000000000000000000000000000000000000000000000000010226250             Outros                       00000000000000000VOL       0000000000000000000000000000000000CIF               N2                                                                                                      00000000000000000              
S011    00000039503062008F00000082500010306200800000000000093000000000000000000000000000000000000000000000000000000000000000000000000000000000000000000000000000000000000000000000930000             Outros                       00000000000000000VOL       0000000000000000000000000000000000CIF               N2                                                                                                      00000000000000000              
S011    00000039603062008F00000002300010306200800000000000064922000000000000000000000000000000000000000000000000000000000000000000000000000000000000000000000000000000000000000000649220             Outros                       00000000000000000VOL       0000000000000000000000000000000000CIF               N2                                                                                                      00000000000000000              
S011    00000039709062008F00000048200010906200800000000006824040000000000000000000000000000000000000000000000000000000000000000000000000000000000000000000000000000000000000000068240400             Outros                       00000000000000000VOL       0000000000000000000000000000000000CIF               N2                                                                                                      00000000000000000              
S011    00000039811062008F00000048200011106200800000000001007760000000000000000000000000000000000000000000000000000000000000000000000000000000000000000000000000000000000000000010077600             Outros                       00000000000000000VOL       0000000000000000000000000000000000CIF               N2                                                                                                      00000000000000000              
S011    00000039911062008F00000002900021106200800000000000960000000000000000000000000000000000000000000000000000000000000000000000000000000000000000000000000000000000000000000009600000             Outros                       00000000000000000VOL       0000000000000000000000000000000000CIF               N2                                                                                                      00000000000000000              
S011    00000040018062008F00000002900011806200800000000000640000000000000000000000000000000000000000000000000000000000000000000000000000000000000000000000000000000000000000000006400000             Outros                       00000000000000000VOL       0000000000000000000000000000000000CIF               N2                                                                                                      00000000000000000              
S011    00000040118062008F00000034300011806200800000000000082000000000000000000000000000000000000000000000000000000000000000000000000000000000000000000000000000000000000000000000820000             Outros                       00000000000000000VOL       0000000000000000000000000000000000CIF               N2                                                                                                      00000000000000000              
S011    00000040219062008C00000034000011906200800000000000056000000000000000000000000000000000000000000000000000000000000000000000000000000000000000000000000000000000000000000000560000             Outros                       00000000000000000          0000000000000000000000000000000000CIF               N2                                                                                                      00000000000000000              
S011    00000040319062008C00000034000011906200800000000000100000000000000000000000000000000000000000000000000000000000000000000000000000000000000000000000000000000000000000000001000000             Outros                       00000000000000000VOL       0000000000000000000000000000000000CIF               N2                                                                                                      00000000000000000              
S011    00000040423062008C00000034000012306200800000000000010000000000000000000000000000000000000000000000000000000000000000000000000000000000000000000000000000000000000000000000100000             Outros                       00000000000000000VOL       0000000000000000000000000000000000CIF               N2                                                                                                      00000000000000000              
S011    00000040523062008C00000034000012306200800000000000040000000000000000000000000000000000000000000000000000000000000000000000000000000000000000000000000000000000000000000000400000             Outros                       00000000000000000VOL       0000000000000000000000000000000000CIF               N2                                                                                                      00000000000000000              
S011    00000040624062008F00000000900012406200800000000000026500000000000000000000000000000000000000000000000000000000000000000000000000000000000000000000000000000000000000000000265000             Outros                       00000000000000000VOL       0000000000000000000000000000000000CIF               N2                                                                                                      00000000000000000              
S011    00000040724062008F00000048200012406200800000000000615600000000000000000000000000000000000000000000000000000000000000000000000000000000000000000000000000000000000000000006156000             Outros                       00000000000000000VOL       0000000000000000000000000000000000CIF               N2                                                                                                      00000000000000000              
S011    00000040825062008F00000109000012506200800000000001180000000000000000000000000000000000000000000000000000000000000000000000000000000000000000000000000000000000000000000011800000             Outros                       00000000000000000VOL       0000000000000000000000000000000000CIF               N2                                                                                                      00000000000000000              
S011    00000040926062008C00000037400012606200800000000003364029000000000000000000000000000000000000000000000000000000000000000000000000000000065460400000000000000000000000000040186330             Outros                       00000000000000000          0000000000000000000000000000000000CIF               N2                                                                                                      00000000000000000              
S011    00000041026062008C00000024600012606200800000000000005950000000000000000000000000000000000000000000000000000000000000000000000000000000000000000000000000000000000000000000059500             Outros                       00000000000000000VOL       0000000000000000000000000000000000CIF               N2                                                                                                      00000000000000000              
S011    00000041130062008F00000002900013006200800000000000320000000000000000000000000000000000000000000000000000000000000000000000000000000000000000000000000000000000000000000003200000             Outros                       00000000000000000VOL       0000000000000000000000000000000000CIF               N2                                                                                                      00000000000000000              
S011    00000041230062008F00000003700013006200800000000000080000000000000000000000000000000000000000000000000000000000000000000000000000000000000000000000000000000000000000000000800000             Outros                       00000000000000000VOL       0000000000000000000000000000000000CIF               N2                                                                                                      00000000000000000              
S011    00000041330062008F00000058300013006200800000000000900000000000000000000000000000000000000000000000000000000000000000000000000000000000000000000000000000000000000000000009000000             Outros                       00000000000000000VOL       0000000000000000000000000000000000CIF               N2                                                                                                      00000000000000000              
S011    00000041430062008F00000048200013006200800000000005874200000000000000000000000000000000000000000000000000000000000000000000000000000000000000000000000000000000000000000058742000             Outros                       00000000000000000          0000000000000000000000000000000000CIF               N2                                                                                                      00000000000000000              
S011    00000041604072008F00000090700010407200800000000000418084000000000000000000000000000000000000000000000000000000000000000000000000000000000000000000000000000000000000000004180840             Outros                       00000000000000000VOL       0000000000000000000000000000000000CIF               N2                                                                                                      00000000000000000              
S011    00000041710072008F00000112600011007200800000000000016000000000000000000000000000000000000000000000000000000000000000000000000000000000000000000000000000000000000000000000160000             Outros                       00000000000000001          0000000000000000000000000000000000CIF               N2                                                                                                      00000000000000000              
S011    00000041811072008F00000109000011107200800000000001220000000000000000000000000000000000000000000000000000000000000000000000000000000000000000000000000000000000000000000012200000             Outros                       00000000000000000VOL       0000000000000000000000000000000000CIF               N2                                                                                                      00000000000000000              
S011    00000041911072008F00000002900021107200800000000000160000000000000000000000000000000000000000000000000000000000000000000000000000000000000000000000000000000000000000000001600000             Outros                       00000000000000000VOL       0000000000000000000000000000000000CIF               N2                                                                                                      00000000000000000              
S011    00000042021072008F00000047000012107200800000000000240000000000000000000000000000000000000000000000000000000000000000000000000000000000000000000000000000000000000000000002400000             Outros                       00000000000000000VOL       0000000000000000000000000000000000CIF               N2                                                                                                      00000000000000000              
S011    00000042122072008F00000022400012207200800000000001800000000000000000000000000000000000000000000000000000000000000000000000000000000000000000000000000000000000000000000018000000             Outros                       00000000000000000VOL       0000000000000000000000000000000000CIF               N2                                                                                                      00000000000000000              
S011    00000042222072008F00000114100012207200800000000000169900000000000000000000000000000000000000000000000000000000000000000000000000000000000000000000000000000000000000000001699000             Outros                       00000000000000000VOL       0000000000000000000000000000000000CIF               N2                                                                                                      00000000000000000              
S011    00000042323072008F00000002900012307200800000000000250000000000000000000000000000000000000000000000000000000000000000000000000000000000000000000000000000000000000000000002500000             Outros                       00000000000000000VOL       0000000000000000000000000000000000CIF               N2                                                                                                      00000000000000000              
S011    00000042424072008F00000019200012407200800000000000095928000000000000000000000000000000000000000000000000000000000000000000000000000000000000000000000000000000000000000000959280             Outros                       00000000000000000VOL       0000000000000000000000000000000000CIF               N2                                                                                                      00000000000000000              
S011    00000042506082008C00000036900010608200800000000006174430000000000000000000000000000000000000000000000000000000000000000000000000000000000000000000000000000000000000000061744300             Outros                       00000000000000000VOL       0000000000000000000000000000000000CIF               N2                                                                                                      00000000000000000              
S011    00000042606082008C00000036900010608200800000000000227000000000000000000000000000000000000000000000000000000000000000000000000000000000000000000000000000000000000000000002270000             Outros                       00000000000000000VOL       0000000000000000000000000000000000CIF               N2                                                                                                      00000000000000000              
S011    00000042706082008C00000036900010608200800000000000152838000000000000000000000000000000000000000000000000000000000000000000000000000000000000000000000000000000000000000001528380             Outros                       00000000000000000VOL       0000000000000000000000000000000000CIF               N2                                                                                                      00000000000000000              
S011    00000042806082008C00000036900010608200800000000000145560000000000000000000000000000000000000000000000000000000000000000000000000000000000000000000000000000000000000000001455600             Outros                       00000000000000000VOL       0000000000000000000000000000000000CIF               N2                                                                                                      00000000000000000              
S011    00000042906082008C00000036900010608200800000000000163600000000000000000000000000000000000000000000000000000000000000000000000000000000000000000000000000000000000000000001636000             Outros                       00000000000000000VOL       0000000000000000000000000000000000CIF               N2                                                                                                      00000000000000000              
S011    00000043006082008C00000036900010608200800000000000052800000000000000000000000000000000000000000000000000000000000000000000000000000000000000000000000000000000000000000000528000             Outros                       00000000000000000VOL       0000000000000000000000000000000000CIF               N2                                                                                                      00000000000000000              
S011    00000043106082008C00000036900010608200800000000000044400000000000000000000000000000000000000000000000000000000000000000000000000000000000000000000000000000000000000000000444000             Outros                       00000000000000000VOL       0000000000000000000000000000000000CIF               N2                                                                                                      00000000000000000              
S011    00000043206082008C00000036900010608200800000000000049350000000000000000000000000000000000000000000000000000000000000000000000000000000000000000000000000000000000000000000493500             Outros                       00000000000000000VOL       0000000000000000000000000000000000CIF               N2                                                                                                      00000000000000000              
S011    00000043306082008C00000036900010608200800000000000619354000000000000000000000000000000000000000000000000000000000000000000000000000000000000000000000000000000000000000006193540             Outros                       00000000000000000VOL       0000000000000000000000000000000000CIF               N2                                                                                                      00000000000000000              
S011    00000043406082008C00000036900010608200800000000001360000000000000000000000000000000000000000000000000000000000000000000000000000000000000000000000000000000000000000000013600000             Outros                       00000000000000000VOL       0000000000000000000000000000000000CIF               N2                                                                                                      00000000000000000              
S011    00000043506082008C00000036900010608200800000000000208152000000000000000000000000000000000000000000000000000000000000000000000000000000000000000000000000000000000000000002081520             Outros                       00000000000000000VOL       0000000000000000000000000000000000CIF               N2                                                                                                      00000000000000000              
S011    00000043606082008C00000036900010608200800000000016191476000000000000000000000000000000000000000000000000000000000000000000000000000000000000000000000000000000000000000161914760             Outros                       00000000000000000VOL       0000000000000000000000000000000000CIF               N2                                                                                                      00000000000000000              
S011    00000043706082008C00000036900010608200800000000000851728000000000000000000000000000000000000000000000000000000000000000000000000000000000000000000000000000000000000000008517280             Outros                       00000000000000000VOL       0000000000000000000000000000000000CIF               N2                                                                                                      00000000000000000              
S011    00000043808082008C00000037500010808200800000000000840000000000000000000000000000000000000000000000000000000000000000000000000000000000000000000000000000000000000000000008400000             Outros                       00000000000000000VOL       0000000000000000000000000000000000CIF               N2                                                                                                      00000000000000000              
S011    00000044008082008F00000000500020808200800000000000840000000000000000000000000000000000000000000000000000000000000000000000000000000000000000000000000000000000000000000008400000             Outros                       00000000000000000VOL       0000000000000000000000000000000000CIF               N2                                                                                                      00000000000000000              
S011    00000044108082008C00000036900010808200800000000004377521000000000000000000000000000000000000000000000000000000000000000000000000000000000000000000000000000000000000000043775210             Outros                       00000000000000000VOL       0000000000000000000000000000000000CIF               N2                                                                                                      00000000000000000              
S011    00000044208082008C00000036900010808200800000000007894766000000000000000000000000000000000000000000000000000000000000000000000000000000000000000000000000000000000000000078947660             Outros                       00000000000000000VOL       0000000000000000000000000000000000CIF               N2                                                                                                      00000000000000000              
S011    00000044314082008C00000037200011408200800000000002264837000000000000000000000000000000000000000000000000000000000000000000000000000000000000000000000000000000000000000022648370             Outros                       00000000000000000VOL       0000000000000000000000000000000000CIF               S2                                                                                                      00000000000000000              
S011    00000044419082008C00000036800011908200800000000000985000000000000000000000000000000000000000000000000000000000000000000000000000000000000000000000000000000000000000000009850000             Outros                       00000000000000000VOL       0000000000000000000000000000000000FOB               N2                                                                                                      00000000000000000              
S011    00000044522082008F00000093600012508200800000000000031460000000000000000000000000000000000000000000000000000000000000000000000000000000000000000000000000000000000000000000314600             Outros                       00000000000000000VOL       0000000000000000000000000000000000CIF               S2                                                                                                      00000000000000000              
S011    00000044622082008F00000093600012508200800000000000078600000000000000000000000000000000000000000000000000000000000000000000000000000000000000000000000000000000000000000000786000             Outros                       00000000000000000VOL       0000000000000000000000000000000000CIF               N2                                                                                                      00000000000000000              
S011    00000044725082008C00000037200012508200800000000002256466000000000000000000000000000000000000000000000000000000000000000000000000000000000000000000000000000000000000000022564660             Outros                       00000000000000000VOL       0000000000000000000000000000000000CIF               S2                                                                                                      00000000000000000              
S011    00000044825082008F00000012600012508200800000000001368000000000000000000000000000000000000000000000000000000000000000000000000000000000000000000000000000000000000000000013680000             Outros                       00000000000000000VOL       0000000000000000000000000000000000CIF               N2                                                                                                      00000000000000000              
S011    00000044925082008C00000037200012508200800000000002253677000000000000000000000000000000000000000000000000000000000000000000000000000000000000000000000000000000000000000022536770             Outros                       00000000000000000VOL       0000000000000000000000000000000000CIF               N2                                                                                                      00000000000000000              
S011    00000045027082008F00000000300012708200800000000000135000000000000000000000000000000000000000000000000000000000000000000000000000000000000000000000000000000000000000000001350000             Outros                       00000000000000000VOL       0000000000020400000000000000180000CIF               N2                                                                                                      00000000000000000              
S011    00000045129082008F00000109000012908200800000000000300000000000000000000000000000000000000000000000000000000000000000000000000000000000000000000000000000000000000000000003000000             Outros                       00000000000000000VOL       0000000000000000000000000000000000CIF               N2                                                                                                      00000000000000000              
S011    00000045229082008F00000109000012908200800000000000750000000000000000000000000000000000000000000000000000000000000000000000000000000000000000000000000000000000000000000007500000             Outros                       00000000000000000VOL       0000000000000000000000000000000000CIF               N2                                                                                                      00000000000000000              
S011    00000045329082008F00000109000012908200800000000000120000000000000000000000000000000000000000000000000000000000000000000000000000000000000000000000000000000000000000000001200000             Outros                       00000000000000000VOL       0000000000000000000000000000000000CIF               N2                                                                                                      00000000000000000              
S011    00000045429082008C00000006500012908200800000000001750000000000000000000000000000000000000000000000000000000000000000000000000000000000000000000000000000000000000000000017500000             Outros                       00000000000000000VOL       0000000000000000000000000000000000CIF               N2                                                                                                      00000000000000000              
S011    00000045603092008C00000031300010309200800000000044131633000000000000000000000000000000000000000000000000000000000000000000000000000000000000000000000000000000000000000441316330             Outros                       00000000000000000VOL       0000000000000000000000000000000000CIF               N2                                                                                                      00000000000000000              
S011    00000045704092008F00000034300010509200800000000000075399000000000000000000000000000000000000000000000000000000000000000000000000000000000000000000000000000000000000000000753990             Outros                       00000000000000000VOL       0000000000000000000000000000000000CIF               N2                                                                                                      00000000000000000              
S011    00000045809092008F00000047000010909200800000000020000000000000000000000000000000000000000000000000000000000000000000000000000000000000000000000000000000000000000000000200000000             Outros                       00000000000000000VOL       0000000000000000000000000000000000CIF               S2                                                                                                      00000000000000000              
S011    00000045910092008C00000024600011009200800000000000155840000000000000000000000000000000000000000000000000000000000000000000000000000000000000000000000000000000000000000001558400             Outros                       00000000000000000VOL       0000000000000000000000000000000000CIF               N2                                                                                                      00000000000000000              
S011    00000046010092008C00000024600011009200800000000000001475000000000000000000000000000000000000000000000000000000000000000000000000000000000000000000000000000000000000000000014750             Outros                       00000000000000000VOL       0000000000000000000000000000000000CIF               N2                                                                                                      00000000000000000              
S011    00000046110092008C00000024600011009200800000000000003540000000000000000000000000000000000000000000000000000000000000000000000000000000000000000000000000000000000000000000035400             Outros                       00000000000000000VOL       0000000000000000000000000000000000CIF               N2                                                                                                      00000000000000000              
S011    00000046210092008C00000024600011009200800000000000004350000000000000000000000000000000000000000000000000000000000000000000000000000000000000000000000000000000000000000000043500             Outros                       00000000000000000VOL       0000000000000000000000000000000000CIF               N2                                                                                                      00000000000000000              
S011    00000046310092008C00000024600011009200800000000000013600000000000000000000000000000000000000000000000000000000000000000000000000000000000000000000000000000000000000000000136000             Outros                       00000000000000000VOL       0000000000000000000000000000000000CIF               N2                                                                                                      00000000000000000              
S011    00000046410092008C00000024600011009200800000000000015007000000000000000000000000000000000000000000000000000000000000000000000000000000000000000000000000000000000000000000150070             Outros                       00000000000000000VOL       0000000000000000000000000000000000CIF               N2                                                                                                      00000000000000000              
S011    00000046510092008C00000024600011009200800000000000005256000000000000000000000000000000000000000000000000000000000000000000000000000000000000000000000000000000000000000000052560             Outros                       00000000000000000VOL       0000000000000000000000000000000000CIF               N2                                                                                                      00000000000000000              
S011    00000046610092008C00000024600011009200800000000000062846000000000000000000000000000000000000000000000000000000000000000000000000000000000000000000000000000000000000000000628460             Outros                       00000000000000000VOL       0000000000000000000000000000000000CIF               N2                                                                                                      00000000000000000              
S011    00000046710092008C00000024600011009200800000000000030173000000000000000000000000000000000000000000000000000000000000000000000000000000000000000000000000000000000000000000301730             Outros                       00000000000000000VOL       0000000000000000000000000000000000CIF               N2                                                                                                      00000000000000000              
S011    00000046810092008C00000024600011009200800000000000032110000000000000000000000000000000000000000000000000000000000000000000000000000000000000000000000000000000000000000000321100             Outros                       00000000000000000VOL       0000000000000000000000000000000000CIF               N2                                                                                                      00000000000000000              
S011    00000046910092008C00000024600011009200800000000000004047000000000000000000000000000000000000000000000000000000000000000000000000000000000000000000000000000000000000000000040470             Outros                       00000000000000000VOL       0000000000000000000000000000000000CIF               N2                                                                                                      00000000000000000              
S011    00000047010092008C00000024600011009200800000000000024344000000000000000000000000000000000000000000000000000000000000000000000000000000000000000000000000000000000000000000243440             Outros                       00000000000000000VOL       0000000000000000000000000000000000CIF               N2                                                                                                      00000000000000000              
S011    00000047110092008C00000024600011009200800000000000010000000000000000000000000000000000000000000000000000000000000000000000000000000000000000000000000000000000000000000000100000             Outros                       00000000000000000VOL       0000000000000000000000000000000000CIF               N2                                                                                                      00000000000000000              
S011    00000047210092008C00000024600011009200800000000000011200000000000000000000000000000000000000000000000000000000000000000000000000000000000000000000000000000000000000000000112000             Outros                       00000000000000000VOL       0000000000000000000000000000000000CIF               N2                                                                                                      00000000000000000              
S011    00000047310092008C00000036900011009200800000000003359500000000000000000000000000000000000000000000000000000000000000000000000000000000000000000000000000000000000000000033595000             Outros                       00000000000000000VOL       0000000000000000000000000000000000CIF               N2                                                                                                      00000000000000000              
S011    00000047410092008C00000037400011009200800000000030000000000000000000000000000000000000000000000000000000000000000000000000000000000000000000000000000000000000000000000300000000             Outros                       00000000000000000VOL       0000000000000000000000000000000000CIF               N2                                                                                                      00000000000000000              
S011    00000047511092008C00000024600011109200800000000000480000000000000000000000000000000000000000000000000000000000000000000000000000000000000000000000000000000000000000000004800000             Outros                       00000000000000000VOL       0000000000000000000000000000000000CIF               N2                                                                                                      00000000000000000              
S011    00000047617092008F00000118100011709200800000000000135000000000000000000000000000000000000000000000000000000000000000000000000000000000000000000000000000000000000000000001350000             Outros                       00000000000000000VOL       0000000000000000000000000000000000CIF               N2                                                                                                      00000000000000000              
S011    00000047719092008F00000115500011909200800000000000174505000000000000000000000000000000000000000000000000000000000000000000000000000000000000000000000000000000000000000001745050             Outros                       00000000000000000VOL       0000000000000000000000000000000000CIF               N2                                                                                                      00000000000000000              
S011    00000047819092008C00000036900011909200800000000028652760000000000000000000000000000000000000000000000000000000000000000000000000000000000000000000000000000000000000000286527600             Outros                       00000000000000000VOL       0000000000000000000000000000000000CIF               N2                                                                                                      00000000000000000              
S011    00000047924092008F00000002900022409200800000000000070000000000000000000000000000000000000000000000000000000000000000000000000000000000000000000000000000000000000000000000700000             Outros                       00000000000000000VOL       0000000000000000000000000000000000CIF               N2                                                                                                      00000000000000000              
S011    00000048001102008F00000080600010110200800000000000027780000000000000000000000000000000000000000000000000000000000000000000000000000000000339300000000000000000000000000000311730             Outros                       00000000000000000VOL       0000000000000000000000000000000000CIF               N2                                                                                                      00000000000000000              
S011    00000048109102008F00000090600010910200800000000000018000000000000000000000000000000000000000000000000000000000000000000000000000000000000000000000000000000000000000000000180000             Outros                       00000000000000000VOL       0000000000000000000000000000000000CIF               S2                                                                                                      00000000000000000              
S011    00000048209102008F00000090600010910200800000000000018000000000000000000000000000000000300000000000000000000000000000000000000000000000000000000000000000000000000000000000210000             Outros                       00000000000000000VOL       0000000000000000000000000000000000CIF               N2                                                                                                      00000000000000000              
S011    00000048314102008F00000017700011410200800000000000034000000000000000000000000000000000000000000000000000000000000000000000000000000000000000000000000000000000000000000000340000             Outros                       00000000000000000VOL       0000000000000000000000000000000000CIF               N2                                                                                                      00000000000000000              
S011    00000048414102008C00000037500011410200800000000004004368000000000000000000000000000000000000000000000000000000000000000000000000000000000000000000000000000000000000000040043680             Outros                       00000000000000000VOL       0000000000000000000000000000000000CIF               N2                                                                                                      00000000000000000              
S011    00000048517102008F00000000100011710200800000000000300000000000000000000000000000000000000000000000000000000000000000000000000000000000000000000000000000000000000000000003000000             Outros                       00000000000000000VOL       0000000000000000000000000000000000CIF               N2                                                                                                      00000000000000000              
S011    00000048617102008F00000000100011710200800000000000150000000000000000000000000000000000000000000000000000000000000000000000000000000000000000000000000000000000000000000001500000             Outros                       00000000000000000VOL       0000000000000000000000000000000000CIF               N2                                                                                                      00000000000000000              
S011    00000048723102008C00000034000012310200800000000000010000000000000000000000000000000000000000000000000000000000000000000000000000000000000000000000000000000000000000000000100000             Outros                       00000000000000000VOL       0000000000000000000000000000000000CIF               N2                                                                                                      00000000000000000              
S011    00000048823102008C00000034000012310200800000000000040000000000000000000000000000000000000000000000000000000000000000000000000000000000000000000000000000000000000000000000400000             Outros                       00000000000000000VOL       0000000000000000000000000000000000CIF               N2                                                                                                      00000000000000000              
S011    00000048928102008F00000118100012810200800000000000145000000000000000000000000000000000000000000000000000000000000000000000000000000000000000000000000000000000000000000001450000             Outros                       00000000000000000VOL       0000000000000000000000000000000000CIF               N2                                                                                                      00000000000000000              
S011    00000049028102008F00000120300012810200800000000000400000000000000000000000000000000000000000000000000000000000000000000000000000000000000000000000000000000000000000000004000000             Outros                       00000000000000004VOL       0000000000000000000000000000000000FOB               N2                                                                                                      00000000000000000              
S011    00000049130102008F00000002900013010200800000000000035000000000000000000000000000000000000000000000000000000000000000000000000000000000000000000000000000000000000000000000350000             Outros                       00000000000000001VOL       0000000000000000000000000000000000CIF               N2                                                                                                      00000000000000000              
S011    00000049230102008F00000000100013010200800000000000150000000000000000000000000000000000000000000000000000000000000000000000000000000000000000000000000000000000000000000001500000             Outros                       00000000000000000VOL       0000000000000000000000000000000000CIF               N2                                                                                                      00000000000000000              
S011    00000049331102008F00000121000013110200800000000000633000000000000000000000000000000000000000000000000000000000000000000000000000000000000000000000000000000000000000000006330000             Outros                       00000000000000000VOL       0000000000000000000000000000000000CIF               N2                                                                                                      00000000000000000              
S011    00000049504112008C00000024600010411200800000000000018963000000000000000000000000000000000000000000000000000000000000000000000000000000000000000000000000000000000000000000189630             Outros                       00000000000000000VOL       0000000000000000000000000000000000CIF               N2                                                                                                      00000000000000000              
S011    00000049605112008F00000120300010511200800000000000100000000000000000000000000000000000000000000000000000000000000000000000000000000000000000000000000000000000000000000001000000             Outros                       00000000000000000VOL       0000000000000000000000000000000000CIF               N2                                                                                                      00000000000000000              
S011    00000049705112008F00000120300010511200800000000000050000000000000000000000000000000000000000000000000000000000000000000000000000000000000000000000000000000000000000000000500000             Outros                       00000000000000000VOL       0000000000000000000000000000000000CIF               N2                                                                                                      00000000000000000              
S011    00000049805112008F00000120300010511200800000000000100000000000000000000000000000000000000000000000000000000000000000000000000000000000000000000000000000000000000000000001000000             Outros                       00000000000000000VOL       0000000000000000000000000000000000CIF               N2                                                                                                      00000000000000000              
S011    00000049907112008F00000000100010711200800000000000300000000000000000000000000000000000000000000000000000000000000000000000000000000000000000000000000000000000000000000003000000             Outros                       00000000000000000VOL       0000000000000000000000000000000000CIF               N2                                                                                                      00000000000000000              
S011    00000050007112008F00000000100010711200800000000000150000000000000000000000000000000000000000000000000000000000000000000000000000000000000000000000000000000000000000000001500000             Outros                       00000000000000000VOL       0000000000000000000000000000000000CIF               N2                                                                                                      00000000000000000              
S011    00000050107112008F00000092600010711200800000000000193335000000000000000000000000000000000000000000000000000000000000000000000000000000000966700000000000000000000000000002030020             Outros                       00000000000000000VOL       0000000000000000000000000000000000CIF               N2                                                                                                      00000000000000000              
S011    00000050207112008F00000109000010711200800000000000920000000000000000000000000000000000000000000000000000000000000000000000000000000000000000000000000000000000000000000009200000             Outros                       00000000000000000VOL       0000000000000000000000000000000000CIF               S2                                                                                                      00000000000000000              
S011    00000050307112008F00000109000010711200800000000000300000000000000000000000000000000000000000000000000000000000000000000000000000000000000000000000000000000000000000000003000000             Outros                       00000000000000000VOL       0000000000000000000000000000000000CIF               N2                                                                                                      00000000000000000              
S011    00000050410112008F00000109000011011200800000000000920000000000000000000000000000000000000000000000000000000000000000000000000000000000000000000000000000000000000000000009200000             Outros                       00000000000000000VOL       0000000000000000000000000000000000CIF               N2                                                                                                      00000000000000000              
S011    00000050511112008F00000067100011111200800000000000624000000000000000000000000000000000000000000000000000000000000000000000000000000000000000000000000000000000000000000006240000             Outros                       00000000000000000VOL       0000000000000000000000000000000000CIF               N2                                                                                                      00000000000000000              
S011    00000050611112008F00000120300011111200800000000000050000000000000000000000000000000000000000000000000000000000000000000000000000000000000000000000000000000000000000000000500000             Outros                       00000000000000000VOL       0000000000000000000000000000000000CIF               N2                                                                                                      00000000000000000              
S011    00000050711112008F00000034300011111200800000000000389537000000000000000000000000000000000000000000000000000000000000000000000000000000000000000000000000000000000000000003895370             Outros                       00000000000000000VOL       0000000000000000000000000000000000CIF               N2                                                                                                      00000000000000000              
S011    00000050813112008F00000120300011311200800000000000100000000000000000000000000000000000000000000000000000000000000000000000000000000000000000000000000000000000000000000001000000             Outros                       00000000000000000VOL       0000000000000000000000000000000000CIF               N2                                                                                                      00000000000000000              
S011    00000050913112008F00000107400021311200800000000000209042000000000000000000000000000000000000000000000000000000000000000000000000000000000000000000000000000000000000000002090420             Outros                       00000000000000000VOL       0000000000000000000000000000000000CIF               N2                                                                                                      00000000000000000              
S011    00000051013112008F00000092200011311200800000000000125000000000000000000000000000000000000000000000000000000000000000000000000000000000000000000000000000000000000000000001250000             Outros                       00000000000000000VOL       0000000000000000000000000000000000CIF               N2                                                                                                      00000000000000000              
S011    00000051118112008C00000036800011811200800000000000230500000000000000000000000000000000000000000000000000000000000000000000000000000000000000000000000000000000000000000002305000             Outros                       00000000000000000VOL       0000000000000000000000000000000000CIF               N2                                                                                                      00000000000000000              
S011    00000051218112008C00000036800011811200800000000000665990000000000000000000000000000000000000000000000000000000000000000000000000000000000000000000000000000000000000000006659900             Outros                       00000000000000000VOL       0000000000000000000000000000000000CIF               N2                                                                                                      00000000000000000              
S011    00000051319112008F00000003600011911200800000000000010000000000000000000000000000000000000000000000000000000000000000000000000000000000000000000000000000000000000000000000100000             Outros                       00000000000000000VOL       0000000000000000000000000000000000FOB               N2                                                                                                      00000000000000000              
S011    00000051421112008F00000003600012111200800000000000119880000000000000000000000000000000000000000000000000000000000000000000000000000000000000000000000000000000000000000001198800             Outros                       00000000000000000VOL       0000000000000000000000000000000000CIF               N2                                                                                                      00000000000000000              
S011    00000051525112008F00000012600012511200800000000000122000000000000000000000000000000000000000000000000000000000000000000000000000000000000000000000000000000000000000000001220000             Outros                       00000000000000000VOL       0000000000000000000000000000000000CIF               N2                                                                                                      00000000000000000              
S011    00000051626112008F00000121000012611200800000000001065000000000000000000000000000000000000000000000000000000000000000000000000000000000000000000000000000000000000000000010650000             Outros                       00000000000000000VOL       0000000000000000000000000000000000CIF               N2                                                                                                      00000000000000000              
S011    00000051801122008F00000003600010112200800000000000080000000000000000000000000000000000000000000000000000000000000000000000000000000000000000000000000000000000000000000000800000             Outros                       00000000000000000VOL       0000000000000000000000000000000000CIF               N2                                                                                                      00000000000000000              
S011    00000051902122008F00000120300010212200800000000000100000000000000000000000000000000000000000000000000000000000000000000000000000000000000000000000000000000000000000000001000000             Outros                       00000000000000000VOL       0000000000000000000000000000000000CIF               N2                                                                                                      00000000000000000              
S011    00000052002122008F00000120300010212200800000000000100000000000000000000000000000000000000000000000000000000000000000000000000000000000000000000000000000000000000000000001000000             Outros                       00000000000000000VOL       0000000000000000000000000000000000CIF               N2                                                                                                      00000000000000000              
S011    00000052105122008F00000092600010512200800000000000188775000000000000000000000000000000000000000000000000000000000000000000000000000000000943900000000000000000000000000001982140             Outros                       00000000000000000VOL       0000000000000000000000000000000000CIF               N2                                                                                                      00000000000000000              
S011    00000052208122008F00000006500010812200800000000000296460000000000000000000000000000000000000000000000000000000000000000000000000000000001482300000000000000000000000000003112830             Outros                       00000000000000000VOL       0000000000000000000000000000000000CIF               N2                                                                                                      00000000000000000              
