1    00001240102012008F00000000100010010307020005          Locação de Cilíndros                         0000000000002100000000000000000000005000000000000002100000000000000001050
1    00000007403012008F00000063100010010302030001          Radiografia Parcial das Soldas               0000000000018400000000000000000000005000000000000018400000000000000009200
1    00000002622012008F00000104100010010301040001          Ranhuramento de Flanges de 0" a 2"           0000000000230007600000000000000000005000000000000230007600000000000115004
1    00000216524012008F00000002700010010302010001          LP de Solda                                  0000000000009000000000000000000000005000000000000009000000000000000004500
1    00000216524012008F00000002700010020302010001          LP de Solda                                  0000000000009000000000000000000000005000000000000009000000000000000004500
1    00000010401022008F00000063100010010302030001          Ensaios não destrutivos por Inspeção Radiogra0000000000003500000000000000000000005000000000000003500000000000000001750
1    00001247301022008F00000000100010010307020005          Locação de Cilíndros                         0000000000002100000000000000000000005000000000000002100000000000000001050
1    00000340304022008F00000017000010010308010001          Calibração de manômetros (RBC)               0000000000005600000000000000000000005000000000000005600000000000000002800
1    00000340404022008F00000017000010010308010001          Calibração de manômetros (RBC)               0000000000001200000000000000000000005000000000000001200000000000000000600
1    00000107605022008F00000022400010010310010001          Pintura e Jateamento                         0000000000020000000000000000000000005000000000000020000000000000000010000
1    00000107605022008F00000022400010020310010001          Pintura e Jateamento                         0000000000003000000000000000000000005000000000000003000000000000000001500
1    00000042508022008F00000019500010010309010001          Inspeção Dimensional                         0000000000017500000000000000000000005000000000000017500000000000000008750
1    00000042508022008F00000019500010020309010002          Inspeção Estanqueidade                       0000000000006250000000000000000000005000000000000006250000000000000003125
1    00000043820022008F00000019500010010302040001          Visual Dimensional de Solda                  0000000000003500000000000000000000005000000000000003500000000000000001750
1    00000043820022008F00000019500010020302010001          LP de Solda                                  0000000000009000000000000000000000005000000000000009000000000000000004500
1    00000043820022008F00000019500010030302010001          LP de Solda                                  0000000000002310000000000000000000005000000000000002310000000000000001155
1    00000043820022008F00000019500010040302010001          Deslocamento                                 0000000000000400000000000000000000005000000000000000400000000000000000200
1    00000043820022008F00000019500010050302010001          Deslocamento                                 0000000000000400000000000000000000005000000000000000400000000000000000200
1    00000942827022008F00000034300010010308010010          Calibração Megohmetro Marca Icel             0000000000001510000000000000000000005000000000000001510000000000000000755
1    00000942827022008F00000034300010020308010011          Calibração Controlador de Temperatura        0000000000000640000000000000000000005000000000000000640000000000000000320
1    00000942827022008F00000034300010030308010012          Calibração Termopar                          0000000000000640000000000000000000005000000000000000640000000000000000320
1    00000217601032008F00000002700010010304020001          Plano de Solda IEIS                          0000000000008000000000000000000000005000000000000008000000000000000004000
1    00001256001032008F00000000100010010307020005          Locação de Cilíndros                         0000000000001350000000000000000000005000000000000001350000000000000000675
1    00000217903032008F00000002700010010304020001          Plano de Solda IEIS                          0000000000008000000000000000000000005000000000000008000000000000000004000
1    00000324111032008F00000102700010010206020034          Maquina de Solda MIG VL 320 c/ cabo de 3 Metr0000000000003800000000000000000000005000000000000003800000000000000002150
1    00000967412032008F00000034300010010308010014          Manutenção e Calibração Hi Pot               0000000000009130000000000000000000005000000000000009130000000000000004565
1    00000348218032008F00000013400010010204010007          Pistola para Pintura                         0000000000000950000000000000000000005000000000000000950000000000000000475
1    00000348218032008F00000013400010020204010007          Conserto Pistola para Pintura                0000000000001200000000000000000000005000000000000001200000000000000000600
1    00001263901042008F00000000100010010307020005          Locação de Cilíndros                         0000000000001350000000000000000000005000000000000001350000000000000000675
1    00000219114042008F00000002700010010304020002          Serviço de Soldagem                          0000000000026000000000000000000000005000000000000026000000000000000013000
1    00000155815042008F00000109000010010307010005          Kit de solda                                 0000000000004700000000000000000000005000000000000004700000000000000002350
1    00000787015042008F00000002900010010302030001          Radiografia Parcial das Soldas               0000000000005033600000000000000000005000000000000005033600000000000002517
1    00001823623042008F00000037400010010111010276          Chave de Nível Lateral Mod.028FA.50.00.02.61.0000000000010290000000000000000000005000000000000010290000000000000005145
1    00001271402052008F00000000100010010307020005          Locação de Cilíndros                         0000000000001200000000000000000000000000000000000000000000000000000000000
1    00000837807052008F00000110300010010307010011          Rompedor 220V                                0000000000001700100000000000000000005000000000000001700100000000000000850
1    00000161814052008F00000109000010010307010005          Kit de solda                                 0000000000004700000000000000000000005000000000000004700000000000000002350
1    00000021815052008F00000018100010010306010001          Apólice nº 02-0740-0168439 - Fasciatus       0000000000001000000000000000000000005000000000000001000100000000000000500
1    00000021815052008F00000018100010020306010001          Apólice nº 02-0740-0168647 - Mauá            0000000000009809900000000000010000005000000000000009809900000000000004905
1    00000021815052008F00000018100010030306010001          Apólice nº 02-0740-0168689 - Fasciatus       0000000000005608800000000000000000005000000000000005608700000000000002804
1    00001085116052008F00000034300010010308010004          Calibração de Trena                          0000000000002600000000000000000000005000000000000002600000000000000001300
1    00001086616052008F00000034300010010308010002          Calibração de Paquímetro                     0000000000001440000000000000000000005000000000000001440000000000000000720
1    00001086616052008F00000034300010020308010004          Calibração de Trena                          0000000000001100000000000000000000005000000000000001100000000000000000550
1    00000854126052008F00000110300010010307010012          Tifor 3 toneladas                            0000000000003600000000000000000000005000000000000003600000000000000001800
1    00000854126052008F00000110300010020307010013          Roldana com Gancho                           0000000000001200000000000000000000005000000000000001200000000000000000600
1    00001107228052008F00000034300010010308010015          Calibração Esquadro Combinado                0000000000001190000000000000000000005000000000000001190000000000000000595
1    00000055213062008F00000019500010010302010001          LP de Solda                                  0000000000008125000000000000000000005000000000000008125000000000000004063
1    00000055623062008F00000019500010010309010001          Inspeção Dimensional                         0000000000016250000000000000000000005000000000000016250000000000000008125
1    00000112324062008F00000089500010010306030001          Assessoria Comercial OP 612                  0000000000490000000000000000000000005000000000000490000000000000000245000
1    00001165927062008F00000034300010010308010007          Calibração Micrometro Externo                0000000000001268800000000000000000005000000000000001268800000000000000635
1    00001165927062008F00000034300010020308010008          Calibração Paquímetro Quadrimensional        0000000000001071200000000000000000005000000000000001071300000000000000536
1    00001165927062008F00000034300010030308010002          Calibração de Paquímetro                     0000000000001279600000000000000000005000000000000001279600000000000000639
1    00001165927062008F00000034300010040308010006          Calibração Haste Padrão                      0000000000000228800000000000000000005000000000000000228700000000000000114
1    00000115401072008F00000089500010010306030001          Assessoria Comercial OP 658                  0000000000186706800000000000000000005000000000000490000000000000000245000
1    00000802501072008F00000002900020010302030001          Radiografia Parcial das Soldas               0000000000021602400000000000000000005000000000000021602400000000000010801
1    00000802901072008F00000002900020010302030001          Radiografia Parcial das Soldas               0000000000014223200000000000000000005000000000000014223200000000000007112
1    00000221902072008F00000002700010010304020001          Plano de Solda IEIS                          0000000000030000000000000000000000005000000000000030000000000000000015000
1    00000221902072008F00000002700010020304020002          Qualificação Soldador                        0000000000008000000000000000000000005000000000000008000000000000000004000
1    00000057608072008F00000019500010010302010001          LP de Solda                                  0000000000009000000000000000000000005000000000000009000000000000000004500
1    00000805315072008F00000002900010010305010003          Ensaio Não Destrutivos por Inspeção Radiográf0000000000004242000000000000000000005000000000000004242000000000000002121
1    00000222517072008F00000002700010010304020002          Qualificação Soldador                        0000000000030000000000000000000000005000000000000030000000000000000015000
1    00000222517072008F00000002700010020304020001          Plano de Solda IEIS                          0000000000008000000000000000000000005000000000000008000000000000000004000
1    00000335017072008F00000082800010010305010001          Ensaio de Tração LB 4365/08                  0000000000001300000000000000000000005000000000000001300000000000000000650
1    00000335017072008F00000082800010020305010003          Ensaio de Dobramento LB 4365/08              0000000000001600000000000000000000005000000000000001600000000000000000800
1    00000335017072008F00000082800010030305010001          Ensaio de Tração LB 4366/08                  0000000000001300000000000000000000005000000000000001300000000000000000650
1    00000335017072008F00000082800010040305010003          Ensaio de Dobramento LB 4366/08              0000000000001600000000000000000000005000000000000001600000000000000000800
1    00000335017072008F00000082800010050305010001          Ensaio de Tração LB 4367/08                  0000000000001300000000000000000000005000000000000001300000000000000000650
1    00000335017072008F00000082800010060305010003          Ensaio de Dobramento LB 4367/08              0000000000001600000000000000000000005000000000000001600000000000000000800
1    00000335017072008F00000082800010070305010003          Ensaio de Dobramento LB 4488/08              0000000000000800000000000000000000005000000000000000800000000000000000400
1    00000021101082008F00000000100010010307020005          Locação de Cilíndros CO2, H2O, Acet, Arg, Nit0000000000001800000000000000000000005000000000000001800000000000000000900
1    00000143701082008F00000115000010010307010012          Tifor TV - 40                                0000000000003950000000000000000000005000000000000003950000000000000001975
1    00000807601082008F00000002900010010305010003          Ensaio de Dobramento                         0000000000003679500000000000000000005000000000000003679500000000000001840
1    00000023313082008F00000000100010010307020005          Locação de Cilíndros de Agamix               0000000000000150000000000000000000005000000000000000150000000000000000075
1    00000176414082008F00000075500010010210010018          Folha A-5 148x210                            0000000000000800000000000000000000005000000000000000800000000000000000400
1    00000176414082008F00000075500010020210010011          Folha A-2 420x594                            0000000000001000000000000000000000005000000000000001000000000000000000500
1    00000224114082008F00000002700010010304020001          Plano de Solda IEIS                          0000000000009000000000000000000000005000000000000009000000000000000004500
1    00000029701092008F00000000100010010307020005          Locação de Cilíndros - Co2, H20, Acetileno, N0000000000001650000000000000000000005000000000000001650000000000000000825
1    00000190601092008F00000109000010010307010006          Locação de Máquina                           0000000000009400000000000000000000005000000000000009400000000000000004700
1    00000225217092008F00000002700010010304020001          Plano de Solda IEIS ref. OS 638              0000000000008000000000000000000000005000000000000008000000000000000004000
1    00000225217092008F00000002700010020304020003          Especificação Procedimento de Solda - nº TI 80000000000001000000000000000000000005000000000000001000000000000000000500
1    00000225217092008F00000002700010030304020001          Revisão IEIS - OP 624                        0000000000001000000000000000000000005000000000000001000000000000000000500
1    00000225217092008F00000002700010040304020001          Revisão IEIS - OP 630                        0000000000001000000000000000000000005000000000000001000000000000000000500
1    00000225217092008F00000002700010050304020001          Revisão IEIS - OP 638                        0000000000001000000000000000000000005000000000000001000000000000000000500
1    00000200326092008F00000109000010010307010005          Locação de Máquina - NF 13067/13233/3653     0000000000004700000000000000000000005000000000000004700000000000000002350
1    00001339426092008F00000034300010010308010004          Calibração de Trena                          0000000000004200000000000000000000005000000000000004200000000000000002100
1    00000039102102008F00000000100010010307020005          Locação de Cilíndros                         0000000000002100000000000000000000005000000000000002100000000000000001050
1    00000067503102008F00000019500010010304020002          Diária de inspetor de EVS + LP               0000000000004950000000000000000000005000000000000004950000000000000002475
1    00001119908102008F00000000900010010311020004          Conserto Motor Máquina de Solda              0000000000001830000000000000000000005000000000000001830000000000000000915
1    00000226422102008F00000002700010010304020002          Diária para Qualificação Soldador            0000000000008000000000000000000000005000000000000008000000000000000004000
1    00000226422102008F00000002700010020304020001          Plano de Solda nº A3 e S6                    0000000000003000000000000000000000005000000000000003000000000000000001500
1    00003073722102008F00000017700010010311020005          Conserto de Controlador de Temperatura       0000000000001500000000000000000000005000000000000001500000000000000000750
1    00000209828102008F00000109000010010307010005          Locação conf. Remessa 13067/13233/13653      0000000000004700000000000000000000005000000000000004700000000000000002350
1    00021210631102008F00000120300010010307020005          Locação de Cilíndros (2-Nit, 4-Gas, 4-Arg)   0000000000002100000000000000000000005000000000000002100000000000000001050
1    00000048101112008F00000000100010010307020005          Locação de Cilíndros                         0000000000001200000000000000000000000000000000000000000000000000000000000
1    00000823303112008F00000002900010010302020001          Ultrassom Solda - 04 filmes 4,5" x 8,54"     0000000000004000000000000000000000005000000000000004000000000000000002000
1    00000071811112008F00000019500010010309010001          Diária de Inspetor Dimensional de Calderaria 0000000000008900000000000000000000005000000000000008900000000000000004450
1    00001028211112008F00000110300010010307010006          Locação de Rompedor Bosch - CTT 08/1116      0000000000003200000000000000000000005000000000000003200000000000000001600
1    00000074624112008F00000019500010010302010001          LP de Solda + EVS                            0000000000007000000000000000000000005000000000000007000000000000000003500
1    00000074624112008F00000019500010020302010001          LP de Solda + EVS                            0000000000002000000000000000000000005000000000000002000000000000000001000
1    00000227727112008F00000002700010010304020003          EPS ER 3/2 e TI 8/2 rev. 01                  0000000000003000000000000000000000005000000000000003000000000000000001500
1    00000227727112008F00000002700010020304020001          Revisão B - Plano de Solda IEIS              0000000000001000000000000000000000005000000000000001000000000000000000500
1    00000227727112008F00000002700010030309010001          Diária Inspetor                              0000000000004000000000000000000000005000000000000004000000000000000002000
1    00000227727112008F00000002700010040309010001          Diária Inspetor                              0000000000004000000000000000000000005000000000000004000000000000000002000
1    00021402530112008F00000120300010010307020005          Locação de Cilíndros Argonio, CO2, Nitrogenio0000000000002730000000000000000000005000000000000002730000000000000001365
1    00000056301122008F00000000100010010307020005          Locação de Cilíndros CO2, Oxigênio e Acetleno0000000000000750000000000000000000005000000000000000750000000000000000375
1    00000828301122008F00000002900010010302010001          Serviço de ensaio não destrutível por inspeçã0000000000003500000000000000000000005000000000000003500000000000000001750
1    00000894708122008F00000003600010010305010001          Ensaio de Tração, Dureza e Achatamento       0000000000003840000000000000000000005000000000000003840000000000000001920
1    00000894708122008F00000003600010020305010003          Análise Química                              0000000000004400000000000000000000005000000000000004400000000000000002200
1    00001481209122008F00000034300010010308010013          Calibração Comparador Diâmetro Interno       0000000000000500000000000000000000005000000000000000500000000000000000250
1    00001481209122008F00000034300010020308010006          Calibração Haste Padrão                      0000000000000220000000000000000000005000000000000000220000000000000000110
1    00001481209122008F00000034300010030308010001          Calibração de manômetros                     0000000000000490000000000000000000005000000000000000490000000000000000245
1    00001481209122008F00000034300010040308010007          Calibração Micrometro Externo                0000000000000520000000000000000000005000000000000000520000000000000000260
1    00001481209122008F00000034300010050308010008          Calibração Paquímetro Quadrimensional        0000000000001090000000000000000000005000000000000001090000000000000000545
1    00001481209122008F00000034300010060308010009          Calibração Paquímetro Digital                0000000000001440000000000000000000005000000000000001440000000000000000720
1    00001481209122008F00000034300010070308010002          Calibração de Paquímetro com bicos           0000000000000410000000000000000000005000000000000000410000000000000000205
1    00001481209122008F00000034300010080308010005          Calibração relógio apalpador                 0000000000000820000000000000000000005000000000000000820000000000000000410
1    00001481209122008F00000034300010090308010001          Calibração de torquímetro                    0000000000000890000000000000000000005000000000000000890000000000000000445
1    00001481209122008F00000034300010100308010004          Calibração de Trena                          0000000000000400000000000000000000005000000000000000400000000000000000200
1    00001481209122008F00000034300010110308010004          Calibração de Trena                          0000000000000400000000000000000000005000000000000000400000000000000000200
1    00001481209122008F00000034300010120308010013          Calibração Relógio Comparador                0000000000000320000000000000000000005000000000000000320000000000000000160
1    00001481209122008F00000034300010130308010017          Calibração Transferidor de Graus             0000000000001920000000000000000000005000000000000001920000000000000000960
1    00000831215122008F00000002900010010302030006          Ensaio Não destrutivo por InspeçRadigrafia Di0000000000004259200000000000000000005000000000000004259200000000000002130
1    00021581731122008F00000120300010010307020005          Locação de Cilíndros                         0000000000002520000000000000000000005000000000000002520000000000000001260
