160520050100000000          MAT╔RIA PRIMA PARA PRODUК├O                  
020820080100000000          Matжria Prima Para Produусo                  
160520050101000000          TUBO                                         
160520050101010000          Tubo Inox                                    
110820080101010000          Tubo Inox Aisi 304                           
151120080101010000          Tubo Inox                                    
160520050101010001          tubo mmkmzfmlm                               
060620050101010001          Tubo sem costura 304 L 19,05x2,11            
290520080101010001          Tubo S/C A-312-304 L 19,05                   
170620080101010001          Tubo  A-312-TP304 - SCH.10S п1/4" x 6000mm   
120720080101010001          Tubo A-312 TP304 SCH 10S п1/4" x 6000mm      
130720080101010001          TUBO A-312 TP304 SCH 10S п1/4" x 6000mm      
150720080101010001          Tubo A-312 TP304 SCH 10S п1/4" x 6000mm      
170720080101010001          Tubo A-312 TP304 SCH 10S пN 1/4" x 6000mm    
151120080101010001          Tubo A-312 TP304 SCH 10 пN 1/4" x 6000mm     
280620050101010002          Tubo Inox 304- 19,05x2,11x7500               
160420080101010002          Tubo SA-312-TP304 пN.1/2" x 6000 - SCH.40    
130720080101010002          TUBO A-312 TP304 SCH 40 п1/2" x 6000MM       
150720080101010002          Tubo A-312 TP304 SCH 40 п1/2" x 6000MM       
170720080101010002          Tubo A-312 TP304 SCH 40 пN 1/2" x 6000MM     
060920050101010003          Tubo 316L 4"-SCH 40                          
230120070101010003          Tubo A312-316L 4"-SCH 40                     
110720070101010003          Tubo A312-316L 4"-SCH 40x300mm               
120720080101010003          Tubo A312 TP316L SCH 40 п4"x300mm            
130720080101010003          TUBO A-312 TP316L SCH 40 п4"x300mm           
150720080101010003          Tubo A-312 TP316L SCH 40 п4"x300mm           
170720080101010003          Tubo A-312 TP316L SCH 40 пN 4"x300mm         
060920050101010004          Tubo 316L 3/4" x 2                           
130720080101010004          TUBO A-249 TP316L 3/4" x 2,00                
150720080101010004          Tubo A-249 TP316L 3/4" x 2,00                
291020080101010004          Tubo A-312-TP316L SCH.10 пN. 1/2" x 6000mm   
151120080101010004          Tubo A-312-TP316L SCH.10 пN 1/2" x 6000mm    
060920050101010005          Tubo 316L 3/8" SCH 40                        
130720080101010005          TUBO A-312 TP316L SCH 40 п3/8"               
150720080101010005          Tubo A-312 TP316L SCH 40 п3/8"               
170720080101010005          Tubo A-312 TP316L SCH 40 пN 3/8"             
060920050101010006          Barra Redonda 316 L 1/4"                     
150720080101010006          Barra Redonda A-276 316 L п1/4"              
060920050101010007          Barra Radonda 316L 3/4"                      
181020050101010007          Barra Redonda 316L 3/4"                      
150720080101010007          Barra Redonda A-276 316L п3/4"               
150920050101010008          Tubo 304L 19,05 x 2,00                       
160420080101010008          Tubo SA-312-TP304 пN2" x 600 - SCH.20        
130720080101010008          TUBO A-312 TP304 SCH 20 п2" x 600MM          
150720080101010008          Tubo A-312 TP304 SCH 20 п2" x 600MM          
170720080101010008          Tubo A-312 TP304 SCH 20 пN 2" x 600MM        
181020050101010009          Tubo 316L 3" SCH 40                          
130720080101010009          TUBO A-312 TP316L SCH 40  п3"                
150720080101010009          Tubo A-312 TP316L SCH 40  п3"                
170720080101010009          Tubo A-312 TP316L SCH 40  пN 3"              
181020050101010010          Tubo 316L 6" SCH 40                          
130720080101010010          TUBO A-312 TP316L SCH 40 п6"                 
150720080101010010          Tubo A-312 TP316L SCH 40 п6"                 
170720080101010010          Tubo A-312 TP316L SCH 40 пN 6"               
011120050101010011          Tubo 304L 19,05 x 2,00 (kg)                  
130720080101010011          TUBO A-249 TP304L п3/4" x 2,00               
150720080101010011          Tubo A-249 TP304L п3/4" x 2,00               
010120060101010012          Tubo Inox 304 2"  60,33x1,65x6000mm          
231020060101010012          CANC-Tubo Inox 304 2"                        
290520080101010012          Tubo Inox 304 2"                             
150720080101010012          Tubo A-213 TP304  п 2"                       
110820080101010012          Tubo A-312 TP316L SCH 10S пN 10" x 1500MM    
010120060101010013          Tubo Inox 304 -1/4" SCH.10                   
170620080101010013          Tubo A-312-TP304 - SCH.40S пN.4" x 150mm     
120720080101010013          Tubo A-312 TP304 SCH 40S п4" x 150mm         
130720080101010013          TUBO A-312 TP304 SCH 40S п4" x 150mm         
150720080101010013          Tubo A-312 TP304 SCH 40S п4" x 150mm         
170720080101010013          Tubo A-312 TP304 SCH 40S пN 4" x 150mm       
010120060101010014          Serpentina Inox 304-2"                       
250920080101010014          Tubo A-312-TP304 SCH.40 пN.2" x 300mm        
010120060101010015          Tubo 304L- 1" SCH.40                         
130720080101010015          TUBO A-312 TP304L SCH 40 п1"                 
150720080101010015          Tubo A-312 TP304L SCH 40 п1"                 
170720080101010015          Tubo A-312 TP304L SCH 40 пN 1"               
010120060101010016          Tubo 304L-4" SCH.40                          
130720080101010016          TUBO A-312 TP304L SCH 40 п 4"                
150720080101010016          Tubo A-312 TP304L SCH 40 п 4"                
170720080101010016          Tubo A-312 TP304L SCH 40 пN 4"               
110820080101010016          Tubo A-249 TP316 L п 5/8"X1.20 X6096MM       
010120060101010017          Tubo AISI 304 SCH.80 п 2"                    
261020060101010017          Tubo A312-304 SCH.80 п 2"                    
280320080101010017          Tubo A312-TP304 SCH.80 п 2" x 1000           
120720080101010017          Tubo A312 TP304 SCH 80 п 2" x 1000           
130720080101010017          TUBO A-312 TP304 SCH 80 п 2" x 1000          
150720080101010017          Tubo A-312 TP304 SCH 80 п 2" x 1000          
170720080101010017          Tubo A-312 TP304 SCH 80 пN 2" x 1000         
010120060101010018          Tubo AISI 304 SCH.10 п 1/2"                  
140720080101010018          TUBO A-312 TP304 SCH 10 п 1/2"               
150720080101010018          Tubo A-312 TP304 SCH 10 п 1/2"               
170720080101010018          Tubo A-312 TP304 SCH 10 пN 1/2"              
010120060101010019          Tubo AISI 304 SCH.40 п 3"                    
261020060101010019          Tubo A312-304 SCH.40 п 3"                    
020420080101010019          Tubo A312-304 SCH.40 п 6"                    
120720080101010019          Tubo A312 TP304 SCH 40  п 6"                 
130720080101010019          TUBO A-312 TP304 SCH 40  п 6"                
150720080101010019          Tubo A-312 TP304 SCH 40  п 6"                
170720080101010019          Tubo A-312 TP304 SCH 40 пN 6"                
010120060101010020          Tubo A312- 304 SCH.40 п 2"                   
230120070101010020          Tubo A312- 316 SCH.40 п 2"                   
280320080101010020          Tubo C/C. A312- 316L SCH.40 пN.2"x3,91x6000  
120720080101010020          Tubo A312 316L SCH 40 п2" x 6000MM           
130720080101010020          TUBO A-312 TP316L SCH 40 п2" x 6000MM        
150720080101010020          Tubo A-312 TP316L SCH 40 п2" x 6000MM        
170720080101010020          Tubo A-312 TP316L SCH 40 пN 2" x 6000MM      
010120060101010021          Tubo A312- 304 SCH.40 п 6"                   
310320080101010021          Tubo A312- 304 SCH.XXS пN.2" x 2000          
090620080101010021          Tubo S/C A312- 304 SCH.XXS пN.2" x 2000      
130720080101010021          TUBO A-312 304 SCH XXS п 2" x 2000MM         
150720080101010021          Tubo A-312 304 SCH XXS п 2" x 2000MM         
170720080101010021          Tubo A-312 TP304 SCH XXS пN 2" x 2000MM      
010120060101010022          Tubo A312- 304 SCH.40 п 3.1/2"               
120720080101010022          Tubo A312 TP304 SCH 40 п 3 1/2"              
130720080101010022          TUBO A-312 TP304 SCH 40 п 3 1/2"             
150720080101010022          Tubo A-312 TP304 SCH 40 п 3 1/2"             
170720080101010022          Tubo A-312 TP304 SCH 40 пN 3 1/2"            
010120060101010023          Tubo 304L 19,5 x 2 x 7575                    
130720080101010023          TUBO A-249 TP304L п3/4" x 2,00 x 7575MM      
150720080101010023          Tubo A-249 TP304L п3/4" x 2,00 x 7575MM      
050820080101010023          Tubo A-249 TP304L п3/4" x 2,11 x 3985MM      
010120060101010024          Tubo A-249-304L c/costura 19,05 (2,11x6000)  
160520070101010024          Tubo A-249-304L  19,05 (2,0x6096)            
310320080101010024          Tubo A-249-304  19,05 x 2,0 x 6000mm         
130720080101010024          TUBO A-249-TP304 п 3/4" x 2,00x 6000mm       
150720080101010024          Tubo A-249-TP304 п 3/4" x 2,00x 6000mm       
010120060101010025          Tubo A312- 304 SCH.10 пN.2"                  
240420080101010025          Tubo A312- 304 SCH.80 пN.2"                  
120720080101010025          Tubo A312 TP304 SCH 80 п2"                   
130720080101010025          TUBO A-312 TP304 SCH 80 п2"                  
150720080101010025          Tubo A-312 TP304 SCH 80 п2"                  
170720080101010025          Tubo A-312 TP304 SCH 80 пN 2"                
010120060101010026          Tubo A312-304 SCH.80S п1.1/2"                
040420080101010026          Tubo ASTM-A-249-TP304 пExt.19,05 x 1,65 x 609
140720080101010026          TUBO A-249 TP304 п 3/4" x 1,65 x 6096mm      
150720080101010026          Tubo A-249 TP304 п 3/4" x 1,65 x 6096mm      
010120060101010027          Tubo A312-316L SCH.40S п1.1/2"               
051120070101010027          Tubo S/C A312-TP316 SCH.40S п 3/4" (ASME B36.
130720080101010027          TUBO A-312 TP316 SCH 40S п 3/4" (ASME B36.19)
150720080101010027          Tubo A-312 TP316 SCH 40S п 3/4" (ASME B36.19)
170720080101010027          Tubo A-312 TP316 SCH 40S пN 3/4" (ASME B36.19
010120060101010028          Tubo A312-TP316L п8" SCH.10Sx1500            
120720080101010028          Tubo A312 TP316L SCH 10S п8" x1500MM         
130720080101010028          TUBO A-312 TP316L SCH 10S п8" x1500MM        
150720080101010028          Tubo A-312 TP316L SCH 10S п8" x1500MM        
170720080101010028          Tubo A-312 TP316L SCH 10S пN 8" x1500MM      
010120060101010029          Tubo A312-TP316L п 3/4" SCH.80               
310320080101010029          Tubo A312-TP304 SCH.80 п1.1/2" x 6000        
120720080101010029          Tubo A312 TP304 SCH 80 п1.1/2" x 6000        
130720080101010029          TUBO A-312 TP304 SCH 80 п1.1/2" x 6000MM     
150720080101010029          Tubo A-312 TP304 SCH 80 п1.1/2" x 6000MM     
170720080101010029          Tubo A-312 TP304 SCH 80 пN 1.1/2" x 6000MM   
010120060101010036          Tubo A-106-B 16" Sch.80                      
010120060101010038          Tubo A-333 - P6 1.1/2" SCH 160               
140720080101010038          Tubo A-333 P6 SCH 160 п 1.1/2"               
170720080101010038          Tubo A-333 P6 SCH 160 пN 1.1/2"              
010120060101010039          Tubo A312- 304 SCH.40 п 1/8"                 
310320080101010039          Tubo A312- 304 SCH.160 пN.2" x 2000          
240420080101010039          Tubo A312- 304 SCH.160 пN.2"                 
120720080101010039          Tubo A312 TP304 SCH 160 п2"                  
130720080101010039          TUBO A-312 TP304 SCH 160 п2"                 
150720080101010039          Tubo A-312 TP304 SCH 160 п2"                 
170720080101010039          Tubo A-312 TP304 SCH 160 пN 2"               
010120060101010040          Tubo A312- 304 SCH.40 п 3/8"                 
310320080101010040          Tubo A312- 304 SCH.40 пN.3/8" x 6000         
240420080101010040          Tubo A312- 304 SCH.40 пN.3/8"                
120720080101010040          Tubo A312 TP304 SCH 40 п3/8"                 
130720080101010040          TUBO A-312 TP304 SCH 40 п3/8"                
150720080101010040          Tubo A-312 TP304 SCH 40 п3/8"                
170720080101010040          Tubo A-312 TP304 SCH 40 пN 3/8"              
010120060101010041          Tubo A-249-TP304L пext. 3/4" x 2,0           
130720080101010041          TUBO A-249 TP304L п 3/4" x 2,00              
150720080101010041          Tubo A-249 TP304L п 3/4" x 2,00              
150820080101010041          Tubo A-249 TP304L пN 3/4" x 2,00             
010120060101010042          Tubo Inox 3/4" - MBR5598                     
160520070101010042          Tubo Inox 3/4" - NBR5598                     
291120070101010042          Tubo Inox п 3/4" - NBR5598                   
150720080101010042          Tubo A-213 TP304 п 3/4"                      
080820080101010042          Tubo  A-213 TP304 п 3/4"                     
010120060101010043          Tubo A-182-TP316L. п1/2"-SCH.80              
130720080101010043          TUBO A-182 TP316LSCH 80 п1/2"                
150720080101010043          Tubo A-182 TP316L SCH 80 п1/2"               
010120060101010044          Tubo A-182-TP316L. п 8" SCH 10Sx200          
130720080101010044          TUBO A-182 TP316L SCH 10 п 8"x200            
150720080101010044          Tubo A-182 TP316L SCH 10 п 8"x200            
010120060101010045          Tubo A-312-TP316L. п 2" SCH.80x150           
120720080101010045          Tubo A-312 TP316L SCH 80 п 2" x150MM         
130720080101010045          TUBO A-312 TP316L SCH 80 п 2" x150MM         
150720080101010045          Tubo A-312 TP316L SCH 80 п 2" x150MM         
170720080101010045          Tubo A-312 TP316L SCH 80 пN 2" x150MM        
010120060101010046          Tubo A-312-TP316L. п 1 1/2" SCH.80x160       
120720080101010046          Tubo A-312 TP316L SCH 80 п 1 1/2" x160MM     
130720080101010046          TUBO A-312 TP316L SCH 80 п 1 1/2" x160MM     
150720080101010046          Tubo A-312 TP316L SCH 80 п 1 1/2" x160MM     
170720080101010046          Tubo A-312 TP316L SCH 80 пN 1 1/2" x160MM    
010120060101010047          Tubo A-249-TP316L. пE 5/8"-ESP.1,24          
130720080101010047          TUBO A-249 TP316L. п5/8"X1,24                
150720080101010047          Tubo A-249 TP316L. п5/8"X1,24                
010120060101010048          Tubo A312-TP316L п10" SCH.10Sx1500           
120720080101010048          Tubo A312 TP316L SCH 10S п10" x 1500MM       
130720080101010048          TUBO A-312 TP316L SCH 10S п10" x 1500MM      
150720080101010048          Tubo A-312 TP316L SCH 10S п10" x 1500MM      
170720080101010048          Tubo A-312 TP316L SCH 10S пN 10" x 1500MM    
010120060101010049          Tubo A312-TP316L п10" SCH.10Sx200            
120720080101010049          Tubo A312 TP316L SCH 10S п10" x200MM         
130720080101010049          TUBO A-312 TP316L SCH 10S п10" x200MM        
150720080101010049          Tubo A-312 TP316L SCH 10S п10" x200MM        
170720080101010049          Tubo A-312 TP316L SCH 10S пN 10" x200MM      
010120060101010050          Tubo A-213-TP316L пE5/16"-Esp.1,0x300mm      
130720080101010050          TUBO A-213 TP316L п5/16 BWG19x300mm          
140720080101010050          TUBO A-213 TP316L п5/16 XBWG19 X 300mm       
150720080101010050          Tubo A-213 TP316L п5/16 XBWG19 X 300mm       
010120060101010051          Tubo AISI-316L п 10 x Esp.1,0 x 300          
140720080101010051          TUBO A-213 TP316L п 10 x BWG19x 300MM        
150720080101010051          Tubo A-213 TP316L п 10 x BWG19x 300MM        
010120060101010052          Tubo A - 249 316 L TR 15.87x1.2 - 6096       
130720080101010052          TUBO A-249 TP316 L 5/8"X1.20 X6096MM         
140720080101010052          TUBO A-249 TP316 L п 5/8"X1.20 X6096MM       
150720080101010052          Tubo A-249 TP316 L п 5/8"X1.20 X6096MM       
010120060101010053          Tubo AISI C/C 316 L 273.05x4.19              
280320080101010053          Tubo C/C A-312TP316L SCH.40 пN.1"x3,38x6000  
120720080101010053          Tubo A-312 TP316L SCH40 п1"x 6000MM          
130720080101010053          TUBO A-312 TP316L SCH40 п1"x 6000MM          
150720080101010053          Tubo A-312 TP316L SCH40 п1"x 6000MM          
170720080101010053          Tubo A-312 TP316L SCH 40 пN 1"x 6000MM       
010120060101010054          Tubo AISI S/C 316 L 13.72x2.24mm             
280320080101010054          Tubo C/C A-312TP316L SCH.40 пN.3"x5,49x6000  
120720080101010054          Tubo A-312 TP316L SCH 40 п3" x 6000MM        
130720080101010054          TUBO A-312 TP316L SCH 40 п3" x 6000MM        
150720080101010054          Tubo A-312 TP316L SCH 40 п3" x 6000MM        
170720080101010054          Tubo A-312 TP316L SCH 40 пN 3" x 6000MM      
010120060101010055          Tubo AISI S/C 316 L 21.34x3.73mm             
140720080101010055          TUBO A-213 TP316 L п 1/2"xBWG9               
150720080101010055          Tubo A-213 TP316 L п 1/2"xBWG9               
010120060101010056          Tubo AISI S/C 316 L 26.67x3.91mm             
140720080101010056          TUBO A-213 TP316 L п 3/4"xBWG9               
150720080101010056          Tubo A-213 TP316 L п 3/4"xBWG9               
010120060101010057          Tubo AISI S/C 316 L 48.26x5.08mm             
140720080101010057          TUBO A-312 TP316 L SCH XS п 1 1/2"           
150720080101010057          Tubo A-312 TP316 L SCH XS п 1 1/2"           
170720080101010057          Tubo A-312 TP316 L SCH XS пN 1 1/2"          
010120060101010058          Tubo AISI C/C 316 L 60.33x91mmmm             
140720080101010058          TUBO A-249 PP316 L п 60.33x91mmmm            
150720080101010058          Tubo A-249 PP316 L п 60.33x91mmmm            
010120060101010059          Tubo AISI C/C 316 L 273.03x9.53mm            
140720080101010059          TUBO A-249 PP316 L п 273.03x9.53mm           
150720080101010059          Tubo A-249 PP316 L п 273.03x9.53mm           
010120060101010060          Tubo AISI C/C 316 L 219.03x8.18mm            
140720080101010060          TUBO A-249 PP316 L п 219.03x8.18mm           
150720080101010060          Tubo A-249 PP316 L п 219.03x8.18mm           
010120060101010061          Tubo AISI C/C 316 L 219.03x3.7mm             
140720080101010061          TUBO A-249 PP316 L п219.03x3.7mm             
150720080101010061          Tubo A-249 PP316 L п219.03x3.7mm             
010120060101010062          Tubo A-269 316 L 15.8x1.2 -  1000 mm         
130720080101010062          Tubo A-269 TP316 L п 5/8"X1.2 X1000 mm       
140720080101010062          TUBO A-269 TP316 L п 5/8"X1.2 X1000 mm       
150720080101010062          Tubo A-269 TP316 L п 5/8"X1.2 X1000 mm       
010120060101010063          Tubo A-269 316 L 15.8x1.2 -  6.096 mm        
130720080101010063          TUBO A-269 316 L п 5/8"X1.2 X6.096 mm        
140720080101010063          TUBO A-269 TP316 L п 5/8"X1.2 X6.096 mm      
150720080101010063          Tubo A-269 TP316 L п 5/8"X1.2 X6.096 mm      
010120060101010064          Tubo C/C Inox Aisi 316 L 13,72x2.24mm        
191120070101010064          Tubo 316 L 13,72 x 2.24 mm                   
130720080101010064          TUBO A-312 TP316 L SCH 40 п 1/4"             
150720080101010064          Tubo A-312 TP316 L SCH 40 п 1/4"             
170720080101010064          Tubo A-312 TP316 L SCH 40 пN 1/4"            
010120060101010065          Tubo A312-TP316L п 1/2" SCH.80               
120720080101010065          Tubo A312 TP316L SCH 80 п 1/2"               
130720080101010065          TUBO A-312 TP316L SCH 80 п 1/2"              
150720080101010065          Tubo A-312 TP316L SCH 80 п 1/2"              
170720080101010065          Tubo A-312 TP316L SCH 80 пN 1/2"             
010120060101010066          Tubo A249-316 - 3/4" BWG16 x 1524mm          
031220070101010066          Tubo A249- TP304 - 3/4" BWG16 x 1524mm       
140720080101010066          TUBO A-249 TP304 п 3/4"x1,65 x 1524mm        
150720080101010066          Tubo A-249 TP304 п 3/4"x1,65 x 1524mm        
010120060101010067          Tubo A213-316L- 5/8" BWG18 x 1300mm          
140720080101010067          Tubo A-213 316L п 5/8" XBWG18 x 1300mm       
010120060101010068          Tubo A249- TP304 - 3/4" BWG16 x 1524mm       
220420080101010068          Tubo S/C SA312-TP304 -SCH.40  п6"  x 310mm   
130720080101010068          TUBO A-312 TP304 SCH 40  п6"  x 310mm        
150720080101010068          Tubo A-312 TP304 SCH 40  п6"  x 310mm        
170720080101010068          Tubo A-312 TP304 SCH 40  пN 6"x 310mm        
010120060101010069          Tubo A312-TP304 - п8" x 1230 - SCH.80        
120720080101010069          Tubo A312 TP304 SCH 80 п8" x 1230MM          
130720080101010069          TUBO A-312 TP304 SCH 80 п8" x 1230MM         
150720080101010069          Tubo A-312 TP304 SCH 80 п8" x 1230MM         
170720080101010069          Tubo A-312 TP304 SCH 80 пN 8" x 1230MM       
010120060101010070          Tubo A312-TP304 - п1" x 160 - SCH.80         
120720080101010070          Tubo A312 TP304 SCH 80 п1" x 160 MM          
130720080101010070          TUBO A-312 TP304 SCH 80 п1" x 160 MM         
150720080101010070          Tubo A-312 TP304 SCH 80 п1" x 160 MM         
170720080101010070          Tubo A-312 TP304 SCH 80 пN 1" x 160 MM       
010120060101010071          Tubo A312-TP304 - п8" x 260 - SCH.80         
120720080101010071          Tubo A312 TP304 SCH 80 п8" x 260MM           
130720080101010071          TUBO A-312 TP304 SCH 80 п8" x 260MM          
150720080101010071          Tubo A-312 TP304 SCH 80 п8" x 260MM          
170720080101010071          Tubo A-312 TP304 SCH 80 пN 8" x 260MM        
010120060101010072          Tubo A312-TP304 - п3" x 150 - SCH.80         
120720080101010072          Tubo A312 TP304 SCH 80 п3" x 1500MM          
130720080101010072          TUBO A-312 TP304 SCH 80 п3" x 1500MM         
150720080101010072          Tubo A-312 TP304 SCH 80 п3" x 1500MM         
170720080101010072          Tubo A-312 TP304 SCH 80 пN 3" x 1500MM       
010120060101010073          Tubo A312-TP304 - п8" x 190 - SCH.80         
120720080101010073          Tubo A312 TP304 SCH 80 п8" x 190MM           
130720080101010073          TUBO A-312 TP304 SCH 80 п8" x 190MM          
150720080101010073          Tubo A-312 TP304 SCH 80 п8" x 190MM          
170720080101010073          Tubo A-312 TP304 SCH 80 пN 8" x 190MM        
010120060101010074          Tubo A-213-TP316L п5/8" x BWG16 x 1300       
080820080101010074          Tubo A-213-TP316L п5/8" x BWG16 x 1300mm     
010120060101010075          Tubo A-269-TP304 п16 x 2 x 6096              
010120060101010076          Tubo A-249-TP304 пEXT. 19,05 x 1,6 x 6096    
130720080101010076          TUBO A-249 TP304 п3/4" x 1,60 x 6096MM       
150720080101010076          Tubo A-249 TP304 п3/4" x 1,60 x 6096MM       
010120060101010077          Tubo A-312 TP 304 8" SCH 80s 1230mm          
120720080101010077          Tubo A-312 TP 304 SCH 80S п8" X 1230mm       
130720080101010077          TUBO A-312 TP 304 SCH 80S п8" X 1230mm       
150720080101010077          Tubo A-312 TP 304 SCH 80S п8" X 1230mm       
170720080101010077          Tubo A-312 TP 304 SCH 80S пN 8" X 1230mm     
010120060101010078          Tubo A-312 TP 304 8" SCH 80s 260mm           
120720080101010078          Tubo A-312 TP 304 SCH 80S п8" X260mm         
130720080101010078          TUBO A-312 TP 304 SCH 80S п8" X260mm         
150720080101010078          Tubo A-312 TP 304 SCH 80S п8" X260mm         
170720080101010078          Tubo A-312 TP 304 SCH 80S пN 8" X260mm       
010120060101010079          Tubo A-312 TP 304 8" SCH 80s 190mm           
120720080101010079          Tubo A-312 TP 304 SCH 80S п8" X190mm         
130720080101010079          TUBO A-312 TP 304 SCH 80S п8" X190mm         
150720080101010079          Tubo A-312 TP 304 SCH 80S п8" X190mm         
170720080101010079          Tubo A-312 TP 304 SCH 80S пN 8" X190mm       
010120060101010080          Tubo A-312 TP 304 3" SCH 80s 150mm           
120720080101010080          Tubo A-312 TP 304 SCH 80S п3" X150mm         
130720080101010080          TUBO A-312 TP 304 SCH 80S п3" X150mm         
150720080101010080          Tubo A-312 TP 304 SCH 80S п3" X150mm         
170720080101010080          Tubo A-312 TP 304 SCH 80S пN 3" X150mm       
010120060101010081          Tubo A-312 TP 304 1" SCH 80s 160mm           
120720080101010081          Tubo A-312 TP 304 SCH 80S п1" X160mm         
130720080101010081          TUBO A-312 TP 304 SCH 80S п1" X160mm         
150720080101010081          Tubo A-312 TP 304 SCH 80S п1" X160mm         
170720080101010081          Tubo A-312 TP 304 SCH 80S пN 1" X160mm       
151120080101010081          Tubo A-312 TP 304 SCH 80 пN 1" X160mm        
010120060101010082          Tubo NBR-5597 A-312-TP304 пN.2"x6000x3,50mm p
150720080101010082          Tubo A-312 TP304 SCH 40 п 2"x 6000MM         
170720080101010082          Tubo A-312 TP304 SCH 40  пN 2"x 6000MM       
010120060101010083          Tubo NBR-5597 A-312-TP304 пN.3/4"x6000x2,50mm
150720080101010083          Tubo A-312 TP304 SCH 40 п 3/4"x 6000MM       
170720080101010083          Tubo A-312 TP304 SCH 40 пN 3/4"x 6000MM      
010120060101010084          Tubo S/C A-312 -TP304 п 8" x1230 SCH.80S     
130720080101010084          TUBO A-312 TP304 SCXH 80S п 8" x1230         
140720080101010084          TUBO A-312 TP304 SCH 80S п 8" x1230          
150720080101010084          Tubo A-312 TP304 SCH 80S п 8" x1230          
170720080101010084          Tubo A-312 TP304 SCH 80S пN 8" x1230         
010120060101010085          Tubo S/C A-312 -TP304 п 8" x260 SCH.80S      
130720080101010085          TUBO A-312 TP304 SCH 80S п 8" x260MM         
150720080101010085          Tubo A-312 TP304 SCH 80S п 8" x260MM         
170720080101010085          Tubo A-312 TP304 SCH 80S пN 8" x260MM        
010120060101010086          Tubo S/C A-312 -TP304 п 8" x190 SCH.80S      
130720080101010086          TUBO A-312 TP304 SCH 80S п 8" x190MM         
150720080101010086          Tubo A-312 TP304 SCH 80S п 8" x190MM         
170720080101010086          Tubo A-312 TP304 SCH 80S пN 8" x190MM        
010120060101010087          Tubo S/C A-312 -TP304 п 1" SCH.80S           
120720080101010087          Tubo A-312 TP304 SCH 80S п 1"                
130720080101010087          TUBO A-312 TP304 SCH 80S п 1"                
150720080101010087          Tubo A-312 TP304 SCH 80S п 1"                
170720080101010087          Tubo A-312 TP304 SCH 80S пN 1"               
010120060101010088          Tubo S/C A-312 -TP316L  п 3" x 150SCH.80S    
130720080101010088          TUBO A-312 TP316L SCH 80S  п 3" x 150MM      
150720080101010088          Tubo A-312 TP316L SCH 80S  п 3" x 150MM      
170720080101010088          Tubo A-312 TP316L SCH 80S  пN 3" x 150MM     
010120060101010089          Tubo S/C A-312 -TP316L  п 3" SCH.80S         
130720080101010089          TUBO A-312 TP316L SCH 80S п 3"               
150720080101010089          Tubo A-312 TP316L SCH 80S п 3"               
170720080101010089          Tubo A-312 TP316L SCH 80S пN 3"              
010120060101010090          Tubo S/C A-312 -TP304 п 2" SCH.80            
130720080101010090          TUBO A-312 TP304 SCH 80 п 2"                 
150720080101010090          Tubo A-312 TP304 SCH 80 п 2"                 
170720080101010090          Tubo A-312 TP304 SCH 80 пN 2"                
010120060101010091          Tubo S/C A-312 -TP304 п 2" SCH.160           
120720080101010091          Tubo A-312 TP304 SCH 160 п 2"                
130720080101010091          TUBO A-312 TP304 SCH 160 п 2"                
150720080101010091          Tubo A-312 TP304 SCH 160 п 2"                
170720080101010091          Tubo A-312 TP304 SCH 160 пN 2"               
010120060101010092          Tubo S/C A-312 -TP304 п 2" SCH.40            
120720080101010092          Tubo A-312 TP304 SCH 40  2'                  
130720080101010092          TUBO A-312 TP304 SCH 40  2'                  
150720080101010092          Tubo A-312 TP304 SCH 40  2'                  
170720080101010092          Tubo A-312 TP304 SCH 40  пN 2'               
010120060101010093          Tubo S/C A-312 -TP304 п 3/8" SCH.40          
130720080101010093          TUBO A-312 TP304 SCH 40  п 3/8"              
150720080101010093          Tubo A-312 TP304 SCH 40  п 3/8"              
170720080101010093          Tubo A-312 TP304 SCH 40  пN 3/8"             
010120060101010094          Tubo S/C A-312 -TP304 - 60,33 x 40 Int. x 200
120720080101010094          Tubo A-312 TP304 SCH 160 2.1/2" x 2000mm     
130720080101010094          TUBO A-312 TP304 SCH 160 2.1/2" x 2000mm     
140720080101010094          TUBO A-312 TP304 SCH 160 п 2.1/2" x 2000mm   
150720080101010094          Tubo A-312 TP304 SCH 160 п 2.1/2" x 2000mm   
170720080101010094          Tubo A-312 TP304 SCH 160 пN 2.1/2" x 2000mm  
010120060101010095          Tubo A-312 TP304 SCH 40S пN 4" x 370mm       
010120060101010096          Tubo A-240 304 Quadrado 80 x80 x 3,6mm       
010120060101010097          Tubo 316L  SCH.40 пN. 3/4" x 6000mm          
010120060101010098          Tubo A-312-TP-304L  SCH.40 пN. 1/2" x 6000mm 
010120060101010099          Tubo A-249-TP304 пE. 3/4" BWG14 x 6096mm     
011220080101010099          Tubo A-249-TP304 пE.19,05 BWG14 x 6096mm     
010120060101010100          Tubo A-312-TP-304L   пN. 8" x 4000mm         
010120060101010101          Tubo A-249-TP316L п19,05 x BWG14 x 6096mm    
010120060101010102          Tubo A-312 TP304 п2.1/2" x 3000mm            
010120060101010103          Tubo A-312-TP-304L   пN. 8" 80x 3000mm       
010120060101010104          Tubo C/C A-312-TP-316L  SCH.10S пN.3/8"x 6000
010120060101010105          Tubo C/C A-312-TP-316L  SCH.40S пN.1/2"x 6000
160520050101020000          Tubo Aуo Carono                              
170520050101020000          Tubo Aуo Carbono                             
120820080101020000          Tubo Aуo Carbono A-106                       
170520050101020001          Tubo A-106-B-SCH.40-10"                      
150820050101020001          Tubo A-106-B 10" SCH 40                      
120720080101020001          Tubo A-106 GR.B SCH 40 п10"                  
140720080101020001          Tubo A-106 GR.B SCH 40 п 10"                 
170720080101020001          Tubo A-106 GR.B SCH 40 пN 10"                
210720080101020001          Tubo A-106 GR.B SCH.40 пN 10" x 1600mm       
170520050101020002          Tubo A-106-B-SCH.80-8"                       
150820050101020002          Tubo A-106-B 8" SCH 80                       
141120070101020002          Tubo A-106-B  SCH-40 - 8" x 303mm            
140520080101020002          Tubo A-106-B  SCH-40 - 8" x 200mm            
120720080101020002          Tubo A-106 GR.B SCH 40  п8" x 200mm          
140720080101020002          Tubo A-106 GR.B SCH 40  п 8" x 200mm         
170720080101020002          Tubo A-106 GR.B SCH 40  пN 8" x 200mm        
170520050101020003          Tubo A-106-B-SCH.80-6"                       
150820050101020003          Tubo A-106-B 6" SCH.80                       
120720080101020003          Tubo A-106 GR.B SCH 80 п 6"                  
170720080101020003          Tubo A-106 GR.B SCH 80 пN 6"                 
170520050101020004          Tubo A-106-B SCH.160-2"                      
150820050101020004          Tubo A-106-B 2" SCH.160                      
031220070101020004          Tubo A-106-B S/C  2" SCH.160                 
120720080101020004          Tubo A-106 GR.B SCH 160 п 2"                 
170720080101020004          Tubo A-106 GR.B SCH 160 пN 2"                
250720080101020004          Tubo A-106 GR.B SCH 160 пN 2" x 278mm        
170520050101020005          Tubo A-106-B-SCH.160-3"                      
150820050101020005          Tubo A-106-B 3" SCH 160                      
120720080101020005          Tubo A-106 GR.B SCH 160 п3"                  
140720080101020005          Tubo A-106 GR.B SCH 160 п 3"                 
170720080101020005          Tubo A-106 GR.B SCH 160 пN 3"                
170520050101020006          Tubo A-106-B SCH.XXS-1"                      
121120070101020006          Tubo A-106-GR.B SCH.XXS-1" x 140mm           
120720080101020006          Tubo A-106 GR.B SCH.XXS п1" x 140mm          
140720080101020006          Tubo A-106 GR.B SCH XXS п 1" x 140mm         
170720080101020006          Tubo A-106 GR.B SCH XXS пN 1" x 140mm        
170520050101020007          Tubo A-106-B SCH.XXS-3/4"                    
120720080101020007          Tubo A-106 GR.B SCH XXS п3/4"                
140720080101020007          Tubo A-106 GR.B SCH XXS п 3/4"               
170720080101020007          Tubo A-106 GR.B SCH XXS пN 3/4"              
170520050101020008          Tubo A-106-B SCH.80-1 1/2"                   
131020060101020008          CANC-Tubo A-106-B SCH.80-1 1/2"              
250720080101020008          Tubo  A-106 GR.B SCH 80 пN1 1/2" -Canc.      
170520050101020009          Tubo A-106-B SCH.40-1 1/2"                   
150820050101020009          Tubo A-106-B 1 1/2" SCH 40                   
120720080101020009          Tubo A-106 GR.B SCH 40 п1 1/2"               
140720080101020009          Tubo A-106 GR.B SCH 40 п 1 1/2"              
170720080101020009          Tubo A-106 GR.B SCH 40  пN 1 1/2"            
060620050101020010          Tubo A-106-B SCH.80-3"                       
150820050101020010          Tubo A-106-B 3" SCH 80                       
120720080101020010          Tubo A-106 GR.B SCH 80 п3"                   
140720080101020010          Tubo A-106 GR.B SCH 80 п 3"                  
170720080101020010          Tubo A-106 GR.B SCH 80 пN 3"                 
180620050101020011          Tubo A-106B XXS-M-4"                         
120720080101020011          Tubo A-106 GR.B XXS п4"                      
130720080101020011          Tubo A-106 GR.B SCH XXS п4"                  
140720080101020011          Tubo A-106 GR.B SCH XXS п 4"                 
170720080101020011          Tubo A-106 GR.B SCH XXS пN 4"                
010720050101020012          Tubo A-106B-6" -SCH-40-x205                  
150820050101020012          Tubo A-106-B 6" SCH 40                       
140520080101020012          Tubo A-106-B 6" SCH 40 x 200mm               
120720080101020012          Tubo A-106 GR.B SCH 40 п6" x 200mm           
140720080101020012          Tubo A-106 GR.B SCH 40 п 6" x 200mm          
170720080101020012          Tubo A-106 GR.B SCH 40 пN 6" x 200mm         
010720050101020013          Tubo A-106-B-2" SCH40x80                     
150820050101020013          Tubo A-106-B 2" SCH 40                       
121120070101020013          Tubo A-106-GR.B 2" SCH 40 x 65mm             
120720080101020013          Tubo A-106 GR.B  SCH 40  п2" x 65mm          
140720080101020013          Tubo A-106 GR.B  SCH 40  п 2" x 65mm         
170720080101020013          Tubo A-106 GR.B  SCH 40  пN 2" x 65mm        
010720050101020014          Tubo A-106-B 1 1/2 SCH 80x205                
150820050101020014          Tubo A-106-B 1 1/2" SCH 80                   
120720080101020014          Tubo A-106 GR.B SCH 80 п1 1/2"               
140720080101020014          Tubo A-106 GR.B SCH 80 п 1 1/2"              
170720080101020014          Tubo A-106 GR.B SCH 80 пN 1 1/2"             
010720050101020015          Tubo A-106-B 2" SCH 160x100                  
150820050101020015          Tubo A-106-B 2" SCH 160                      
121120070101020015          Tubo A-106-GR.B 2" SCH 160 x 85mm            
191120070101020015          Tubo A-106-GR.B 2" SCH 160                   
261120070101020015          Tubo S/C  A-106-GR.B 2" x 8000mm  SCH 160    
120720080101020015          Tubo A-106 GR.B SCH 160 п2"x 8000mm          
140720080101020015          Tubo A-106 GR.B SCH 160 п 2"x 8000mm         
170720080101020015          Tubo A-106 GR.B SCH 160 пN 2"x 8000mm        
010720050101020016          Tubo A-106-B 1" SCH 160x680                  
150820050101020016          Tubo A-106-B 1" SCH 160                      
120720080101020016          Tubo A-106 GR.B SCH 160 п1"                  
140720080101020016          Tubo A-106 GR.B SCH 160 п 1"                 
170720080101020016          Tubo A-106 GR.B SCH 160 пN 1"                
010720050101020017          Tubo A-106-B 6" SCH 80x135                   
150820050101020017          Tubo A-106-B 6" SCH 80                       
261120070101020017          Tubo A-106-B SCH 80 3/4"                     
120720080101020017          Tubo A-106 GR.B SCH 80 п3/4"                 
140720080101020017          Tubo A-106 GR.B SCH 80 п 3/4"                
170720080101020017          Tubo A-106 GR.B SCH 80 пN 3/4"               
010720050101020018          Tubo A-106-B 2" SCH 160x780                  
150820050101020018          Tubo A-106-B 2" SCH 160                      
301020070101020018          Tubo A-106-B 2" SCH 80                       
201220070101020018          Tubo A-106-B SCH 40 п 2"                     
120720080101020018          Tubo A-106 GR.B SCH 40 п 2"                  
170720080101020018          Tubo A-106 GR.B SCH 40 пN 2"                 
220720050101020019          Tubo A-106-B-12"-STD                         
150820050101020019          Tubo A-106-B 12" STD                         
120720080101020019          Tubo A-106 GR.B STD п12"                     
140720080101020019          Tubo A-106 GR.B STD п 12"                    
170720080101020019          Tubo A-106 GR.B STD пN 12"                   
220720050101020020          Tubo A-106-B-SCH.80-4"                       
150820050101020020          Tubo A-106-B 4" SCH 80                       
120720080101020020          Tubo A-106 GR.B SCH 80 п4"                   
140720080101020020          Tubo A-106 GR.B SCH 80 п 4"                  
170720080101020020          Tubo A-106 GR.B SCH 80 пN 4"                 
250720080101020020          Tubo A-106 GR.B SCH 80 пN 4" x 310mm         
150820050101020021          Tubo A-106-B 1 1/2" SCH 160                  
090820070101020021          Tubo A-106-B 1" SCH 160                      
210820070101020021          Tubo A-106-B 1 1/4"                          
120720080101020021          Tubo A-106 GR.B SCH 40 п 1 1/4"              
170720080101020021          Tubo A-106 GR.B SCH 40 пN 1 1/4"             
150820050101020022          Tubo A-106-B 4" SCH 40                       
271120070101020022          Tubo A-106-B 4" SCH 40 (945)                 
060520080101020022          Tubo A-106-B 4" SCH 40 x 600                 
120720080101020022          Tubo A-106 GR.B SCH 40 п4" x 600MM           
140720080101020022          Tubo A-106 GR.B SCH 40 п 4" x 600MM          
170720080101020022          Tubo A-106 GR.B SCH 40 пN 4" x 600MM         
151120080101020022          Tubo A-106 GR.B SCH 40 пN 4"                 
150820050101020023          Tubo A-106-B 3" SCH 40                       
131020060101020023          Tubo A-106-B SCH 40-3"                       
251020060101020023          Tubo A-106-B 3"-SCH 40                       
140520080101020023          Tubo A-106-B 3"-SCH 40 x 200mm               
120720080101020023          Tubo A-106 GR.B SCH 40 п3"x 200mm            
140720080101020023          Tubo A-106 GR.B SCH 40 п 3"x 200mm           
170720080101020023          Tubo A-106 GR.B SCH 40 пN 3"x 200mm          
150820050101020024          Tubo A-106-B 3/4" SCH 160                    
200620070101020024          Tubo A-106-B 3/4" SCH 40                     
290620070101020024          Tubo  A-214 19,05 x 2,11 x 6.096mm           
130720080101020024          TUBO A-214 CARBONO п 3/4'x BWG14x 6.096mm    
150720080101020024          Tubo A-214 Carbono п 3/4'x BWG14 x 6.096mm   
080820080101020024          Tubo  A-214 Carbono п 3/4'x BWG14 x 6.096mm  
220920050101020025          Tubo A-106-B 4" SCH 160                      
141120070101020025          Tubo A-106-B  SCH 160 - 4" x 100mm           
120720080101020025          Tubo A-106 GR.B  SCH 160 п 4" x 100mm        
170720080101020025          Tubo A-106 GR.B  SCH 160 пN 4" x 100mm       
220920050101020026          Tubo A-106-B 5" SCH 40                       
120720080101020026          Tubo A-106 GR.B SCH 40  п 5"                 
170720080101020026          Tubo A-106 GR.B SCH 40  пN 5"                
220920050101020027          Tubo A-106-B 2 1/2" XXS-M                    
121120070101020027          Tubo A-106-GR.B 1 1/2"  SCH.XXS x 128mm      
120720080101020027          Tubo A-106 GR.B SCH XXS п1 1/2" x 128mmm     
140720080101020027          Tubo A-106 GR.B SCH XXS п 1 1/2" x 128mmm    
170720080101020027          Tubo A-106 GR.B SCH XXS пN 1 1/2" x 128mmm   
211120050101020028          Tubo A-53 c/costura SCH.40 - 3/4"            
191120070101020028          Tubo A-53  SCH.40 - 3/4"                     
280520080101020028          Tubo A-106/API5L/A53 - 2" Sch.80 x 10000mm   
120720080101020028          Tubo A-106 GR.B SCH 80  п2" x 10000mm        
140720080101020028          Tubo A-106 GR.B SCH 80  п 2" x 10000mm       
170720080101020028          Tubo A-106 GR.B SCH 80  пN 2" x 10000mm      
010120060101020029          Tubo A-214 -пE 5/8" x BWG 14                 
130720080101020029          TUBO A-214 CARBONO п 5/8" x BWG 14           
140720080101020029          TUBO A-214 CARBONO п 5/8" x BWG14            
150720080101020029          Tubo A-214 Carbono п 5/8" x BWG14            
010120060101020030          Tubo A-106B SCH 40-2 1/2"                    
141120070101020030          Tubo A-106B SCH 40- 2 1/2" x 700mm           
120720080101020030          Tubo A-106 GR.B SCH 40 п 2 1/2" x 700mm      
170720080101020030          Tubo A-106 GR.B SCH 40 пN 2 1/2" x 700mm     
010120060101020031          Tubo A-106B SCH 80-3/4"                      
210820070101020031          Tubo A-106B 3/4"                             
301020070101020031          Tubo A-106B 3/4" SCH.40                      
091120070101020031          Tubo A-106B 3/4" SCH.160                     
121120070101020031          Tubo A-106B 3/4" SCH.160 x 200mm             
141120070101020031          Tubo A-106B 3/4" SCH.160                     
120720080101020031          Tubo A-106 GR.B SCH 160 п 3/4"               
170720080101020031          Tubo A-106 GR.B SCH 160  пN 3/4"             
010120060101020032          Tubo A-106-B SCH.80-1 1/2"                   
120720080101020032          Tubo A-106 GR.B SCH.80 п1 1/2"               
130720080101020032          Tubo A-106 GR.B SCH 80 п1 1/2"               
140720080101020032          Tubo A-106 GR.B SCH 80 п 1 1/2"              
170720080101020032          Tubo A-106 GR.B SCH 80 пN 1 1/2"             
010120060101020033          Tubo A-106B SCH 80-2"                        
231020060101020033          Tubo  A-106B 2" SCH 80                       
301120070101020033          Tubo  A-106B 2" п SCH 80                     
120720080101020033          Tubo  A-106 GR.B SCH 80  п 2"                
130720080101020033          Tubo A-106 GR.B  SCH 80  п 2"                
170720080101020033          Tubo A-106 GR.B  SCH 80  пN 2"               
010120060101020034          Tubo DIN 2440- 1"                            
140720080101020034          Tubo DIN 2440 п 1"                           
150720080101020034          Tubo Din 2440 п 1"                           
170720080101020034          Tubo Din 2440 пN 1"                          
010120060101020035          Tubo A-179/05 19,05 mm                       
130720080101020035          TUBO A-179/05 п 3/4'                         
150720080101020035          Tubo A-179/05 п 3/4'                         
010120060101020036          Tubo A-106-B 16" Sch.80                      
120720080101020036          Tubo A-106 GR.B SCH 80 п16"                  
140720080101020036          Tubo A-106 GR.B SCH 80 п 16"                 
170720080101020036          Tubo A-106 GR.B SCH 80 пN 16"                
010120060101020037          Tubo A-106-B SCH.XXS-1 1/2"                  
121120070101020037          Tubo A-106-GR.B SCH.XXS-1 1/2" x 205         
120720080101020037          Tubo A-106 GR.B SCH XXS п1 1/2"x205MM        
140720080101020037          Tubo A-106 GR.B SCH XXS п 1 1/2"x205MM       
170720080101020037          Tubo A-106 GR.B SCH XXS пN 1 1/2"x205MM      
010120060101020038          Tubo A-106-B SCH.XXS-1 1/2"                  
230120070101020038          Tubo A-333 - P6 1.1/2" SCH 160               
140720080101020038          Tubo A-333 P6 SCH 160 п 1.1/2"               
170720080101020038          Tubo A-333 P6 SCH 160 пN 1.1/2"              
010120060101020039          Tubo A-333 - P6 2" SCH 160                   
140720080101020039          Tubo A-333 P6 SCH 160 п 2"                   
170720080101020039          Tubo A-333 P6 SCH 160 пN 2"                  
010120060101020040          Tubo A-333 - P6 6" SCH 80                    
140720080101020040          Tubo A-333 P6 SCH 80 п 6"                    
170720080101020040          Tubo A-333 P6 SCH 80 пN 6"                   
010120060101020041          Tubo A-106-B SCH.XXS-2"                      
120720080101020041          Tubo A-106 GR.B SCH.XXS п2"                  
140720080101020041          Tubo A-106 GR.B SCH XXS п 2"                 
170720080101020041          Tubo A-106 GR.B SCH XXS пN 2"                
010120060101020042          Tubo A-106-B 1" SCH.40                       
121120070101020042          Tubo A-106-GR.B 1" SCH.40 x 1350mm           
191120070101020042          Tubo A-106-GR.B 1" SCH.40                    
120720080101020042          Tubo A-106 GR.B SCH 40  п1"                  
140720080101020042          Tubo A-106 GR.B SCH 40  п 1"                 
170720080101020042          Tubo A-106 GR.B SCH 40  пN 1"                
010120060101020043          Tubo A-106-B 8" SCH 40                       
170520070101020043          Tubo A-106B 8" SCH 40                        
121120070101020043          Tubo A-106-GR.B 8" SCH 40                    
141120070101020043          Tubo A-106-GR.B  SCH 40  - 8" x 206mm        
120720080101020043          Tubo A-106 GR.B  SCH 40   п8" x 206mm        
140720080101020043          Tubo A-106 GR.B  SCH 40   п 8" x 206mm       
170720080101020043          Tubo A-106 GR.B  SCH 40   пN 8" x 206mm      
010120060101020044          Tubo A-106-B 20" SCH 20                      
170520070101020044          Tubo A-106-B 20" SCH 20                      
120720080101020044          Tubo A-106 GR.B SCH 20  п20"                 
140720080101020044          Tubo A-106 GR.B SCH 20  п 20"                
170720080101020044          Tubo A-106 GR.B SCH 20  пN 20"               
210720080101020044          Tubo A-106 GR.B SCH 20  пN 20"X1950MM        
010120060101020045          Tubo 106-B- SA 1 1/2"x Sch.XS x 203          
141120070101020045          Tubo 106-B- SA 1 1/2"x Sch.XXS-M x 128mm     
120720080101020045          Tubo A-106 GR.B SCH XXS п1 1/2" x 128mm      
140720080101020045          Tubo A-106 GR.B SCH XXS п 1 1/2" x 128mm     
170720080101020045          Tubo A-106 GR.B SCH XXS пN 1 1/2" x 128mm    
010120060101020046          Tubo Flexivel п 2" x 450mm                   
150520070101020046          Tubo SAE1020 п 1"x2,65x6000mm                
150720080101020046          Tubo A-214 Carbono п 1"xBWG12 x 000MM        
010120060101020047          Tubo Flexivel п 2" x 530mm                   
140720080101020047          Tubo Flexivel  AISI 304 п 2" x 530mm         
020820080101020047          Tubo  Flexivel  AISI 304 п 2" x 530mm        
010120060101020048          Tubo Flexivel п 2" x 850mm                   
010120060101020049          Tubo Flexivel п 2" x 950mm Inox              
140720080101020049          Tubo Flexivel AISI 304 п 2" x 950mm          
010120060101020050          Tubo Flexivel п 3/4" x 150mm Inox            
090820070101020050          Tubo A-106 SCH 160 п1 1/2"x4500mm            
120720080101020050          Tubo A-106 GR.B SCH 160 п1 1/2"x4500mm       
140720080101020050          Tubo A-106 GR.B SCH 160 п 1 1/2"x4500mm      
170720080101020050          Tubo A-106 GR.B SCH 160 пN 1 1/2"x4500mm     
010120060101020051          Tubo Flexivel п 3/4" x 200mm Inox            
090820070101020051          Tubo A-106 SCH 100 п 8"x100mm                
120720080101020051          Tubo A-106 GR.B SCH 100 п 8"x100mm           
170720080101020051          Tubo A-106 GR.B SCH 100 пN 8"x100mm          
010120060101020052          Tubo 1045 п 25,4x2,65x6000mm                 
210820070101020052          Tubo 2440 Red 1 1/4"                         
130720080101020052          TUBO DIN 2440  1 1/4"X3,25                   
140720080101020052          TUBO DIN 2440 п 1 1/4"X3,25                  
150720080101020052          Tubo Din 2440 п 1 1/4"                       
170720080101020052          Tubo Din 2440 пN 1 1/4"                      
210720080101020052          Tubo A-106 GR.B SCH.20  пN 24" x 1950mm      
181120080101020052          Tubo A-106 GR.B SCH.20  пN 24" x 500mm       
010120060101020053          Tubo 2440 Red 3/4'                           
120520080101020053          Tubo DIN 2440 п4' x 6000mm                   
150720080101020053          Tubo Din 2440 п4'                            
170720080101020053          Tubo Din 2440 пN 4'                          
010120060101020054          Tubo DIN 2440- 1"                            
051120070101020054          Tubo DIN 2440-1"                             
270520080101020054          Tubo DIN 2440-1 1/2"                         
140720080101020054          TUBO DIN 2440 п 1 1/2"                       
150720080101020054          Tubo Din 2440 п 1 1/2"                       
170720080101020054          Tubo Din 2440 пN 1 1/2"                      
010120060101020055          Tubo A-53 RR  1.1/2"                         
140720080101020055          Tubo A-53 RR SCH 40 п 1.1/2"                 
170720080101020055          Tubo A-53 RR SCH 40 пN 1.1/2"                
010120060101020056          Tubo A-106 SCH 40 п2" (3.91x3000)            
111220070101020056          Tubo A-106 SCH 40 п2"                        
120720080101020056          Tubo A-106 GR.B SCH 40 п2"                   
140720080101020056          Tubo A-106 GR.B SCH 40 п 2"                  
170720080101020056          Tubo A-106 GR.B SCH 40 пN 2"                 
010120060101020057          Tubo A-53 S/C SCH 40 6" (7.11x5000)          
140720080101020057          Tubo A-53 S/C SCH 40 п 6"x5000MM             
170720080101020057          Tubo A-53 S/C SCH 40 пN 6"x5000MM            
151120080101020057          Tubo A-53 GR.B S/C SCH 40 пN 6"              
010120060101020058          Tubo A-53 S/C SCH 40 3"  (5.49x200)          
201220070101020058          Tubo A-53 S/C SCH 40 п 3"                    
170720080101020058          Tubo A-53 S/C SCH 40 пN 3"                   
151120080101020058          Tubo A-53 GR.B S/C SCH 40 пN 3"              
010120060101020059          Tubo A-53 C/C SCH 80 1/2"  (3.73)            
020120080101020059          Tubo A-53 C/C SCH 40 1/2"  (3.73)            
140720080101020059          Tubo A-53 C/C SCH 40 п 1/2"                  
170720080101020059          Tubo A-53 C/C SCH 40 пN 1/2"                 
151120080101020059          Tubo A-53 C/C SCH 80 пN 1/2"                 
010120060101020060          Tubo API C/C SCH 40 8" (8.18)                
140720080101020060          TUBO API 5LP C/C SCH 40 п 8"                 
150720080101020060          Tubo Api 5lLP c/c Sch 40 п 8"                
170720080101020060          Tubo Api 5lLP c/c Sch 40 пN 8"               
151120080101020060          Tubo API-5L GR.B C/C SCH 40 пN 8"            
010120060101020061          Tubo A-106 SCH 80 1/2" (3.73)                
201220070101020061          Tubo A-106 SCH 80 1/2"                       
120720080101020061          Tubo A-106 GR.B SCH 80 п1/2"                 
140720080101020061          Tubo A-106 GR.B SCH 80 п 1/2"                
170720080101020061          Tubo A-106 GR.B SCH 80 пN 1/2"               
010120060101020062          Tubo A-106 SCH 80 1/4" (3.02)                
201220070101020062          Tubo A-106 SCH 80 п 1/4"                     
120720080101020062          Tubo A-106 GR.B SCH 80 п 1/4"                
170720080101020062          Tubo A-106 GR.B SCH 80 пN 1/4"               
010120060101020063          Tubo A-106-B 4" SCH 40 (200)                 
120720080101020063          Tubo A-106 GR.B SCH 40 п4" X 200MM           
140720080101020063          Tubo A-106 GR.B SCH 40 п 4" X 200MM          
170720080101020063          Tubo A-106 GR.B SCH 40 пN 4" X 200MM         
010120060101020064          Tubo Retangular 50x30x1.50                   
150720080101020064          Tubo Retangular Sae 1020 50 x 30x1.50mm      
170720080101020064          Tubo A-36 Retangular 50 x 30x1.50mm          
010120060101020065          Tubo s/c A-106 - GR.B 16" x 600mm SCH.80-M BI
120720080101020065          Tubo A-106 GR.B  SCH 80 п16" x 600mm         
140720080101020065          Tubo A-106 GR.B  SCH 80 п 16" x 600mm        
170720080101020065          Tubo A-106 GR.B  SCH 80 пN 16" x 600mm       
010120060101020066          Tubo Retangular 40 x 20 x 1,20               
150720080101020066          Tubo Retangular Sae 1020 40 x 20 x 1,20mm    
170720080101020066          Tubo  A-36 Retangular 40 x 20 x 1,20mm       
010120060101020067          Tubo Redondo SAE-1020 - 1.3/4" x 1,90        
150720080101020067          Tubo A-214 Carbono п 1 3/4" XBWG14           
151020080101020067          Tubo Quadrado 1/2" x 3.000mm                 
010120060101020068          Tubo Redondo 1.1/2" x 1,90                   
150720080101020068          Tubo A-214 Carbono п1.1/2" x BWG14           
010120060101020069          Tubo Redondo 2" x 2,65                       
270520080101020069          Tubo Redondo 2" x 2 x 6000mm                 
150720080101020069          Tubo A-214 Carbono п 2" x BWG14              
010120060101020070          Tubo Quadrado 50 x50 x1,90                   
150720080101020070          Tubo Quadrado Sae 1020 50 x50 x1,90mm        
170720080101020070          Tubo  A-36 Quadrado 50 x50 x1,90mm           
010120060101020071          Tubo Quadrado AISI-304  80 x80 x 3,6 esp     
150720080101020071          Tubo Quadrado Aisi 304  80 x80 x 3,6mm       
170720080101020071          Tubo A-240 304 Quadrado 80 x80 x 3,6mm       
010120060101020072          Tubo A-214 - 19,05 x 2,11 x 6096mm           
130720080101020072          Tubo A-214 CARBONO п 3/4" x BWG14 x 6096mm   
150720080101020072          Tubo A-214 Carbono п 3/4" x BWG14 x 6096mm   
010120060101020073          Tubo A-106-B пN.10" SCH. XS x 6000mm         
120720080101020073          Tubo A-106 GR.B SCH XS п10" x 6000mm         
140720080101020073          Tubo A-106 GR.B SCH XS п 10" x 6000mm        
170720080101020073          Tubo A-106 GR.B SCH XS пN 10" x 6000mm       
010120060101020074          Tubo Retangular 40 x 30 x 1,50               
150720080101020074          Tubo Retangular Sae 1020 40 x 30 x 1,50mm    
170720080101020074          Tubo  A-36 Retangular 40 x 30 x 1,50mm       
010120060101020075          Tubo Quadrado  100 x 100 x 4,75              
150720080101020075          Tubo Quadrado Sae 1020 100 x 100 x 4,75mm    
170720080101020075          Tubo  A-36 Quadrado 100 x 100 x 4,75mm       
010120060101020076          Tubo Retangular 80 x 40 x 3,00               
150720080101020076          Tubo Retangular Sae 1020 80 x 40 x 3,00mm    
170720080101020076          Tubo  A-36 Retangular 80 x 40 x 3,00mm       
010120060101020077          Tubo 2440 3x4,05                             
130720080101020077          TUBO DIN 2440 п3"x4,05                       
150720080101020077          Tubo Din 2440 п3"                            
170720080101020077          Tubo Din 2440 пN 3"                          
010120060101020078          Tubo Quadrado 60 x 60 x 4,75                 
150720080101020078          Tubo Quadrado Sae 1020 60 x 60 x 4,75mm      
170720080101020078          Tubo  A-36 Quadrado 60 x 60 x 4,75mm         
010120060101020079          Tubo Retangular 60 x 40 x 4,75               
150720080101020079          Tubo Retangular Sae 1020 60 x 40 x 4,75mm    
170720080101020079          Tubo  A-36 Retangular 60 x 40 x 4,75mm       
010120060101020080          Tubo Retangular 35 x 15 x 2,00               
150720080101020080          Tubo Retangular Sae 1020 35 x 15 x 2,00mm    
170720080101020080          Tubo  A-36 Retangular 35 x 15 x 2,00mm       
010120060101020081          Tubo Redondo 1.1/4" x 1,500mm                
150720080101020081          Tubo A-214 Carbono п 1.1/4" xBWG16 X1.500mm  
010120060101020082          Tubo 1020 Redondo 1/2"                       
130720080101020082          TUBO SAE1020 REDONDO 1/2"                    
150720080101020082          Tubo A-214 Carbono п 1/2"XBWG16              
010120060101020083          Tubo SAE-1020 пN.3" x 215 SCH.160            
150720080101020083          Tubo A-106 GR.B SCH 160  п3" x 215MM         
170720080101020083          Tubo A-106 GR.B SCH 160  пN 3" x 215MM       
010120060101020084          Tubo SAE-1020 пN.5" x 110 SCH.160            
150720080101020084          Tubo A-106 GR.B SCH160 п5" x 110MM           
170720080101020084          Tubo A-106 GR.B SCH160 пN 5" x 110MM         
010120060101020085          Tubo A-106 GR.B SCH 160 пN 2" x 1470mm       
010120060101020086          Tubo A-106 GR.B SCH 80 пN 4" x 256mm         
010120060101020087          Tubo A-106 GR.B SCH 160 пN 2" x 2050mm       
271120080101020087          Tubo A-106 GR.B SCH. XXS пN 2" x 6000mm      
011220080101020087          Tubo A-106 GR.B SCH. XXS пN 2" x 7300mm      
010120060101020088          Tubo A-106 GR.B SCH 80 пN 4" x 850mm         
271120080101020088          Tubo A-106 GR.B SCH 80 пN 4" x 6000mm        
011220080101020088          Tubo A-106 GR.B SCH 80 пN 4" x 5040mm        
010120060101020089          Tubo A-106 GR.B SCH 40 пN 4" x 165MM         
010120060101020090          Tubo A-106 GR.B SCH 40 пN 3" x 165MM         
010120060101020091          Tubo A-106 GR.B SCH 40 пN 3/4"               
010120060101020092          Tubo A-106 GR.B SCH 40 пN 1 1/2" x 200MM     
010120060101020093          Tubo A-106 GR.B SCH 40 пN 2 1/2"x 850MM      
010120060101020094          Tubo A-106 GR.B SCH 40 пN 1/2"               
010120060101020095          Tubo A-106 GR.B SCH 80 пN 3 1/2" x 250mm ASTM
010120060101020096          Tubo NBR 5597 пN.1" x 3000mm                 
010120060101020097          Tubo A-106 GR.B пN 273,05 x 12,07 x 500mm    
010120060101020098          Tubo NBR 5580 пN.1/2" x 3000mm               
010120060101020099          Tubo NBR 5580 пN.3/4" x 3000mm               
010120060101020100          Tubo A-106 GR.B SCH XXS пN 2" x 500mm        
010120060101020101          Tubo A-106 GR.B SCH XXS пN 2" x 1000mm       
010120060101020102          Tubo A-106 GR.B SCH XXS пN 4"x500mm          
010120060101020103          Tubo A-106 GR.B SCH.20 пN 24"x300mm          
010120060101020104          Tubo A-106 GR.B SCH.20 пN 24"x100mm          
010120060101030000          Tubo em Cobre                                
010120060101030001          Tubo de cobre 3/8"  x 1/32                   
010120060101030002          Tubo ASTM B-111-706 пE15,875x1,24x1,900      
140720080101030002          Tubo ASTM B-111-706 п 5/8"x1,24x1,900MM      
150720080101030002          Tubo A-213 TP304 п 5/8"X1.900MM              
010120060101040000          Tubo Aуo Carbono (UN)                        
010120060101040001          Tubo A-106 SCH.40 4" (6,02x165)              
120720080101040001          Tubo A-106 GR.B SCH 40 п4" x 165MM           
140720080101040001          Tubo A-106 GR.B SCH 40 п 4" x 165MM          
170720080101040001          Tubo A-106 GR.B SCH 40 пN 4" x 165MM         
010120060101040002          Tubo A-106 SCH.40 8" (8.18x500)              
201220070101040002          Tubo API-5LP C/C SCH.40 п 8"                 
140720080101040002          TUBO API 5LP C/C SCH 40 п 8"                 
150720080101040002          Tubo Api 5LP c/c Sch 40 п 8"                 
170720080101040002          Tubo Api 5LP c/c Sch 40 пN 8"                
010120060101040003          Tubo A-106 SCH.40 3" (5.49x165)              
120720080101040003          Tubo A-106 GR.B SCH 40 п3" x 165MM           
140720080101040003          Tubo A-106 GR.B SCH 40 п 3" x 165MM          
170720080101040003          Tubo A-106 GR.B SCH 40 пN 3" x 165MM         
010120060101040004          Tubo A-106 SCH.40 8" (8.18x1325)             
111220070101040004          Tubo A-106 SCH.40 3/4"                       
120720080101040004          Tubo A-106 GR.B SCH 40 п3/4"                 
140720080101040004          Tubo A-106 GR.B SCH 40 п 3/4"                
170720080101040004          Tubo A-106 GR.B SCH 40 пN 3/4"               
010120060101040005          Tubo A-106 SCH.40 1.1/2" (10.16x200)         
120720080101040005          Tubo A-106 GR.B SCH 40 п1 1/2" x 200MM       
140720080101040005          Tubo A-106 GR.B SCH 40 п 1 1/2" x 200MM      
170720080101040005          Tubo A-106 GR.B SCH 40 пN 1 1/2" x 200MM     
010120060101040006          Tubo A-106 SCH.40 2.1/2" (5.16x850)          
120720080101040006          Tubo A-106 GR.B SCH 40 п2 1/2"x 850MM        
140720080101040006          Tubo A-106 GR.B SCH 40 п 2 1/2"x 850MM       
170720080101040006          Tubo A-106 GR.B SCH 40 пN 2 1/2"x 850MM      
010120060101040007          Tubo A-106 SCH40 1.1/2" (3.68x1000)          
111220070101040007          Tubo A-106 SCH40 1/2"                        
120720080101040007          Tubo A-106 GR.B SCH 40 п1/2"                 
140720080101040007          Tubo A-106 GR.B SCH 40 п 1/2"                
170720080101040007          Tubo A-106 GR.B SCH 40 пN 1/2"               
010120060101040008          Tubo A-333 P6 SCH 160 пN 1.1/2"              
010120060101040009          Tubo  A-214 Carbono п 3/4'x BWG14 x 6.096mm  
010120060101040010          Tubo A-214 Carbono п 5/8" x BWG14            
010120060101040011          Tubo Din 2440 пN 1"                          
010120060101040012          Tubo A-333 P6 SCH 160 пN 1.1/2"              
010120060101040013          Tubo A-333 P6 SCH 160 пN 2"                  
010120060101040014          Tubo A-333 P6 SCH 80 пN 6"                   
010120060101040015          Tubo A-214 Carbono п 1"xBWG12 x 000MM        
010120060101040016          Tubo Din 2440 пN 4'                          
010120060101040017          Tubo Din 2440 пN 1 1/2"                      
010120060101040018          Tubo A-53 RR SCH 40 пN 1.1/2"                
010120060101040019          Tubo A-53 S/C SCH 40 пN 6"x5000MM            
010120060101040020          Tubo A53 S/C SCH 40 пN 3"                    
010120060101040021          Tubo A-53 C/C SCH 40 пN 1/2"                 
010120060101040022          Tubo Api 5lLP c/c Sch 40 пN 8"               
010120060101040023          Tubo A-36 Retangular 50 x 30x1.50mm          
010120060101040024          Tubo  A-36 Retangular 40 x 20 x 1,20mm       
010120060101040025          Tubo A-214 Carbono п 1 3/4" XBWG14           
010120060101040026          Tubo A-214 Carbono п1.1/2" x BWG14           
010120060101040027          Tubo A-214 Carbono п 2" x BWG14              
010120060101040028          Tubo  A-36 Quadrado 50 x50 x1,90mm           
010120060101040029          Tubo A-214 Carbono п 3/4" x BWG14 x 6096mm   
010120060101040030          Tubo  A-36 Retangular 40 x 30 x 1,50mm       
010120060101040031          Tubo  A-36 Quadrado 100 x 100 x 4,75mm       
010120060101040032          Tubo  A-36 Retangular 80 x 40 x 3,00mm       
010120060101040033          Tubo Din 2440 пN 3"                          
010120060101040034          Tubo  A-36 Quadrado 60 x 60 x 4,75mm         
010120060101040035          Tubo  A-36 Retangular 60 x 40 x 4,75mm       
010120060101040036          Tubo  A-36 Retangular 35 x 15 x 2,00mm       
010120060101040037          Tubo A-214 Carbono п 1.1/4" xBWG16 X1.500mm  
010120060101040038          Tubo A-214 Carbono п 1/2"XBWG16              
010120060101040039          Tubo A-179/05 п 3/4'                         
010120060101050000          Tubo Inox Aisi 304l                          
130820080101050000          Tubo Inox A-249 Aisi 304/ 304L               
140820080101050000          Tubo Inox  Aisi 304L                         
010120060101050001          Tubo A-249 TP304L п3/4" x 2,00               
010120060101050002          Tubo A-312 TP304L SCH 40 пN 1"               
130820080101050002          Tubo A-312 TP304L SCH 40 пN 1"               
010120060101050003          Tubo A-249 TP304L п3/4" x 2,11 x 3985MM      
010120060101050004          Tubo A-249 TP304L п 3/4" x 2,00              
010120060101060000          Tubo Inox Aisi 316                           
010120060101060001          Tubo A-312 TP316 SCH 40S пN 3/4"             
010120060101070000          Tubo Inox Aisi 316l                          
010120060101070001          Tubo A-312 TP316L SCH 40 пN 4"x300mm         
010120060101070002          Tubo A-249 TP316L 3/4" x 2,00                
010120060101070003          Tubo A-312 TP316L SCH 40 пN 3/8"             
010120060101070004          Tubo A-312 TP316L SCH 40  пN 3"              
010120060101070005          Tubo A-312 TP316L SCH 40 пN 6"               
010120060101070006          Tubo A-312 TP316L SCH 40 пN 2" x 6000MM      
010120060101070007          Tubo A-312 TP316L SCH 10S пN 8" x1500MM      
010120060101070008          Tubo A-182 TP316L SCH 80 п1/2"               
010120060101070009          Tubo A-182 TP316L SCH 10 п 8"x200            
010120060101070010          Tubo A-312 TP316L SCH 80 пN 2" x150MM        
010120060101070011          Tubo A-249 TP316L. п5/8"X1,24                
010120060101070012          Tubo A-312 TP316L SCH 10S пN 10" x200MM      
010120060101070013          Tubo A-312 TP316L SCH 10S пN 10" x2350MM     
010120060101070014          Tubo A-213 TP316L п5/16 XBWG19 X 300mm       
010120060101070015          Tubo A-213 TP316L п 10 x BWG19x 300MM        
010120060101070017          Tubo A-312 TP316L SCH 40 пN 1"x 6000MM       
010120060101070018          Tubo A-312 TP316L SCH 40 пN 3" x 6000MM      
010120060101070019          Tubo A-213 TP316 L п 1/2"xBWG9               
010120060101070020          Tubo A-213 TP316 L п 3/4"xBWG9               
010120060101070021          Tubo A-312 TP316 L SCH XS пN 1 1/2"          
010120060101070022          Tubo A-249 PP316 L п 60.33x91mmmm            
010120060101070023          Tubo A-249 PP316 L п 219.03x8.18mm           
010120060101070024          Tubo A-249 PP316 L п219.03x3.7mm             
010120060101070026          Tubo A-269 TP316 L п 5/8"X1.2 X1000 mm       
010120060101070027          Tubo A-269 TP316 L п 5/8"X1.2 X1000 mm       
010120060101070028          Tubo A-312 TP316 L SCH 40 пN 1/4"            
010120060101070029          Tubo A-312 TP316L SCH 80 пN 1/2"             
010120060101070030          Tubo A-213 316L п 5/8" XBWG18 x 1300mm       
010120060101070031          Tubo A-312 TP316L SCH 80S  пN 3" x 150MM     
010120060101070032          Tubo A-312 TP316L SCH 80S пN 3"              
160520050102000000          CHAPA                                        
160520050102010000          Chapa de Aуo Inox                            
110820080102010000          Chapa de Aуo Inox Aisi 304                   
120820080102010000          Chapa de Aуo Inox A-240 Aisi 304             
130620050102010001          Chapa A-240-304 - 2"                         
270920060102010001          Chapa A-240-304 - 50,8 mm                    
100320080102010001          Chapa A-240-304 - 50,8 mm x 329mm            
280320080102010001          Chapa A-240-304 - 12,7 x 1240 x 3500         
310320080102010001          Chapa A-240-304 - 12,7 x 1500 x 3500         
160720080102010001          Chapa  A-240 304 #12,7 x 1500 x 3500MM       
150620050102010002          Chapa A-240-304- 12,7x1300x6096              
270920060102010002          Chapa A-240-304- 1/2" (un)                   
301120070102010002          Disco A-240 - 304 - 2 1/2" x 475mm           
031220070102010002          Disco A-240 - 304 - 3" x 475mm               
100320080102010002          Disco A-240 - 304 - 3" x 478mm               
290520080102010002          Disco A-240 - 304 - 3"                       
160620080102010002          Disco A-240-304 п235 x 25,4                  
250720080102010002          Chapa  A-240 304(DISCO)#25,4 x п235mm        
150620050102010003          Chapa A-240-304 19,05x0050x2944              
130320070102010003          Chapa A-240-304 19,05 mm                     
070520080102010003          Chapa A-240-304 19,05 mmx400x400             
160720080102010003          Chapa  A-240 304 #19,05x400x400mm            
290620050102010004          Chapa A-240-304- 2,00mmx1000x1250            
160720080102010004          Chapa  A-240 304 #2,0x1000x1250mm            
290620050102010005          Disco Inox 304 25,4x270x000                  
301120070102010005          Disc A-240-304  - 2 1/2" x 330mm             
100320080102010005          Disc A-240-304  - 2 1/2" x 323mm             
280320080102010005          Disc A-240-304  - 25,4 x п320mm              
250720080102010005          Chapa  A-240 304(DISCO)#25,4 x п320mm        
150820050102010006          Disco Inox 304 25,4 x 282x000                
301120070102010006          Disco A-240-304 - 2" x 335mm                 
250720080102010006          Chapa  A-240 304(DISCO)#2" x 335mm           
150820080102010006          Chapa  A-240 304(DISCO)#50,8 x 335mm         
030920050102010007          Chapa A-240-316L 2 mm                        
110620080102010007          Chapa A240-316L 2 mm                         
190620080102010007          Chapa A240-316L  6,0 x 1250 x 3000mm         
160720080102010007          Chapa  A-240 316L #6,0 x1250 x3000mm         
030920050102010008          Disco Inox 316L - 31,75 mm                   
250720080102010008          CHAPA  A-240 316L(DISCO)#31,75X п228mm       
300720080102010008          Chapa  A-240 316L(DISCO)#31,75X п228mm       
030920050102010009          Disco Inox 316L - 12,70 mm                   
250720080102010009          Chapa  A-240 316L(DISCO)#12,70 X п125mm      
030920050102010010          Anel 316L 12,70 mm                           
300320060102010010          Anel A-240-316L (12,70 mm)                   
160720080102010010          Chapa  A-240 316L #12,70 mm                  
051020050102010011          Chapa A-240-304 - 3/4"                       
270920060102010011          Chapa A-240-304 - 19,05 mm                   
290220080102010011          Chapa A-240-304 - 19,05 mm (300 x 300)       
160720080102010011          Chapa  A-240 304 #19,05x300x300mm            
051020050102010012          Chapa A-240-304 - 1/8"                       
170320080102010012          Chapa A-240-304 - 3,00 x 1240 x 2000         
160720080102010012          Chapa  A-240 304 #3,00 x 1240 x 2000mm       
010120060102010013          Chapa A-240-304 (2,00x550x1000)              
280320080102010013          Chapa A-240-304 9,5 x 390 x 145              
160720080102010013          Chapa  A-240 304 #9,5 x 390 x 145mm          
010120060102010014          Chapa A-240-304 (2,00x190x660)               
160720080102010014          Chapa  A-240 304 #2,0x190x660mm              
010120060102010015          Chapa A-240-304 (2,00x190x320)               
020420080102010015          Chapa A-240-316L 6,0 x 1500 x 3750           
160720080102010015          Chapa  A-240 316L #6,0 x 1500 x 3750mm       
010120060102010016          Disco A-240-304 (25,4x п 295)                
301120070102010016          Disco A-240-304 - 1 1/2" x 225mm             
250720080102010016          Chapa  A-240 304(DISCO)#1 1/2" x 225mm       
150820080102010016          Chapa  A-240 304(DISCO)#38,10 x 225mm        
010120060102010017          Disco A-240-304 (12,7 x п 270)               
250720080102010017          Chapa  A-240 304(DISCO)#12,7 x п 270MM       
010120060102010018          Anel A-240-304 (12,7x270x195)                
221120060102010018          Anel A-240-304 12,7 mm (195x85)              
160720080102010018          Chapa  A-240 304 (ANEL) #12,7 x195 x 85MM    
020820080102010018          Chapa  A-240 304 (ANEL) #12,7 x195 x 85MM    
010120060102010019          Disco A-240-304 (76,2x п 145)                
250720080102010019          Chapa  A-240 304(DISCO)#76,2x п 145MM        
010120060102010020          Disco A-240-304 (76,2x п 120)                
250720080102010020          Chapa  A-240 304(ANEL)#76,2x п 120MM         
010120060102010021          Anel A-240-304 (205x110x12,7)                
221120060102010021          CANC-Anel A-240-304 (205x110x12,7)           
250720080102010021          Chapa  A-240 304(ANEL)#12,7 X 110 X 205MM-CAN
050820080102010021          Chapa  A-240 304(ANEL)#12,7 X 111 X 205MM    
010120060102010022          Chapa A-240-316L 6,35 mm                     
030720070102010022          Chapa A-240-316L 6,0mm Esp.                  
290220080102010022          Chapa A-240-316L 6,35 mm x 1250 x 3000 AB5   
160720080102010022          Chapa  A-240 316L #6,35 x 1250 x 3000mm      
010120060102010023          Disco A-240-316L (12,70 mm)                  
250720080102010023          Chapa  A-240 316L(DISCO)#12,70 X п 155MM     
010120060102010024          Disco A-240-316L (31,75 mm)                  
110720070102010024          Disco A-240-316L п 110 x 2,0                 
250720080102010024          Chapa  A-240 316L(DISCO) #2,0 x п110mm       
010120060102010025          Anel A-240-316L (2,00 mm)                    
160720080102010025          Chapa  A-240 316L #2,00 mm                   
010120060102010026          Chapa A-240-304 12,7 mm                      
280320080102010026          Chapa A-240-304 12,7x 1240x6000              
310320080102010026          Chapa A-240-304 12,7x 1500x6000              
160720080102010026          Chapa  A-240 304 #12,7x 1500x6000mm          
010120060102010027          Chapa A-240-304 15,8 mm                      
121120070102010027          Chapa A-240-304 15,8 mm                      
280320080102010027          Chapa A-240-304 15,8 x 1240 x 2000           
070420080102010027          Chapa A-240-304 15,8 x 1500 x 2000           
160720080102010027          Chapa  A-240 304 #15,8 x 1500 x 2000mm       
010120060102010028          Chapa A-240-304 9,5 mm                       
160720080102010028          Chapa  A-240 304 #9,5 mm                     
010120060102010029          Anel A-240-304 15,8mm (80x58,2)              
160720080102010029          Chapa  A-240 304(ANEL) #15,8x80x58,2mm       
010120060102010030          Anel A-240-304 12,7 mm (80x58,2)             
160720080102010030          Chapa  A-240 304(ANEL) #12,7x 80x58,2mm      
010120060102010031          Anel A-240-304 50,8 mm (235x85)              
160720080102010031          Chapa  A-240 304(ANEL) #50,8 x235x85mm       
010120060102010032          Anel A-240-304 25,4 mm (195x85))             
160720080102010032          Chapa  A-240 304(ANEL)# 25,4x195x85mm        
010120060102010033          Disco A-240-304-38,1 mm  (п 95mm)            
250720080102010033          Chapa  A-240 304(DISCO)#38,1 X п 95mm        
010120060102010034          Disco A-240-304 50,8 mm  (п 105 mm)          
100320080102010034          Disco A-240-304 50,8 mm x 457mm              
250720080102010034          Chapa  A-240 304(DISCO)#50,8  x п457mm       
010120060102010035          Anel A-240-304 50,8 mm (185x95)              
160720080102010035          Chapa  A-240 304(ANEL) #50,8x185x95mm        
010120060102010036          Disco A-240-304 19,05 mm  (п 195 mm)         
250720080102010036          Chapa  A-240 304(DISCO) #19,05 X п 195 mm    
010120060102010037          Chapa A-240-304L 4,76 mm (1000x3000)         
111220060102010037          Chapa A-240-304L 5,0 mm (1250x3000)          
290220080102010037          Chapa A-240-316L 5,0 mm (1250x3000)          
160720080102010037          Chapa  A-240 316L #5,0 x1250x3000mm          
010120060102010038          Chapa A-240-304L 12,7 mm (300x140)           
160720080102010038          Chapa  A-240 304L #12,7x300x140mm            
010120060102010039          Disco A-240-304L 6,35 mm (п 525)             
250720080102010039          Chapa  A-240 304L(DISCO) #6,35 X п 525mm     
020820080102010039          Chapa  A-240 304L(DISCO) #6,35 X п 525mm     
010120060102010040          Disco A-240-304L15,87 mm (п 445)             
141120070102010040          Disco A-240-304L 32,0 x п 340                
301120070102010040          Disco A-240-304 - 2" x 462mm                 
181220070102010040          Disco A-240-304 - 31,75mm x п 340            
250720080102010040          Chapa  A-240 304(DISCO)#31,75 x п 340mm      
010120060102010041          Anel A-240-304L15,87 mm (п 445x370)          
160720080102010041          Chapa  A-240 304L(ANEL)#15,87x445x370mm      
020820080102010041          Chapa  A-240 304L(ANEL)#15,87x445x370mm      
010120060102010042          Disco A-240-304 3,00 mm (п 88 mm) corte a que
250720080102010042          Chapa  A-240 304#3,00 X п 88 mm              
010120060102010043          Retalho A-240-304  2 mm (400 x 120 mm)       
020820080102010043          Chapa  A-240-304 # 2,0 x 400 x 120 mm        
010120060102010044          Chapa A-240-304 1,5 mm (490 x 390)           
190620080102010044          Chapa A-240-304 6,0 x 1240 x 3750mm          
160720080102010044          Chapa  A-240 304 #6,0 x 1240 x 3750mm        
010120060102010045          Chapa A-240-316L-5,0 mm                      
110720070102010045          Chapa A-240-316L-4,0 x100 x 100mm            
121120070102010045          Chapa A-240 316L 4,75"                       
190620080102010045          Chapa A-240 316L 6,0 x 1240 x 11700mm        
160720080102010045          Chapa  A-240 316L #6,0 x 1240 x 11700mm      
010120060102010046          Chapa A-240-304- 6,35 mm                     
290220080102010046          Chapa A-240-304- 6,35 mm (51x3000) AB5       
040420080102010046          Chapa A-240-304- 6,0 x 1240 x 3000           
160720080102010046          Chapa  A-240 304 #6,0 x 1240 x 3000mm        
010120060102010047          Chapa A-240-304L-5,0 mm                      
280320080102010047          Chapa A-240-304 6,0 x 1240 x 5000            
070420080102010047          Chapa A-240-304 6,35 x 1240 x 5000           
160720080102010047          Chapa  A-240 304 #6,35 x 1240 x 5000mm       
010120060102010048          Chapa A-240-304 3,2 mm (corte a quente)      
090320070102010048          Retalho A-240-316L  5 mm (400 x 450 mm)      
020820080102010048          Chapa  A-240 316L #5 x400 x 450 mm           
010120060102010049          Retalho A-240-316L  9,5 mm (130 x 170 mm)    
020820080102010049          Chapa A-240 316L # 9,5 x130 x 170 mm         
010120060102010050          Retalho A-240-304  3,2 mm (640 x 180 mm)     
020820080102010050          Chapa  A-240-304  #3,2 x 640 x 180 mm        
010120060102010051          Chapa A-240-304L 2mm x 605x 605              
051120070102010051          Chapa A-240 - 316L 9 mm                      
070420080102010051          Chapa AISI-316L - 6,0 x 1290 x 3000mm        
160720080102010051          Chapa  A-240 316L #6,0 x 1290 x 3000mm       
010120060102010052          Disco A-240-304L 38,1mm (п345)               
250720080102010052          Chapa  A-240 304L(DISCO)#38,1 X п345mm       
020820080102010052          Chapa  A-240 304L(DISCO)#38,1 X п345mm       
010120060102010053          Chapa A-240-316L 260x3,20                    
020420080102010053          Chapa A-240-316L 6,0 x 1500 x 11700          
160720080102010053          Chapa  A-240 316L #6,0 x 1500 x 11700mm      
010120060102010054          Disco Espelho Fixo A-240-316L 435x32         
020820080102010054          Chapa  A-240 316L(Disco) #32,0 x п435mm      
010120060102010055          Espelho A-240-316L Disco п 165x80            
020820080102010055          Chapa A-240-316L (Disco) п 165x80            
010120060102010056          Tampa A-240-316L Disco п 165x32              
020820080102010056          Chapa  A-240 316L (Disco) #32 x п165mm       
010120060102010057          Chapa A-240 - 316L 1/2" x 1300 x 2000        
051120070102010057          Chapa A-240 - 316L 12.7 x 1300 x 2000        
020420080102010057          Chapa A-240 - 316L 6,0 x 1500 x 3000         
160720080102010057          Chapa  A-240 316L #6,0 x 1500 x 3000mmm      
010120060102010058          Chapa A-240 - 316L 3 mm                      
160720080102010058          Chapa  A-240 316L # 3,0 mm                   
010120060102010059          Chapa A-240 - 316L 4 mm                      
160720080102010059          Chapa  A-240 316L #4,0 mm                    
061120080102010059          Chapa  A-240 316L #4,0 mm x 1240 x 3000mm    
010120060102010060          Chapa A-240 - 316L 6 mm                      
160720080102010060          Chapa  A-240 316L #6,0 mm                    
010120060102010061          Disco Inox 316 L 34X405                      
061120070102010061          Disco A- 240 316 L 34x405                    
250720080102010061          Chapa  A-240 316 L(DISCO)#34 x п405MM        
020820080102010061          Chapa  A-240 316 L(DISCO)#34 x п405MM        
010120060102010062          Disco Inox 316 L 34X355                      
061120070102010062          Disco A-240 316 L 34x355                     
091120070102010062          Chapa A-240 304 L п 2"                       
050320080102010062          Chapa A-240 304 L п 2mmx1000mmx2000mm        
160720080102010062          Chapa  A-240 304 L #2,0x1000x2000mm          
010120060102010063          Chapa SA-240-304 - 6,35x100x50               
290220080102010063          Chapa SA-240-304 - 6,35x50x3000mm            
160720080102010063          Chapa  A-240 304 #1/4"x50x3000mm             
150820080102010063          Chapa  A-240 304 #6,35x50x3000mm             
010120060102010064          Chapa SA-240-304 - 6,35x50x50                
160720080102010064          Chapa  A-240 304 #1/4"x50x50                 
150820080102010064          Chapa  A-240 304 #6,35x50x50                 
010120060102010065          Chapa SA-240-304L - 2,0x205x205              
160720080102010065          Chapa  A-240 304L #2,0x205x205MM             
010120060102010066          Chapa SA-240-304 - 4,76x75x45                
160720080102010066          Chapa  A-240 304 #4,76x75x45MM               
010120060102010067          Disco A-240-304  - 3" x пE.478               
250720080102010067          Chapa  A-240 304(DISCO)#3" x пE 478MM        
150820080102010067          Chapa  A-240 304(DISCO)#76,2 x пE 478MM      
010120060102010068          Disco A-240-304  - 2.1/2" x пE.323           
290520080102010068          Disco A-240-304  - 2.1/2"                    
250720080102010068          Chapa  A-240 304(DISCO)#2.1/2"x п 225MM      
010120060102010069          Disco A-240-304  - 2" x пE.457               
250720080102010069          Chapa  A-240 304(DISCO)#2" x пE 457MM        
150820080102010069          Chapa  A-240 304(DISCO)#50,8 x пE 457MM      
010120060102010070          Disco A-240-304  - 2" x пE.329               
250720080102010070          Chapa  A-240 304(DISCO)#2" x пE 329MM        
150820080102010070          Chapa  A-240 304(DISCO)#50,8 x пE 329MM      
010120060102010071          Disco A-240-304  - 1.1/2" x пE.219           
250720080102010071          Chapa  A-240 304(DISCO)#1.1/2" x пE 219MM    
010120060102010072          Chapa A-240-304 - 12,7 x 76 x 70             
160720080102010072          Chapa  A-240 304 #12,7 x 76 x 70mm           
010120060102010073          Chapa A-240-304 - 9,52 x 295 x 190           
160720080102010073          Chapa  A-240 304 #9,52 x 295 x 190mm         
010120060102010074          Chapa A-240-304 - 12,7 x 300 x 140           
160720080102010074          Chapa  A-240 304 #12,7 x 300 x 140MM         
010120060102010075          Chapa A-240-304 - 12,7 x 573 x 132           
160720080102010075          Chapa  A-240 304 #12,7 x 573 x 132mm         
010120060102010076          Chapa A-240-304 - 12,7 x 300 x 627           
160720080102010076          Chapa  A-240 304 #12,7 x 300 x 627mm         
010120060102010077          Chapa A-240-304 - 4,76 x 266 x 180           
160720080102010077          Chapa  A-240 304 #4,76 x 266 x 180mm         
010120060102010078          Chapa A-240-304 - 6,35 x 100 x 50            
160720080102010078          Chapa  A-240 304 #6,35 x 100 x 50mm          
010120060102010079          Chapa A-240-304 - 3,17 x 195 x 195           
160720080102010079          Chapa  A-240 304 #3,17 x 195 x 195mm         
180720080102010079          Chapa  A-240 304 #3,17mm                     
010120060102010080          Chapa 304 - 38 x 100 x 250                   
160420080102010080          Chapa A-240-304 - 2" x 100 x 250             
160720080102010080          Chapa  A-240 304 #2,0x 100 x 250mm           
010120060102010081          Disco A-240-304 2" x п410                    
250720080102010081          Chapa  A-240 304(DISCO)#2" x п410mm          
150820080102010081          Chapa  A-240 304(DISCO)#50,8x п410mm         
010120060102010082          Disco A-240-304 - 5/8" x п415                
250720080102010082          Chapa  A-240 304(DISCO)#5/8" x  п415mm       
150820080102010082          Chapa  A-240 304(DISCO)#15,87 x  п415mm      
010120060102010083          Disco A-240-304 - 5/8" x п355                
250720080102010083          Chapa  A-240 304(DISCO)#5/8" x  п355MM       
150820080102010083          Chapa  A-240 304(DISCO)#15,87 x  п355MM      
010120060102010084          Disco A-240-304 - 5/8" x п275                
250720080102010084          Chapa  A-240 304(DISCO)#5/8" x п275MM        
150820080102010084          Chapa  A-240 304(DISCO)#15,87 x п275MM       
010120060102010085          Anel A-240-304 5/8" x пE.415 x пI.330        
160720080102010085          Chapa  A-240 304(ANEL)# 5/8" x415 x 330MM    
150820080102010085          Chapa  A-240 304(ANEL)#15,87 x415 x 330MM    
010120060102010086          Chapa A-240-304 - 1/2" x 400 x 500           
160720080102010086          Chapa  A-240 304 #1/2" x 400 x 500MM         
010120060102010087          Disco 304 25,40mmx320                        
250720080102010087          Chapa  A-240 304 #25,40 x п320MM             
010120060102010088          Chapa A-240-304 3,00 x 1000 x 1200           
160720080102010088          Chapa  A-240 304 #3,0 x 1000 x 1200mm        
300720080102010088          Chapa  A-240 304 #3,0 x 1040 x 1200mm        
010120060102010089          Chapa SA-240-304 - 6,35x50x3000mm            
160720080102010089          Chapa  A-240 304 #1/4'x50x3000mm             
150820080102010089          Chapa  A-240 304 #6,35x50x3000mm             
010120060102010090          Chapa A-240-304 12,7x 1500x3000              
160720080102010090          Chapa  A-240 304 #12,7x 1500x3000mm          
010120060102010091          Chapa A-240-304 3 x1240 x 2000               
160720080102010091          Chapa  A-240 304 #3,0 x1240 x 2000mm         
010120060102010092          Chapa  A-240 316 #2,0 x 350 x 2440mm         
010120060102010093          Chapa  A-240 316 #3,0 x 242 x 630mm          
010120060102010094          Chapa  A-240 304 #3,17mm                     
250720080102010094          Chapa  A-240 304 #3,17 x 100 x 100mm         
010120060102010095          Chapa  A-240 304 #3,17mm                     
010120060102010096          Chapa  A-240 304 #2,0x 140 x 930mm           
010120060102010097          Chapa  A-240 304(DISCO) #12,7 x п205mm       
010120060102010098          Chapa  A-240 304 #25,4mm                     
010120060102010099          Chapa  A-240 304 #9,53 x190 x205MM           
010120060102010100          Chapa  A-240 304 #12,7x70x76mm               
010120060102010101          Chapa  A-240 304 #12,7x14x300mm              
010120060102010102          Chapa  A-240 304 #12,7x132x513mm             
010120060102010103          Chapa  A-240 304 #12,7x300x617mm             
010120060102010104          Chapa  A-240 304 #5,0x180x266MM              
010120060102010105          Chapa  A-240 304 #6,35x50x100MM              
010120060102010106          Chapa  A-240 304 #3,00x195x195MM             
010120060102010107          Chapa  A-240 304L (DISCO) Esp.2.1/2" x п10"  
010120060102010108          Chapa  A-240 304 #19,05 x 410mm x 290mm      
010120060102010109          Chapa  460x1650x1/4" inox                    
010120060102010110          Chapa  665x3000x1/4" inox                    
010120060102010111          Chapa  300x970x1/4" inox                     
010120060102010112          Chapa  600x1600x1/4" inox                    
010120060102010113          Chapa  1100x1240x1/4" inox                   
010120060102010114          Chapa  260x530x1/4" inox                     
010120060102010115          Chapa  260x465x1/4" inox                     
010120060102010116          Chapa  305x330x1/4" inox                     
010120060102010117          Chapa  295x665x1/4" inox                     
010120060102010118          Chapa 240x665x1/4" inox                      
010120060102010119          Chapa 230x825x1/4" inox                      
010120060102010120          Chapa 250x1100x1/4" inox                     
010120060102010121          Chapa 580x740x1/4" inox                      
010120060102010122          Chapa 300x1090x1/4" inox                     
010120060102010123          Chapa 250x700x1/4" inox                      
010120060102010124          Chapa 120x100x1/4" inox                      
010120060102010125          Chapa 900x480x1/4" inox                      
160520050102020000          Chapa de Aуo Carbono                         
120820080102020000          Chapa de Aуo Carbono A-36                    
170520050102020001          Chapa A-285-C-1/2" x 2,44 x 6                
020820070102020001          Chapa A-285-C-3/8" 2440 x 12000              
160720080102020001          Chapa  A-285 GR.C #3/8" x2440 x12000mm       
150820080102020001          Chapa  A-285 GR.C #9,53 x2440 x12000mm       
010720050102020002          Chapa Xadrez 6,30x1200x6000                  
020520070102020002          Chapa Xadrez 6,30x1200x3000                  
120820080102020002          Chapa  A-36  Xadrez 6,30x1200x3000           
130720050102020003          Chapa A-36 12,5x2440x6000                    
131020060102020003          Chapa A-36 -12,5 mm                          
161020060102020003          Chapa A-36 -12,7 mm                          
160520070102020003          Chapa A-36 -12,7 mm  Comp.2650               
020820070102020003          Chapa A-36 - 1/2" 2440x6000                  
160720080102020003          Chapa  A-36 #1/2"x2440x6000mm                
150820080102020003          Chapa  A-36 #12,70x2440x6000mm               
220720050102020004          Chapa A-516-60 8,00x2440x6000                
270920060102020004          Chapa A-516-GR.60 8,00                       
160720080102020004          Chapa  A-516 GR.60 #5/16"                    
220720050102020005          Chapa A-516-60 9,50x2440x6000                
131020060102020005          Chapa A-516-60 -9,50mm                       
151220060102020005          Chapa A-516-GR.60 (9,50mmx2440x6000)         
090320070102020005          Chapa A-516-GR.60 (9,5mm)                    
160520070102020005          Chapa A-516-GR.60 (9,5mm) 2440x6000mm        
081120070102020005          Chapa A-516-GR.60 9,5mm                      
141120070102020005          Chapa SA-516-GR.60 3/8" x 2440 x 12000mm     
160720080102020005          Chapa  A-516 GR.60 #3/8"x 2440 x 12000mm     
220720050102020006          Anel A-36 п 31,5x575x460                     
160720080102020006          Chapa  A-36(ANEL) #31,5x575x460MM            
220720050102020007          Disco A-36 п 31,5 x 575                      
250720080102020007          Chapa  A-36(DISCO)#31,5 x 575MM              
220720050102020008          Chapa A-36- 6,3x2440x6000                    
131020060102020008          Chapa A-36 - 6,3 mm                          
160720080102020008          Chapa  A-36 #1/4"                            
221120050102020009          Chapa Carbono Perf 3mm de 2000x1000          
160720080102020009          Chapa  A-36 Perfurada #3,0 x 1000x2000mm     
010120060102020010          Chapa A-516-GR.70 - 38,1 mm (un)             
160720080102020010          Chapa  A-516 GR.70 #1 1/2"                   
010120060102020011          Chapa A-285-C - 6,3 mm                       
020820070102020011          Chapa A-285-C - 5/8" 2440xx12000             
160720080102020011          Chapa  A-285 GR.C #5/8"x2440x12000mm         
010120060102020012          Disco A-516-GR 70 - 44,5 mm                  
250720080102020012          Chapa  A-516 GR 70 #44,5 x п220mm            
010120060102020013          Chapa A-36  25,4 mm                          
160720080102020013          Chapa  A-36  #1"                             
010120060102020014          Chapa SAE 1008 4,75 mm (1200x3000)           
160720080102020014          Chapa  A-36 #4,75 X1200x3000MM               
010120060102020015          Chapa SAE 1008 LA 3,00 mm (1200x6000)        
160720080102020015          Chapa  A-36 #3,0 x1.200x6000MM               
010120060102020016          Chapa A-36 - 9,5 mm                          
141120070102020016          Chapa A-36 - 3/8" x 2440 x 12000mm           
161120070102020016          Chapa A-36 - 1/4" x 2440 x 6000mm            
180220080102020016          Chapa A-36 - 1/4" x3000 x1200mm              
160720080102020016          Chapa  A-36 #1/4"x3000 x1200mm               
010120060102020017          Chapa A-36 -9,5 mm                           
160720080102020017          Chapa  A-36 #3/8"                            
010120060102020018          Chapa A-516 GR.60 - 16 mm                    
160720080102020018          Chapa  A-516 GR.60 #5/8"                     
250720080102020018          Chapa  A-516 GR.60 #5/8" x 100 x 320mm       
010120060102020019          Chapa A-516 GR.60 - 6,4mm                    
160720080102020019          Chapa  A-516 GR.60 #1/4"                     
250720080102020019          Chapa  A-516 GR.60 #1/4"x 95 x 800mm         
010120060102020020          Chapa A-516 GR.60 - 51mm                     
160720080102020020          Chapa  A-516 GR.60 #2"                       
010120060102020021          Chapa SAE-1020 5/8"(125x150)                 
160520070102020021          Chapa SAE-102016 mm                          
160720080102020021          Chapa A-36 # 5/8"                            
250720080102020021          Chapa  A-36 # 5/8"                           
010120060102020022          Disco A-36  1/2"x пext.290mm                 
160520070102020022          Disco A-36 12,7 mm п 290 mm                  
271120070102020022          Chapa SAE-1020  1 1/4" x 100 x 600mm         
160720080102020022          Chapa  A-36 #1 1/4" x 100 x 600mm            
010120060102020023          Chapa SAE-1020 - 2x270x250                   
160520070102020023          Chapa SAE-1020 - 2 x270x250 mm               
160720080102020023          Chapa  A-36 #2,0 x270x250 mm                 
010120060102020024          Chapa 1020 - 6,35x164x3410mm                 
160720080102020024          Chapa  A-36 # 1/4"x164x3410mm                
010120060102020025          Anel Elрstico Furo 62x2,0                    
240620080102020025          Disco SAE-1020 - Esp. 1/2" x п115            
250720080102020025          Chapa  SAE 1020(DISCO) #1/2" x п115mm        
120820080102020025          Chapa   A-36 (DISCO) #1/2" x п115mm          
010120060102020026          Anel Elрstico Furo 72x2,5                    
240620080102020026          Disco SAE-1020 - Esp. 1/2" x п210            
250720080102020026          Chapa  SAE 1020(DISCO)#1/2" x п210mm         
120820080102020026          Chapa  A-36(DISCO)#1/2" x п210mm             
010120060102020027          Anel Elрstico Eixo Aуo E50x2,0               
260520080102020027          Chapa Galvanizada n║ 20 3 x 1,20             
120820080102020027          Chapa  A-36 Galvanizada n║ 20 3 x 1,20       
010120060102020028          Anel Elрstico Eixo Aуo E20x1,2               
240620080102020028          Chapa SAE-1020 - Esp.3/8" x 1050 x 900       
160720080102020028          Chapa  A-36 #3/8" x1050 x900MM               
010120060102020029          Anel Elрstico Eixo Aуo E35x1,5               
240620080102020029          Chapa SAE-1020 - Esp. 2" x 380 x 210         
160720080102020029          Chapa  A-36 # 2"x 380 x 210MM                
010120060102020030          Anel Elрstico Eixo Aуo E23x1,2               
240620080102020030          Chapa SAE-1020 Esp. 1" x 510 x 480           
160720080102020030          Chapa  A-36 # 1" x 510 x 480MM               
010120060102020031          Chapa SAE 1020 1/4"x2000x6000                
160720080102020031          Chapa  A-36 #1/4"x2000x6000MM                
010120060102020032          Chapa SAE 1020 1/4"x1500x3000                
160720080102020032          Chapa  A-36 #1/4"x1500x3000MM                
010120060102020033          Chapa SAE 1020 3/4"x2550x1200                
160720080102020033          Chapa  A-36 #3/4"x2550x1200MM                
010120060102020034          Disco A-516 - GR.70 - п820mm x Esp. 50.8mm   
261120070102020034          Disco A-516 - GR.70 - п2" x 820 mm           
250720080102020034          Chapa  A-516 GR.70(DISCO) #2" x п820 mm      
010120060102020035          Disco A-285-GR.C п 165 x Exp. 7/8" (espelho) 
250720080102020035          Chapa  A-285GR.C(DISCO)#7/8"xп 165mm         
020820080102020035          Chapa  A-285GR.C(DISCO)#7/8"xп 165mm         
010120060102020036          Chapa A-36 п 1/4" x1,200 x 3000              
160720080102020036          Chapa  A-36 #1/4" x1,200 x 3000mm            
010120060102020037          Chapa A-36  п 1" x 200 x 350                 
160420080102020037          Chapa A-36  п 1" x 200 x 200                 
170420080102020037          Chapa A-36   1" x 200 x 200                  
160720080102020037          Chapa  A-36 #1" x 200 x 200mm                
010120060102020038          Chapa A-36  п 1/8"                           
060520080102020038          Chapa SAE-1020  п 1/8" x 1200 x 3000         
160720080102020038          Chapa  A-36  # 1/8" x 1200 x 3000MM          
010120060102020039          Chapa A-36  п 5/8"                           
160720080102020039          Chapa  A-36 #5/8"                            
010120060102020040          Chapa A-285 165x7/8"                         
160720080102020040          Chapa  A-285 GR.C (ANEL)#7/8"X165MM          
020820080102020040          Chapa  A-285 GR.C (ANEL)#7/8"X165MM          
150820080102020040          Chapa  A-285 GR.C (ANEL)#22,22X165MM         
010120060102020041          Chapa Xadrez                                 
120820080102020041          Chapa  A-36 Xadrez # 3/16" X 1200 X 3000MM   
150820080102020041          Chapa  A-36 Xadrez # 4,76 X 1200 X 3000MM    
010120060102020042          Disco SAE-1020 - п 1 1/4" x 165mm            
240620080102020042          Disco SAE-1020 - Esp. 1.3/4" x п350          
250720080102020042          Chapa  SAE 1020(DISCO) #1 3/4" x п350MM      
120820080102020042          Chapa  A-36(DISCO) #1 3/4" x п350MM          
150820080102020042          Chapa  A-36(DISCO) #44,45 x п350MM           
